Archive member included to satisfy reference by file (symbol)

esp-idf/esp_app_format/libesp_app_format.a(esp_app_desc.c.obj)
                              (esp_app_desc)
esp-idf/pthread/libpthread.a(pthread.c.obj)
                              (pthread_include_pthread_impl)
esp-idf/pthread/libpthread.a(pthread_local_storage.c.obj)
                              esp-idf/pthread/libpthread.a(pthread.c.obj) (pthread_key_create)
esp-idf/pthread/libpthread.a(pthread_rwlock.c.obj)
                              (pthread_include_pthread_rwlock_impl)
esp-idf/pthread/libpthread.a(pthread_cond_var.c.obj)
                              esp-idf/pthread/libpthread.a(pthread_rwlock.c.obj) (pthread_cond_init)
esp-idf/esp_system/libesp_system.a(ubsan.c.obj)
                              (__ubsan_include)
esp-idf/esp_system/libesp_system.a(cpu_start.c.obj)
                              (call_start_cpu0)
esp-idf/esp_system/libesp_system.a(esp_system_chip.c.obj)
                              esp-idf/esp_system/libesp_system.a(ubsan.c.obj) (esp_system_abort)
esp-idf/esp_system/libesp_system.a(clk.c.obj)
                              esp-idf/esp_system/libesp_system.a(cpu_start.c.obj) (esp_clk_init)
esp-idf/esp_system/libesp_system.a(cache_err_int.c.obj)
                              esp-idf/esp_system/libesp_system.a(cpu_start.c.obj) (esp_cache_err_int_init)
esp-idf/esp_system/libesp_system.a(panic.c.obj)
                              esp-idf/esp_system/libesp_system.a(esp_system_chip.c.obj) (panic_abort)
esp-idf/esp_system/libesp_system.a(esp_system.c.obj)
                              esp-idf/esp_system/libesp_system.a(cpu_start.c.obj) (esp_restart)
esp-idf/esp_system/libesp_system.a(startup.c.obj)
                              esp-idf/esp_system/libesp_system.a(cpu_start.c.obj) (g_startup_fn)
esp-idf/esp_system/libesp_system.a(panic_handler.c.obj)
                              esp-idf/esp_system/libesp_system.a(panic.c.obj) (panic_restart)
esp-idf/esp_system/libesp_system.a(brownout.c.obj)
                              esp-idf/esp_system/libesp_system.a(startup.c.obj) (esp_brownout_init)
esp-idf/esp_system/libesp_system.a(system_internal.c.obj)
                              esp-idf/esp_system/libesp_system.a(esp_system.c.obj) (esp_restart_noos)
esp-idf/esp_system/libesp_system.a(panic_arch.c.obj)
                              esp-idf/esp_system/libesp_system.a(panic_handler.c.obj) (panic_print_registers)
esp-idf/esp_rom/libesp_rom.a(esp_rom_uart.c.obj)
                              esp-idf/esp_system/libesp_system.a(cpu_start.c.obj) (esp_rom_uart_set_clock_baudrate)
esp-idf/hal/libhal.a(efuse_hal.c.obj)
                              esp-idf/esp_system/libesp_system.a(startup.c.obj) (efuse_hal_chip_revision)
esp-idf/hal/libhal.a(efuse_hal.c.obj)
                              esp-idf/hal/libhal.a(efuse_hal.c.obj) (efuse_hal_get_major_chip_version)
esp-idf/hal/libhal.a(uart_hal_iram.c.obj)
                              esp-idf/esp_system/libesp_system.a(panic.c.obj) (uart_hal_write_txfifo)
esp-idf/hal/libhal.a(brownout_hal.c.obj)
                              esp-idf/esp_system/libesp_system.a(brownout.c.obj) (brownout_hal_config)
esp-idf/log/liblog.a(log.c.obj)
                              esp-idf/pthread/libpthread.a(pthread.c.obj) (esp_log_write)
esp-idf/log/liblog.a(log_freertos.c.obj)
                              esp-idf/log/liblog.a(log.c.obj) (esp_log_impl_lock)
esp-idf/heap/libheap.a(heap_caps.c.obj)
                              esp-idf/esp_system/libesp_system.a(esp_system_chip.c.obj) (heap_caps_get_free_size)
esp-idf/heap/libheap.a(heap_caps_init.c.obj)
                              esp-idf/esp_system/libesp_system.a(startup.c.obj) (heap_caps_init)
esp-idf/heap/libheap.a(multi_heap.c.obj)
                              esp-idf/heap/libheap.a(heap_caps_init.c.obj) (multi_heap_in_rom_init)
esp-idf/heap/libheap.a(memory_layout_utils.c.obj)
                              esp-idf/heap/libheap.a(heap_caps_init.c.obj) (soc_get_available_memory_region_max_count)
esp-idf/heap/libheap.a(memory_layout.c.obj)
                              esp-idf/heap/libheap.a(heap_caps_init.c.obj) (soc_memory_region_count)
esp-idf/esp_hw_support/libesp_hw_support.a(cpu.c.obj)
                              esp-idf/esp_system/libesp_system.a(panic.c.obj) (esp_cpu_set_breakpoint)
esp-idf/esp_hw_support/libesp_hw_support.a(esp_clk.c.obj)
                              esp-idf/esp_system/libesp_system.a(startup.c.obj) (esp_clk_cpu_freq)
esp-idf/esp_hw_support/libesp_hw_support.a(rtc_module.c.obj)
                              esp-idf/esp_system/libesp_system.a(brownout.c.obj) (rtc_isr_register)
esp-idf/esp_hw_support/libesp_hw_support.a(sleep_gpio.c.obj)
                              esp-idf/esp_system/libesp_system.a(cpu_start.c.obj) (esp_deep_sleep_wakeup_io_reset)
esp-idf/esp_hw_support/libesp_hw_support.a(rtc_clk.c.obj)
                              esp-idf/esp_system/libesp_system.a(clk.c.obj) (rtc_clk_32k_enable)
esp-idf/esp_hw_support/libesp_hw_support.a(rtc_init.c.obj)
                              esp-idf/esp_system/libesp_system.a(clk.c.obj) (rtc_init)
esp-idf/esp_hw_support/libesp_hw_support.a(rtc_time.c.obj)
                              esp-idf/esp_system/libesp_system.a(clk.c.obj) (rtc_clk_cal)
esp-idf/esp_hw_support/libesp_hw_support.a(regi2c_ctrl.c.obj)
                              esp-idf/esp_hw_support/libesp_hw_support.a(rtc_clk.c.obj) (regi2c_ctrl_write_reg)
esp-idf/freertos/libfreertos.a(queue.c.obj)
                              esp-idf/pthread/libpthread.a(pthread.c.obj) (xQueueGetMutexHolder)
esp-idf/freertos/libfreertos.a(tasks.c.obj)
                              esp-idf/pthread/libpthread.a(pthread.c.obj) (xTaskCreatePinnedToCore)
esp-idf/freertos/libfreertos.a(port.c.obj)
                              esp-idf/freertos/libfreertos.a(tasks.c.obj) (vPortEndScheduler)
esp-idf/freertos/libfreertos.a(app_startup.c.obj)
                              esp-idf/esp_system/libesp_system.a(startup.c.obj) (esp_startup_start_app)
esp-idf/freertos/libfreertos.a(FreeRTOS-openocd.c.obj)
                              (uxTopUsedPriority)
esp-idf/freertos/libfreertos.a(port_common.c.obj)
                              esp-idf/freertos/libfreertos.a(tasks.c.obj) (xPortCheckValidTCBMem)
esp-idf/freertos/libfreertos.a(port_systick.c.obj)
                              esp-idf/freertos/libfreertos.a(port.c.obj) (vPortSetupTimer)
esp-idf/freertos/libfreertos.a(list.c.obj)
                              esp-idf/freertos/libfreertos.a(queue.c.obj) (vListInitialise)
esp-idf/newlib/libnewlib.a(abort.c.obj)
                              esp-idf/pthread/libpthread.a(pthread.c.obj) (abort)
esp-idf/newlib/libnewlib.a(assert.c.obj)
                              (__assert_func)
esp-idf/newlib/libnewlib.a(heap.c.obj)
                              esp-idf/pthread/libpthread.a(pthread.c.obj) (malloc)
esp-idf/newlib/libnewlib.a(locks.c.obj)
                              esp-idf/pthread/libpthread.a(pthread_cond_var.c.obj) (_lock_init_recursive)
esp-idf/newlib/libnewlib.a(pthread.c.obj)
                              (newlib_include_pthread_impl)
esp-idf/newlib/libnewlib.a(reent_init.c.obj)
                              esp-idf/esp_system/libesp_system.a(startup.c.obj) (esp_reent_init)
esp-idf/newlib/libnewlib.a(newlib_init.c.obj)
                              esp-idf/esp_system/libesp_system.a(startup.c.obj) (esp_newlib_init)
esp-idf/newlib/libnewlib.a(syscalls.c.obj)
                              esp-idf/newlib/libnewlib.a(newlib_init.c.obj) (_kill_r)
esp-idf/newlib/libnewlib.a(time.c.obj)
                              esp-idf/newlib/libnewlib.a(newlib_init.c.obj) (_gettimeofday_r)
esp-idf/newlib/libnewlib.a(esp_time_impl.c.obj)
                              esp-idf/newlib/libnewlib.a(time.c.obj) (esp_time_impl_get_time_since_boot)
esp-idf/cxx/libcxx.a(cxx_guards.cpp.obj)
                              (__cxa_guard_dummy)
esp-idf/esp_timer/libesp_timer.a(esp_timer.c.obj)
                              esp-idf/esp_system/libesp_system.a(startup.c.obj) (esp_timer_early_init)
esp-idf/esp_timer/libesp_timer.a(system_time.c.obj)
                              esp-idf/esp_timer/libesp_timer.a(esp_timer.c.obj) (esp_timer_impl_init_system_time)
esp-idf/esp_timer/libesp_timer.a(esp_timer_impl_systimer.c.obj)
                              esp-idf/esp_timer/libesp_timer.a(esp_timer.c.obj) (esp_timer_impl_get_time)
esp-idf/vfs/libvfs.a(vfs.c.obj)
                              (vfs_include_syscalls_impl)
esp-idf/vfs/libvfs.a(vfs_console.c.obj)
                              esp-idf/esp_system/libesp_system.a(startup.c.obj) (esp_vfs_console_register)
esp-idf/vfs/libvfs.a(vfs_usb_serial_jtag.c.obj)
                              esp-idf/vfs/libvfs.a(vfs_console.c.obj) (esp_vfs_usb_serial_jtag_get_vfs)
esp-idf/vfs/libvfs.a(vfs_uart.c.obj)
                              esp-idf/vfs/libvfs.a(vfs_console.c.obj) (esp_vfs_uart_get_vfs)
esp-idf/main/libmain.a(hello_world_main.c.obj)
                              (app_main)
esp-idf/riscv/libriscv.a(instruction_decode.c.obj)
                              esp-idf/esp_hw_support/libesp_hw_support.a(cpu.c.obj) (riscv_decode_offset_from_jal_instruction)
esp-idf/riscv/libriscv.a(vectors.S.obj)
                              esp-idf/esp_system/libesp_system.a(cpu_start.c.obj) (_vector_table)
esp-idf/riscv/libriscv.a(interrupt.c.obj)
                              esp-idf/riscv/libriscv.a(vectors.S.obj) (_global_interrupt_handler)
esp-idf/efuse/libefuse.a(esp_efuse_api.c.obj)
                              esp-idf/esp_system/libesp_system.a(cpu_start.c.obj) (esp_efuse_check_errors)
esp-idf/efuse/libefuse.a(esp_efuse_utility.c.obj)
                              esp-idf/efuse/libefuse.a(esp_efuse_api.c.obj) (esp_efuse_utility_process)
esp-idf/efuse/libefuse.a(esp_efuse_utility.c.obj)
                              esp-idf/efuse/libefuse.a(esp_efuse_utility.c.obj) (esp_efuse_utility_clear_program_registers)
esp-idf/efuse/libefuse.a(esp_efuse_api_key.c.obj)
                              esp-idf/efuse/libefuse.a(esp_efuse_utility.c.obj) (esp_efuse_get_coding_scheme)
esp-idf/efuse/libefuse.a(esp_efuse_table.c.obj)
                              esp-idf/efuse/libefuse.a(esp_efuse_api_key.c.obj) (ESP_EFUSE_KEY5)
esp-idf/driver/libdriver.a(gpio.c.obj)
                              esp-idf/esp_hw_support/libesp_hw_support.a(sleep_gpio.c.obj) (gpio_sleep_set_direction)
esp-idf/driver/libdriver.a(rtc_io.c.obj)
                              esp-idf/driver/libdriver.a(gpio.c.obj) (rtc_gpio_is_valid_gpio)
esp-idf/driver/libdriver.a(uart.c.obj)
                              esp-idf/vfs/libvfs.a(vfs_uart.c.obj) (uart_set_word_length)
esp-idf/driver/libdriver.a(usb_serial_jtag.c.obj)
                              esp-idf/vfs/libvfs.a(vfs_usb_serial_jtag.c.obj) (usb_serial_jtag_read_bytes)
esp-idf/bootloader_support/libbootloader_support.a(bootloader_flash.c.obj)
                              esp-idf/esp_system/libesp_system.a(brownout.c.obj) (bootloader_flash_reset_chip)
esp-idf/bootloader_support/libbootloader_support.a(bootloader_mem.c.obj)
                              esp-idf/esp_system/libesp_system.a(cpu_start.c.obj) (bootloader_init_mem)
esp-idf/bootloader_support/libbootloader_support.a(flash_encrypt.c.obj)
                              esp-idf/bootloader_support/libbootloader_support.a(bootloader_flash.c.obj) (esp_flash_encryption_enabled)
esp-idf/bootloader_support/libbootloader_support.a(bootloader_flash_config_esp32c6.c.obj)
                              esp-idf/esp_system/libesp_system.a(cpu_start.c.obj) (bootloader_flash_update_id)
esp-idf/spi_flash/libspi_flash.a(flash_brownout_hook.c.obj)
                              esp-idf/esp_system/libesp_system.a(startup.c.obj) (spi_flash_needs_reset_check)
esp-idf/spi_flash/libspi_flash.a(cache_utils.c.obj)
                              esp-idf/esp_system/libesp_system.a(panic_handler.c.obj) (spi_flash_cache_enabled)
esp-idf/spi_flash/libspi_flash.a(flash_mmap.c.obj)
                              esp-idf/bootloader_support/libbootloader_support.a(bootloader_flash.c.obj) (spi_flash_mmap)
esp-idf/spi_flash/libspi_flash.a(flash_ops.c.obj)
                              esp-idf/esp_system/libesp_system.a(cpu_start.c.obj) (esp_mspi_pin_init)
esp-idf/spi_flash/libspi_flash.a(esp_flash_api.c.obj)
                              esp-idf/main/libmain.a(hello_world_main.c.obj) (esp_flash_get_size)
esp-idf/spi_flash/libspi_flash.a(esp_flash_spi_init.c.obj)
                              esp-idf/esp_system/libesp_system.a(startup.c.obj) (esp_flash_init_default_chip)
esp-idf/spi_flash/libspi_flash.a(spi_flash_os_func_app.c.obj)
                              esp-idf/spi_flash/libspi_flash.a(esp_flash_spi_init.c.obj) (esp_flash_init_os_functions)
esp-idf/spi_flash/libspi_flash.a(spi_flash_os_func_noos.c.obj)
                              esp-idf/spi_flash/libspi_flash.a(esp_flash_api.c.obj) (esp_flash_app_disable_os_functions)
esp-idf/spi_flash/libspi_flash.a(spi_flash_chip_drivers.c.obj)
                              esp-idf/spi_flash/libspi_flash.a(esp_flash_api.c.obj) (esp_flash_registered_chips)
esp-idf/spi_flash/libspi_flash.a(spi_flash_chip_generic.c.obj)
                              esp-idf/spi_flash/libspi_flash.a(spi_flash_chip_drivers.c.obj) (esp_flash_chip_generic)
esp-idf/spi_flash/libspi_flash.a(spi_flash_chip_issi.c.obj)
                              esp-idf/spi_flash/libspi_flash.a(spi_flash_chip_drivers.c.obj) (esp_flash_chip_issi)
esp-idf/spi_flash/libspi_flash.a(spi_flash_chip_mxic.c.obj)
                              esp-idf/spi_flash/libspi_flash.a(spi_flash_chip_drivers.c.obj) (esp_flash_chip_mxic)
esp-idf/spi_flash/libspi_flash.a(spi_flash_chip_gd.c.obj)
                              esp-idf/spi_flash/libspi_flash.a(spi_flash_chip_drivers.c.obj) (esp_flash_chip_gd)
esp-idf/spi_flash/libspi_flash.a(spi_flash_chip_winbond.c.obj)
                              esp-idf/spi_flash/libspi_flash.a(spi_flash_chip_gd.c.obj) (spi_flash_chip_winbond_page_program)
esp-idf/spi_flash/libspi_flash.a(spi_flash_chip_boya.c.obj)
                              esp-idf/spi_flash/libspi_flash.a(spi_flash_chip_drivers.c.obj) (esp_flash_chip_boya)
esp-idf/spi_flash/libspi_flash.a(spi_flash_chip_th.c.obj)
                              esp-idf/spi_flash/libspi_flash.a(spi_flash_chip_drivers.c.obj) (esp_flash_chip_th)
esp-idf/spi_flash/libspi_flash.a(memspi_host_driver.c.obj)
                              esp-idf/spi_flash/libspi_flash.a(esp_flash_spi_init.c.obj) (memspi_host_init_pointers)
esp-idf/esp_system/libesp_system.a(esp_err.c.obj)
                              esp-idf/freertos/libfreertos.a(app_startup.c.obj) (_esp_error_check_failed)
esp-idf/esp_system/libesp_system.a(crosscore_int.c.obj)
                              esp-idf/freertos/libfreertos.a(app_startup.c.obj) (esp_crosscore_int_init)
esp-idf/esp_system/libesp_system.a(freertos_hooks.c.obj)
                              esp-idf/freertos/libfreertos.a(port_systick.c.obj) (esp_vApplicationTickHook)
esp-idf/esp_system/libesp_system.a(int_wdt.c.obj)
                              esp-idf/freertos/libfreertos.a(app_startup.c.obj) (esp_int_wdt_init)
esp-idf/esp_system/libesp_system.a(task_wdt.c.obj)
                              esp-idf/freertos/libfreertos.a(app_startup.c.obj) (esp_task_wdt_init)
esp-idf/esp_system/libesp_system.a(task_wdt_impl_timergroup.c.obj)
                              esp-idf/esp_system/libesp_system.a(task_wdt.c.obj) (esp_task_wdt_impl_timer_allocate)
esp-idf/esp_rom/libesp_rom.a(esp_rom_regi2c_esp32c6.c.obj)
                              esp-idf/esp_hw_support/libesp_hw_support.a(regi2c_ctrl.c.obj) (esp_rom_regi2c_read)
esp-idf/esp_rom/libesp_rom.a(esp_rom_systimer.c.obj)
                              esp-idf/freertos/libfreertos.a(port_systick.c.obj) (systimer_hal_init)
esp-idf/hal/libhal.a(gpio_hal.c.obj)
                              esp-idf/driver/libdriver.a(gpio.c.obj) (gpio_hal_intr_enable_on_core)
esp-idf/hal/libhal.a(uart_hal.c.obj)
                              esp-idf/driver/libdriver.a(uart.c.obj) (uart_hal_set_sclk)
esp-idf/hal/libhal.a(spi_flash_hal.c.obj)
                              esp-idf/spi_flash/libspi_flash.a(memspi_host_driver.c.obj) (spi_flash_hal_init)
esp-idf/hal/libhal.a(spi_flash_hal_iram.c.obj)
                              esp-idf/spi_flash/libspi_flash.a(memspi_host_driver.c.obj) (spi_flash_hal_poll_cmd_done)
esp-idf/hal/libhal.a(spi_flash_encrypt_hal_iram.c.obj)
                              esp-idf/spi_flash/libspi_flash.a(spi_flash_chip_generic.c.obj) (spi_flash_encryption_hal_enable)
esp-idf/hal/libhal.a(spi_flash_hal_gpspi.c.obj)
                              esp-idf/spi_flash/libspi_flash.a(memspi_host_driver.c.obj) (spi_flash_hal_gpspi_poll_cmd_done)
esp-idf/soc/libsoc.a(gpio_periph.c.obj)
                              esp-idf/esp_hw_support/libesp_hw_support.a(sleep_gpio.c.obj) (GPIO_HOLD_MASK)
esp-idf/soc/libsoc.a(spi_periph.c.obj)
                              esp-idf/spi_flash/libspi_flash.a(esp_flash_spi_init.c.obj) (spi_periph_signal)
esp-idf/soc/libsoc.a(uart_periph.c.obj)
                              esp-idf/driver/libdriver.a(uart.c.obj) (uart_periph_signal)
esp-idf/esp_hw_support/libesp_hw_support.a(esp_memory_utils.c.obj)
                              esp-idf/freertos/libfreertos.a(port_common.c.obj) (esp_ptr_byte_accessible)
esp-idf/esp_hw_support/libesp_hw_support.a(clk_ctrl_os.c.obj)
                              esp-idf/driver/libdriver.a(uart.c.obj) (periph_rtc_dig_clk8m_enable)
esp-idf/esp_hw_support/libesp_hw_support.a(intr_alloc.c.obj)
                              esp-idf/driver/libdriver.a(gpio.c.obj) (esp_intr_get_cpu)
esp-idf/esp_hw_support/libesp_hw_support.a(periph_ctrl.c.obj)
                              esp-idf/freertos/libfreertos.a(port_systick.c.obj) (periph_module_enable)
esp-idf/esp_hw_support/libesp_hw_support.a(systimer.c.obj)
                              esp-idf/freertos/libfreertos.a(port_systick.c.obj) (systimer_ticks_to_us)
esp-idf/esp_hw_support/libesp_hw_support.a(chip_info.c.obj)
                              esp-idf/main/libmain.a(hello_world_main.c.obj) (esp_chip_info)
esp-idf/freertos/libfreertos.a(portasm.S.obj)
                              esp-idf/riscv/libriscv.a(vectors.S.obj) (rtos_int_enter)
esp-idf/esp_common/libesp_common.a(esp_err_to_name.c.obj)
                              esp-idf/esp_system/libesp_system.a(esp_err.c.obj) (esp_err_to_name)
esp-idf/esp_ringbuf/libesp_ringbuf.a(ringbuf.c.obj)
                              esp-idf/driver/libdriver.a(uart.c.obj) (xRingbufferCreate)
esp-idf/efuse/libefuse.a(esp_efuse_fields.c.obj)
                              esp-idf/bootloader_support/libbootloader_support.a(flash_encrypt.c.obj) (esp_efuse_enable_rom_secure_download_mode)
esp-idf/driver/libdriver.a(spi_common.c.obj)
                              esp-idf/spi_flash/libspi_flash.a(esp_flash_spi_init.c.obj) (spicommon_bus_using_iomux)
esp-idf/driver/libdriver.a(spi_bus_lock.c.obj)
                              esp-idf/driver/libdriver.a(spi_common.c.obj) (spi_bus_init_lock)
esp-idf/esp_partition/libesp_partition.a(partition_target.c.obj)
                              esp-idf/spi_flash/libspi_flash.a(spi_flash_os_func_app.c.obj) (esp_partition_main_flash_region_safe)
esp-idf/app_update/libapp_update.a(esp_ota_ops.c.obj)
                              esp-idf/esp_partition/libesp_partition.a(partition_target.c.obj) (esp_ota_get_running_partition)
esp-idf/esp_hw_support/libesp_hw_support.a(gdma.c.obj)
                              esp-idf/driver/libdriver.a(spi_common.c.obj) (gdma_new_channel)
esp-idf/newlib/libnewlib.a(stdatomic.c.obj)
                              esp-idf/driver/libdriver.a(spi_common.c.obj) (__atomic_compare_exchange_1)
esp-idf/bootloader_support/libbootloader_support.a(bootloader_common.c.obj)
                              esp-idf/esp_partition/libesp_partition.a(partition_target.c.obj) (bootloader_common_get_sha256_of_partition)
esp-idf/bootloader_support/libbootloader_support.a(bootloader_common_loader.c.obj)
                              esp-idf/app_update/libapp_update.a(esp_ota_ops.c.obj) (bootloader_common_ota_select_crc)
esp-idf/bootloader_support/libbootloader_support.a(bootloader_utility.c.obj)
                              esp-idf/bootloader_support/libbootloader_support.a(bootloader_common.c.obj) (bootloader_sha256_flash_contents)
esp-idf/bootloader_support/libbootloader_support.a(esp_image_format.c.obj)
                              esp-idf/app_update/libapp_update.a(esp_ota_ops.c.obj) (esp_image_verify)
esp-idf/bootloader_support/libbootloader_support.a(flash_partitions.c.obj)
                              esp-idf/bootloader_support/libbootloader_support.a(bootloader_common.c.obj) (esp_partition_table_verify)
esp-idf/bootloader_support/libbootloader_support.a(bootloader_sha.c.obj)
                              esp-idf/bootloader_support/libbootloader_support.a(bootloader_utility.c.obj) (bootloader_sha256_start)
esp-idf/bootloader_support/libbootloader_support.a(bootloader_random_esp32c6.c.obj)
                              esp-idf/bootloader_support/libbootloader_support.a(bootloader_utility.c.obj) (bootloader_random_disable)
esp-idf/esp_partition/libesp_partition.a(partition.c.obj)
                              esp-idf/app_update/libapp_update.a(esp_ota_ops.c.obj) (esp_partition_iterator_release)
esp-idf/hal/libhal.a(mmu_hal.c.obj)
                              esp-idf/bootloader_support/libbootloader_support.a(bootloader_utility.c.obj) (mmu_hal_init)
esp-idf/hal/libhal.a(cache_hal.c.obj)
                              esp-idf/bootloader_support/libbootloader_support.a(bootloader_utility.c.obj) (cache_hal_disable)
esp-idf/hal/libhal.a(gdma_hal.c.obj)
                              esp-idf/esp_hw_support/libesp_hw_support.a(gdma.c.obj) (gdma_hal_init)
esp-idf/soc/libsoc.a(gdma_periph.c.obj)
                              esp-idf/esp_hw_support/libesp_hw_support.a(gdma.c.obj) (gdma_periph_signals)
esp-idf/mbedtls/mbedtls/library/libmbedcrypto.a(sha256.c.obj)
                              esp-idf/bootloader_support/libbootloader_support.a(bootloader_sha.c.obj) (mbedtls_sha256_init)
esp-idf/mbedtls/mbedtls/library/libmbedcrypto.a(platform.c.obj)
                              esp-idf/mbedtls/mbedtls/library/libmbedcrypto.a(sha256.c.obj) (mbedtls_calloc)
esp-idf/mbedtls/mbedtls/library/libmbedcrypto.a(platform_util.c.obj)
                              esp-idf/mbedtls/mbedtls/library/libmbedcrypto.a(sha256.c.obj) (mbedtls_platform_zeroize)
esp-idf/mbedtls/mbedtls/library/libmbedcrypto.a(esp_mem.c.obj)
                              esp-idf/mbedtls/mbedtls/library/libmbedcrypto.a(platform.c.obj) (esp_mbedtls_mem_calloc)
/home/djordje/.espressif/tools/riscv32-esp-elf/esp-2022r1-11.2.0/riscv32-esp-elf/bin/../lib/gcc/riscv32-esp-elf/11.2.0/rv32imc/ilp32/no-rtti/libgcc.a(_ffssi2.o)
                              esp-idf/esp_hw_support/libesp_hw_support.a(sleep_gpio.c.obj) (__ffssi2)
/home/djordje/.espressif/tools/riscv32-esp-elf/esp-2022r1-11.2.0/riscv32-esp-elf/bin/../lib/gcc/riscv32-esp-elf/11.2.0/rv32imc/ilp32/no-rtti/libgcc.a(_clz.o)
                              /home/djordje/.espressif/tools/riscv32-esp-elf/esp-2022r1-11.2.0/riscv32-esp-elf/bin/../lib/gcc/riscv32-esp-elf/11.2.0/rv32imc/ilp32/no-rtti/libgcc.a(_ffssi2.o) (__clz_tab)
/home/djordje/.espressif/tools/riscv32-esp-elf/esp-2022r1-11.2.0/riscv32-esp-elf/bin/../lib/gcc/riscv32-esp-elf/11.2.0/rv32imc/ilp32/no-rtti/libgcc.a(_clzsi2.o)
                              esp-idf/freertos/libfreertos.a(tasks.c.obj) (__clzsi2)
/home/djordje/.espressif/tools/riscv32-esp-elf/esp-2022r1-11.2.0/riscv32-esp-elf/bin/../lib/gcc/riscv32-esp-elf/11.2.0/rv32imc/ilp32/no-rtti/libgcc.a(_popcountsi2.o)
                              esp-idf/efuse/libefuse.a(esp_efuse_utility.c.obj) (__popcountsi2)
/home/djordje/.espressif/tools/riscv32-esp-elf/esp-2022r1-11.2.0/riscv32-esp-elf/bin/../lib/gcc/riscv32-esp-elf/11.2.0/rv32imc/ilp32/no-rtti/libgcc.a(_bswapdi2.o)
                              esp-idf/spi_flash/libspi_flash.a(spi_flash_chip_generic.c.obj) (__bswapdi2)
/home/djordje/.espressif/tools/riscv32-esp-elf/esp-2022r1-11.2.0/riscv32-esp-elf/bin/../lib/gcc/riscv32-esp-elf/11.2.0/rv32imc/ilp32/no-rtti/libgcc.a(_divdi3.o)
                              esp-idf/newlib/libnewlib.a(time.c.obj) (__divdi3)
/home/djordje/.espressif/tools/riscv32-esp-elf/esp-2022r1-11.2.0/riscv32-esp-elf/bin/../lib/gcc/riscv32-esp-elf/11.2.0/rv32imc/ilp32/no-rtti/libgcc.a(_moddi3.o)
                              esp-idf/newlib/libnewlib.a(time.c.obj) (__moddi3)
/home/djordje/.espressif/tools/riscv32-esp-elf/esp-2022r1-11.2.0/riscv32-esp-elf/bin/../lib/gcc/riscv32-esp-elf/11.2.0/rv32imc/ilp32/no-rtti/libgcc.a(_udivdi3.o)
                              esp-idf/esp_system/libesp_system.a(clk.c.obj) (__udivdi3)
/home/djordje/.espressif/tools/riscv32-esp-elf/esp-2022r1-11.2.0/riscv32-esp-elf/bin/../lib/gcc/riscv32-esp-elf/11.2.0/rv32imc/ilp32/no-rtti/libgcc.a(_umoddi3.o)
                              esp-idf/newlib/libnewlib.a(time.c.obj) (__umoddi3)
/home/djordje/.espressif/tools/riscv32-esp-elf/esp-2022r1-11.2.0/riscv32-esp-elf/bin/../lib/gcc/riscv32-esp-elf/11.2.0/rv32imc/ilp32/no-rtti/libgcc.a(divdf3.o)
                              esp-idf/hal/libhal.a(spi_flash_hal.c.obj) (__divdf3)
/home/djordje/.espressif/tools/riscv32-esp-elf/esp-2022r1-11.2.0/riscv32-esp-elf/bin/../lib/gcc/riscv32-esp-elf/11.2.0/rv32imc/ilp32/no-rtti/libgcc.a(fixdfsi.o)
                              esp-idf/hal/libhal.a(spi_flash_hal.c.obj) (__fixdfsi)
/home/djordje/.espressif/tools/riscv32-esp-elf/esp-2022r1-11.2.0/riscv32-esp-elf/bin/../lib/gcc/riscv32-esp-elf/11.2.0/rv32imc/ilp32/no-rtti/libgcc.a(floatsidf.o)
                              esp-idf/hal/libhal.a(spi_flash_hal.c.obj) (__floatsidf)
/home/djordje/.espressif/tools/riscv32-esp-elf/esp-2022r1-11.2.0/riscv32-esp-elf/bin/../lib/gcc/riscv32-esp-elf/11.2.0/../../../../riscv32-esp-elf/lib/rv32imc/ilp32/no-rtti/libm.a(lib_a-s_ceil.o)
                              esp-idf/hal/libhal.a(spi_flash_hal.c.obj) (ceil)
/home/djordje/.espressif/tools/riscv32-esp-elf/esp-2022r1-11.2.0/riscv32-esp-elf/bin/../lib/gcc/riscv32-esp-elf/11.2.0/../../../../riscv32-esp-elf/lib/rv32imc/ilp32/no-rtti/libm.a(lib_a-s_floor.o)
                              esp-idf/hal/libhal.a(spi_flash_hal.c.obj) (floor)
/home/djordje/.espressif/tools/riscv32-esp-elf/esp-2022r1-11.2.0/riscv32-esp-elf/bin/../lib/gcc/riscv32-esp-elf/11.2.0/../../../../riscv32-esp-elf/lib/rv32imc/ilp32/no-rtti/libc.a(lib_a-bzero.o)
                              esp-idf/newlib/libnewlib.a(heap.c.obj) (bzero)
/home/djordje/.espressif/tools/riscv32-esp-elf/esp-2022r1-11.2.0/riscv32-esp-elf/bin/../lib/gcc/riscv32-esp-elf/11.2.0/../../../../riscv32-esp-elf/lib/rv32imc/ilp32/no-rtti/libc.a(lib_a-environ.o)
                              esp-idf/newlib/libnewlib.a(newlib_init.c.obj) (environ)
/home/djordje/.espressif/tools/riscv32-esp-elf/esp-2022r1-11.2.0/riscv32-esp-elf/bin/../lib/gcc/riscv32-esp-elf/11.2.0/../../../../riscv32-esp-elf/lib/rv32imc/ilp32/no-rtti/libc.a(lib_a-errno.o)
                              esp-idf/newlib/libnewlib.a(syscalls.c.obj) (__errno)
/home/djordje/.espressif/tools/riscv32-esp-elf/esp-2022r1-11.2.0/riscv32-esp-elf/bin/../lib/gcc/riscv32-esp-elf/11.2.0/../../../../riscv32-esp-elf/lib/rv32imc/ilp32/no-rtti/libc.a(lib_a-fflush.o)
                              esp-idf/main/libmain.a(hello_world_main.c.obj) (fflush)
/home/djordje/.espressif/tools/riscv32-esp-elf/esp-2022r1-11.2.0/riscv32-esp-elf/bin/../lib/gcc/riscv32-esp-elf/11.2.0/../../../../riscv32-esp-elf/lib/rv32imc/ilp32/no-rtti/libc.a(lib_a-findfp.o)
                              esp-idf/newlib/libnewlib.a(reent_init.c.obj) (_cleanup_r)
/home/djordje/.espressif/tools/riscv32-esp-elf/esp-2022r1-11.2.0/riscv32-esp-elf/bin/../lib/gcc/riscv32-esp-elf/11.2.0/../../../../riscv32-esp-elf/lib/rv32imc/ilp32/no-rtti/libc.a(lib_a-fopen.o)
                              esp-idf/esp_system/libesp_system.a(startup.c.obj) (fopen)
/home/djordje/.espressif/tools/riscv32-esp-elf/esp-2022r1-11.2.0/riscv32-esp-elf/bin/../lib/gcc/riscv32-esp-elf/11.2.0/../../../../riscv32-esp-elf/lib/rv32imc/ilp32/no-rtti/libc.a(lib_a-fprintf.o)
                              esp-idf/esp_timer/libesp_timer.a(esp_timer.c.obj) (fprintf)
/home/djordje/.espressif/tools/riscv32-esp-elf/esp-2022r1-11.2.0/riscv32-esp-elf/bin/../lib/gcc/riscv32-esp-elf/11.2.0/../../../../riscv32-esp-elf/lib/rv32imc/ilp32/no-rtti/libc.a(lib_a-fputs.o)
                              esp-idf/esp_timer/libesp_timer.a(esp_timer.c.obj) (fputs)
/home/djordje/.espressif/tools/riscv32-esp-elf/esp-2022r1-11.2.0/riscv32-esp-elf/bin/../lib/gcc/riscv32-esp-elf/11.2.0/../../../../riscv32-esp-elf/lib/rv32imc/ilp32/no-rtti/libc.a(lib_a-fseek.o)
                              /home/djordje/.espressif/tools/riscv32-esp-elf/esp-2022r1-11.2.0/riscv32-esp-elf/bin/../lib/gcc/riscv32-esp-elf/11.2.0/../../../../riscv32-esp-elf/lib/rv32imc/ilp32/no-rtti/libc.a(lib_a-fopen.o) (_fseek_r)
/home/djordje/.espressif/tools/riscv32-esp-elf/esp-2022r1-11.2.0/riscv32-esp-elf/bin/../lib/gcc/riscv32-esp-elf/11.2.0/../../../../riscv32-esp-elf/lib/rv32imc/ilp32/no-rtti/libc.a(lib_a-fseeko.o)
                              /home/djordje/.espressif/tools/riscv32-esp-elf/esp-2022r1-11.2.0/riscv32-esp-elf/bin/../lib/gcc/riscv32-esp-elf/11.2.0/../../../../riscv32-esp-elf/lib/rv32imc/ilp32/no-rtti/libc.a(lib_a-fseek.o) (_fseeko_r)
/home/djordje/.espressif/tools/riscv32-esp-elf/esp-2022r1-11.2.0/riscv32-esp-elf/bin/../lib/gcc/riscv32-esp-elf/11.2.0/../../../../riscv32-esp-elf/lib/rv32imc/ilp32/no-rtti/libc.a(lib_a-fvwrite.o)
                              /home/djordje/.espressif/tools/riscv32-esp-elf/esp-2022r1-11.2.0/riscv32-esp-elf/bin/../lib/gcc/riscv32-esp-elf/11.2.0/../../../../riscv32-esp-elf/lib/rv32imc/ilp32/no-rtti/libc.a(lib_a-fputs.o) (__sfvwrite_r)
/home/djordje/.espressif/tools/riscv32-esp-elf/esp-2022r1-11.2.0/riscv32-esp-elf/bin/../lib/gcc/riscv32-esp-elf/11.2.0/../../../../riscv32-esp-elf/lib/rv32imc/ilp32/no-rtti/libc.a(lib_a-fwalk.o)
                              /home/djordje/.espressif/tools/riscv32-esp-elf/esp-2022r1-11.2.0/riscv32-esp-elf/bin/../lib/gcc/riscv32-esp-elf/11.2.0/../../../../riscv32-esp-elf/lib/rv32imc/ilp32/no-rtti/libc.a(lib_a-findfp.o) (_fwalk)
/home/djordje/.espressif/tools/riscv32-esp-elf/esp-2022r1-11.2.0/riscv32-esp-elf/bin/../lib/gcc/riscv32-esp-elf/11.2.0/../../../../riscv32-esp-elf/lib/rv32imc/ilp32/no-rtti/libc.a(lib_a-fwrite.o)
                              esp-idf/esp_timer/libesp_timer.a(esp_timer.c.obj) (fwrite)
/home/djordje/.espressif/tools/riscv32-esp-elf/esp-2022r1-11.2.0/riscv32-esp-elf/bin/../lib/gcc/riscv32-esp-elf/11.2.0/../../../../riscv32-esp-elf/lib/rv32imc/ilp32/no-rtti/libc.a(lib_a-impure.o)
                              esp-idf/esp_system/libesp_system.a(startup.c.obj) (_global_impure_ptr)
/home/djordje/.espressif/tools/riscv32-esp-elf/esp-2022r1-11.2.0/riscv32-esp-elf/bin/../lib/gcc/riscv32-esp-elf/11.2.0/../../../../riscv32-esp-elf/lib/rv32imc/ilp32/no-rtti/libc.a(lib_a-itoa.o)
                              esp-idf/newlib/libnewlib.a(abort.c.obj) (itoa)
/home/djordje/.espressif/tools/riscv32-esp-elf/esp-2022r1-11.2.0/riscv32-esp-elf/bin/../lib/gcc/riscv32-esp-elf/11.2.0/../../../../riscv32-esp-elf/lib/rv32imc/ilp32/no-rtti/libc.a(lib_a-lcltime_r.o)
                              esp-idf/log/liblog.a(log_freertos.c.obj) (localtime_r)
/home/djordje/.espressif/tools/riscv32-esp-elf/esp-2022r1-11.2.0/riscv32-esp-elf/bin/../lib/gcc/riscv32-esp-elf/11.2.0/../../../../riscv32-esp-elf/lib/rv32imc/ilp32/no-rtti/libc.a(lib_a-makebuf.o)
                              /home/djordje/.espressif/tools/riscv32-esp-elf/esp-2022r1-11.2.0/riscv32-esp-elf/bin/../lib/gcc/riscv32-esp-elf/11.2.0/../../../../riscv32-esp-elf/lib/rv32imc/ilp32/no-rtti/libc.a(lib_a-fseeko.o) (__smakebuf_r)
/home/djordje/.espressif/tools/riscv32-esp-elf/esp-2022r1-11.2.0/riscv32-esp-elf/bin/../lib/gcc/riscv32-esp-elf/11.2.0/../../../../riscv32-esp-elf/lib/rv32imc/ilp32/no-rtti/libc.a(lib_a-memchr.o)
                              /home/djordje/.espressif/tools/riscv32-esp-elf/esp-2022r1-11.2.0/riscv32-esp-elf/bin/../lib/gcc/riscv32-esp-elf/11.2.0/../../../../riscv32-esp-elf/lib/rv32imc/ilp32/no-rtti/libc.a(lib_a-fvwrite.o) (memchr)
/home/djordje/.espressif/tools/riscv32-esp-elf/esp-2022r1-11.2.0/riscv32-esp-elf/bin/../lib/gcc/riscv32-esp-elf/11.2.0/../../../../riscv32-esp-elf/lib/rv32imc/ilp32/no-rtti/libc.a(lib_a-memcmp.o)
                              esp-idf/freertos/libfreertos.a(tasks.c.obj) (memcmp)
/home/djordje/.espressif/tools/riscv32-esp-elf/esp-2022r1-11.2.0/riscv32-esp-elf/bin/../lib/gcc/riscv32-esp-elf/11.2.0/../../../../riscv32-esp-elf/lib/rv32imc/ilp32/no-rtti/libc.a(lib_a-memcpy.o)
                              esp-idf/esp_system/libesp_system.a(cpu_start.c.obj) (memcpy)
/home/djordje/.espressif/tools/riscv32-esp-elf/esp-2022r1-11.2.0/riscv32-esp-elf/bin/../lib/gcc/riscv32-esp-elf/11.2.0/../../../../riscv32-esp-elf/lib/rv32imc/ilp32/no-rtti/libc.a(lib_a-memmove-stub.o)
                              /home/djordje/.espressif/tools/riscv32-esp-elf/esp-2022r1-11.2.0/riscv32-esp-elf/bin/../lib/gcc/riscv32-esp-elf/11.2.0/../../../../riscv32-esp-elf/lib/rv32imc/ilp32/no-rtti/libc.a(lib_a-fvwrite.o) (memmove)
/home/djordje/.espressif/tools/riscv32-esp-elf/esp-2022r1-11.2.0/riscv32-esp-elf/bin/../lib/gcc/riscv32-esp-elf/11.2.0/../../../../riscv32-esp-elf/lib/rv32imc/ilp32/no-rtti/libc.a(lib_a-memset.o)
                              esp-idf/pthread/libpthread.a(pthread.c.obj) (memset)
/home/djordje/.espressif/tools/riscv32-esp-elf/esp-2022r1-11.2.0/riscv32-esp-elf/bin/../lib/gcc/riscv32-esp-elf/11.2.0/../../../../riscv32-esp-elf/lib/rv32imc/ilp32/no-rtti/libc.a(lib_a-month_lengths.o)
                              /home/djordje/.espressif/tools/riscv32-esp-elf/esp-2022r1-11.2.0/riscv32-esp-elf/bin/../lib/gcc/riscv32-esp-elf/11.2.0/../../../../riscv32-esp-elf/lib/rv32imc/ilp32/no-rtti/libc.a(lib_a-lcltime_r.o) (__month_lengths)
/home/djordje/.espressif/tools/riscv32-esp-elf/esp-2022r1-11.2.0/riscv32-esp-elf/bin/../lib/gcc/riscv32-esp-elf/11.2.0/../../../../riscv32-esp-elf/lib/rv32imc/ilp32/no-rtti/libc.a(lib_a-printf.o)
                              esp-idf/heap/libheap.a(heap_caps.c.obj) (printf)
/home/djordje/.espressif/tools/riscv32-esp-elf/esp-2022r1-11.2.0/riscv32-esp-elf/bin/../lib/gcc/riscv32-esp-elf/11.2.0/../../../../riscv32-esp-elf/lib/rv32imc/ilp32/no-rtti/libc.a(lib_a-putchar.o)
                              esp-idf/mbedtls/mbedtls/library/libmbedcrypto.a(sha256.c.obj) (putchar)
/home/djordje/.espressif/tools/riscv32-esp-elf/esp-2022r1-11.2.0/riscv32-esp-elf/bin/../lib/gcc/riscv32-esp-elf/11.2.0/../../../../riscv32-esp-elf/lib/rv32imc/ilp32/no-rtti/libc.a(lib_a-puts.o)
                              esp-idf/heap/libheap.a(heap_caps.c.obj) (puts)
/home/djordje/.espressif/tools/riscv32-esp-elf/esp-2022r1-11.2.0/riscv32-esp-elf/bin/../lib/gcc/riscv32-esp-elf/11.2.0/../../../../riscv32-esp-elf/lib/rv32imc/ilp32/no-rtti/libc.a(lib_a-qsort.o)
                              esp-idf/heap/libheap.a(memory_layout_utils.c.obj) (qsort)
/home/djordje/.espressif/tools/riscv32-esp-elf/esp-2022r1-11.2.0/riscv32-esp-elf/bin/../lib/gcc/riscv32-esp-elf/11.2.0/../../../../riscv32-esp-elf/lib/rv32imc/ilp32/no-rtti/libc.a(lib_a-reent.o)
                              esp-idf/freertos/libfreertos.a(tasks.c.obj) (_reclaim_reent)
/home/djordje/.espressif/tools/riscv32-esp-elf/esp-2022r1-11.2.0/riscv32-esp-elf/bin/../lib/gcc/riscv32-esp-elf/11.2.0/../../../../riscv32-esp-elf/lib/rv32imc/ilp32/no-rtti/libc.a(lib_a-refill.o)
                              /home/djordje/.espressif/tools/riscv32-esp-elf/esp-2022r1-11.2.0/riscv32-esp-elf/bin/../lib/gcc/riscv32-esp-elf/11.2.0/../../../../riscv32-esp-elf/lib/rv32imc/ilp32/no-rtti/libc.a(lib_a-fseeko.o) (__srefill_r)
/home/djordje/.espressif/tools/riscv32-esp-elf/esp-2022r1-11.2.0/riscv32-esp-elf/bin/../lib/gcc/riscv32-esp-elf/11.2.0/../../../../riscv32-esp-elf/lib/rv32imc/ilp32/no-rtti/libc.a(lib_a-snprintf.o)
                              esp-idf/log/liblog.a(log_freertos.c.obj) (snprintf)
/home/djordje/.espressif/tools/riscv32-esp-elf/esp-2022r1-11.2.0/riscv32-esp-elf/bin/../lib/gcc/riscv32-esp-elf/11.2.0/../../../../riscv32-esp-elf/lib/rv32imc/ilp32/no-rtti/libc.a(lib_a-stdio.o)
                              /home/djordje/.espressif/tools/riscv32-esp-elf/esp-2022r1-11.2.0/riscv32-esp-elf/bin/../lib/gcc/riscv32-esp-elf/11.2.0/../../../../riscv32-esp-elf/lib/rv32imc/ilp32/no-rtti/libc.a(lib_a-findfp.o) (__sread)
/home/djordje/.espressif/tools/riscv32-esp-elf/esp-2022r1-11.2.0/riscv32-esp-elf/bin/../lib/gcc/riscv32-esp-elf/11.2.0/../../../../riscv32-esp-elf/lib/rv32imc/ilp32/no-rtti/libc.a(lib_a-strcat.o)
                              esp-idf/freertos/libfreertos.a(port.c.obj) (strcat)
/home/djordje/.espressif/tools/riscv32-esp-elf/esp-2022r1-11.2.0/riscv32-esp-elf/bin/../lib/gcc/riscv32-esp-elf/11.2.0/../../../../riscv32-esp-elf/lib/rv32imc/ilp32/no-rtti/libc.a(lib_a-strcmp.o)
                              esp-idf/log/liblog.a(log.c.obj) (strcmp)
/home/djordje/.espressif/tools/riscv32-esp-elf/esp-2022r1-11.2.0/riscv32-esp-elf/bin/../lib/gcc/riscv32-esp-elf/11.2.0/../../../../riscv32-esp-elf/lib/rv32imc/ilp32/no-rtti/libc.a(lib_a-strcpy.o)
                              esp-idf/vfs/libvfs.a(vfs.c.obj) (strcpy)
/home/djordje/.espressif/tools/riscv32-esp-elf/esp-2022r1-11.2.0/riscv32-esp-elf/bin/../lib/gcc/riscv32-esp-elf/11.2.0/../../../../riscv32-esp-elf/lib/rv32imc/ilp32/no-rtti/libc.a(lib_a-strcspn.o)
                              esp-idf/bootloader_support/libbootloader_support.a(bootloader_common.c.obj) (strcspn)
/home/djordje/.espressif/tools/riscv32-esp-elf/esp-2022r1-11.2.0/riscv32-esp-elf/bin/../lib/gcc/riscv32-esp-elf/11.2.0/../../../../riscv32-esp-elf/lib/rv32imc/ilp32/no-rtti/libc.a(lib_a-strerror_r.o)
                              esp-idf/esp_common/libesp_common.a(esp_err_to_name.c.obj) (strerror_r)
/home/djordje/.espressif/tools/riscv32-esp-elf/esp-2022r1-11.2.0/riscv32-esp-elf/bin/../lib/gcc/riscv32-esp-elf/11.2.0/../../../../riscv32-esp-elf/lib/rv32imc/ilp32/no-rtti/libc.a(lib_a-strlcat.o)
                              esp-idf/esp_system/libesp_system.a(ubsan.c.obj) (strlcat)
/home/djordje/.espressif/tools/riscv32-esp-elf/esp-2022r1-11.2.0/riscv32-esp-elf/bin/../lib/gcc/riscv32-esp-elf/11.2.0/../../../../riscv32-esp-elf/lib/rv32imc/ilp32/no-rtti/libc.a(lib_a-strlcpy.o)
                              esp-idf/esp_common/libesp_common.a(esp_err_to_name.c.obj) (strlcpy)
/home/djordje/.espressif/tools/riscv32-esp-elf/esp-2022r1-11.2.0/riscv32-esp-elf/bin/../lib/gcc/riscv32-esp-elf/11.2.0/../../../../riscv32-esp-elf/lib/rv32imc/ilp32/no-rtti/libc.a(lib_a-strlen.o)
                              esp-idf/log/liblog.a(log.c.obj) (strlen)
/home/djordje/.espressif/tools/riscv32-esp-elf/esp-2022r1-11.2.0/riscv32-esp-elf/bin/../lib/gcc/riscv32-esp-elf/11.2.0/../../../../riscv32-esp-elf/lib/rv32imc/ilp32/no-rtti/libc.a(lib_a-strncmp.o)
                              esp-idf/vfs/libvfs.a(vfs.c.obj) (strncmp)
/home/djordje/.espressif/tools/riscv32-esp-elf/esp-2022r1-11.2.0/riscv32-esp-elf/bin/../lib/gcc/riscv32-esp-elf/11.2.0/../../../../riscv32-esp-elf/lib/rv32imc/ilp32/no-rtti/libc.a(lib_a-strncpy.o)
                              esp-idf/bootloader_support/libbootloader_support.a(bootloader_common.c.obj) (strncpy)
/home/djordje/.espressif/tools/riscv32-esp-elf/esp-2022r1-11.2.0/riscv32-esp-elf/bin/../lib/gcc/riscv32-esp-elf/11.2.0/../../../../riscv32-esp-elf/lib/rv32imc/ilp32/no-rtti/libc.a(lib_a-strstr.o)
                              esp-idf/bootloader_support/libbootloader_support.a(bootloader_common.c.obj) (strstr)
/home/djordje/.espressif/tools/riscv32-esp-elf/esp-2022r1-11.2.0/riscv32-esp-elf/bin/../lib/gcc/riscv32-esp-elf/11.2.0/../../../../riscv32-esp-elf/lib/rv32imc/ilp32/no-rtti/libc.a(lib_a-svfprintf.o)
                              /home/djordje/.espressif/tools/riscv32-esp-elf/esp-2022r1-11.2.0/riscv32-esp-elf/bin/../lib/gcc/riscv32-esp-elf/11.2.0/../../../../riscv32-esp-elf/lib/rv32imc/ilp32/no-rtti/libc.a(lib_a-snprintf.o) (_svfprintf_r)
/home/djordje/.espressif/tools/riscv32-esp-elf/esp-2022r1-11.2.0/riscv32-esp-elf/bin/../lib/gcc/riscv32-esp-elf/11.2.0/../../../../riscv32-esp-elf/lib/rv32imc/ilp32/no-rtti/libc.a(lib_a-sysgettod.o)
                              esp-idf/pthread/libpthread.a(pthread_cond_var.c.obj) (gettimeofday)
/home/djordje/.espressif/tools/riscv32-esp-elf/esp-2022r1-11.2.0/riscv32-esp-elf/bin/../lib/gcc/riscv32-esp-elf/11.2.0/../../../../riscv32-esp-elf/lib/rv32imc/ilp32/no-rtti/libc.a(lib_a-tzcalc_limits.o)
                              /home/djordje/.espressif/tools/riscv32-esp-elf/esp-2022r1-11.2.0/riscv32-esp-elf/bin/../lib/gcc/riscv32-esp-elf/11.2.0/../../../../riscv32-esp-elf/lib/rv32imc/ilp32/no-rtti/libc.a(lib_a-lcltime_r.o) (__tzcalc_limits)
/home/djordje/.espressif/tools/riscv32-esp-elf/esp-2022r1-11.2.0/riscv32-esp-elf/bin/../lib/gcc/riscv32-esp-elf/11.2.0/../../../../riscv32-esp-elf/lib/rv32imc/ilp32/no-rtti/libc.a(lib_a-tzlock.o)
                              /home/djordje/.espressif/tools/riscv32-esp-elf/esp-2022r1-11.2.0/riscv32-esp-elf/bin/../lib/gcc/riscv32-esp-elf/11.2.0/../../../../riscv32-esp-elf/lib/rv32imc/ilp32/no-rtti/libc.a(lib_a-lcltime_r.o) (__tz_lock)
/home/djordje/.espressif/tools/riscv32-esp-elf/esp-2022r1-11.2.0/riscv32-esp-elf/bin/../lib/gcc/riscv32-esp-elf/11.2.0/../../../../riscv32-esp-elf/lib/rv32imc/ilp32/no-rtti/libc.a(lib_a-tzset.o)
                              /home/djordje/.espressif/tools/riscv32-esp-elf/esp-2022r1-11.2.0/riscv32-esp-elf/bin/../lib/gcc/riscv32-esp-elf/11.2.0/../../../../riscv32-esp-elf/lib/rv32imc/ilp32/no-rtti/libc.a(lib_a-lcltime_r.o) (_tzset_unlocked)
/home/djordje/.espressif/tools/riscv32-esp-elf/esp-2022r1-11.2.0/riscv32-esp-elf/bin/../lib/gcc/riscv32-esp-elf/11.2.0/../../../../riscv32-esp-elf/lib/rv32imc/ilp32/no-rtti/libc.a(lib_a-tzset_r.o)
                              /home/djordje/.espressif/tools/riscv32-esp-elf/esp-2022r1-11.2.0/riscv32-esp-elf/bin/../lib/gcc/riscv32-esp-elf/11.2.0/../../../../riscv32-esp-elf/lib/rv32imc/ilp32/no-rtti/libc.a(lib_a-tzset.o) (_tzset_unlocked_r)
/home/djordje/.espressif/tools/riscv32-esp-elf/esp-2022r1-11.2.0/riscv32-esp-elf/bin/../lib/gcc/riscv32-esp-elf/11.2.0/../../../../riscv32-esp-elf/lib/rv32imc/ilp32/no-rtti/libc.a(lib_a-tzvars.o)
                              /home/djordje/.espressif/tools/riscv32-esp-elf/esp-2022r1-11.2.0/riscv32-esp-elf/bin/../lib/gcc/riscv32-esp-elf/11.2.0/../../../../riscv32-esp-elf/lib/rv32imc/ilp32/no-rtti/libc.a(lib_a-tzset_r.o) (_timezone)
/home/djordje/.espressif/tools/riscv32-esp-elf/esp-2022r1-11.2.0/riscv32-esp-elf/bin/../lib/gcc/riscv32-esp-elf/11.2.0/../../../../riscv32-esp-elf/lib/rv32imc/ilp32/no-rtti/libc.a(lib_a-utoa.o)
                              /home/djordje/.espressif/tools/riscv32-esp-elf/esp-2022r1-11.2.0/riscv32-esp-elf/bin/../lib/gcc/riscv32-esp-elf/11.2.0/../../../../riscv32-esp-elf/lib/rv32imc/ilp32/no-rtti/libc.a(lib_a-itoa.o) (__utoa)
/home/djordje/.espressif/tools/riscv32-esp-elf/esp-2022r1-11.2.0/riscv32-esp-elf/bin/../lib/gcc/riscv32-esp-elf/11.2.0/../../../../riscv32-esp-elf/lib/rv32imc/ilp32/no-rtti/libc.a(lib_a-vfprintf.o)
                              /home/djordje/.espressif/tools/riscv32-esp-elf/esp-2022r1-11.2.0/riscv32-esp-elf/bin/../lib/gcc/riscv32-esp-elf/11.2.0/../../../../riscv32-esp-elf/lib/rv32imc/ilp32/no-rtti/libc.a(lib_a-fprintf.o) (_vfprintf_r)
/home/djordje/.espressif/tools/riscv32-esp-elf/esp-2022r1-11.2.0/riscv32-esp-elf/bin/../lib/gcc/riscv32-esp-elf/11.2.0/../../../../riscv32-esp-elf/lib/rv32imc/ilp32/no-rtti/libc.a(lib_a-vprintf.o)
                              esp-idf/log/liblog.a(log.c.obj) (vprintf)
/home/djordje/.espressif/tools/riscv32-esp-elf/esp-2022r1-11.2.0/riscv32-esp-elf/bin/../lib/gcc/riscv32-esp-elf/11.2.0/../../../../riscv32-esp-elf/lib/rv32imc/ilp32/no-rtti/libc.a(lib_a-wsetup.o)
                              /home/djordje/.espressif/tools/riscv32-esp-elf/esp-2022r1-11.2.0/riscv32-esp-elf/bin/../lib/gcc/riscv32-esp-elf/11.2.0/../../../../riscv32-esp-elf/lib/rv32imc/ilp32/no-rtti/libc.a(lib_a-fvwrite.o) (__swsetup_r)
/home/djordje/.espressif/tools/riscv32-esp-elf/esp-2022r1-11.2.0/riscv32-esp-elf/bin/../lib/gcc/riscv32-esp-elf/11.2.0/../../../../riscv32-esp-elf/lib/rv32imc/ilp32/no-rtti/libc.a(lib_a-dtoa.o)
                              /home/djordje/.espressif/tools/riscv32-esp-elf/esp-2022r1-11.2.0/riscv32-esp-elf/bin/../lib/gcc/riscv32-esp-elf/11.2.0/../../../../riscv32-esp-elf/lib/rv32imc/ilp32/no-rtti/libc.a(lib_a-svfprintf.o) (_dtoa_r)
/home/djordje/.espressif/tools/riscv32-esp-elf/esp-2022r1-11.2.0/riscv32-esp-elf/bin/../lib/gcc/riscv32-esp-elf/11.2.0/../../../../riscv32-esp-elf/lib/rv32imc/ilp32/no-rtti/libc.a(lib_a-fclose.o)
                              /home/djordje/.espressif/tools/riscv32-esp-elf/esp-2022r1-11.2.0/riscv32-esp-elf/bin/../lib/gcc/riscv32-esp-elf/11.2.0/../../../../riscv32-esp-elf/lib/rv32imc/ilp32/no-rtti/libc.a(lib_a-findfp.o) (_fclose_r)
/home/djordje/.espressif/tools/riscv32-esp-elf/esp-2022r1-11.2.0/riscv32-esp-elf/bin/../lib/gcc/riscv32-esp-elf/11.2.0/../../../../riscv32-esp-elf/lib/rv32imc/ilp32/no-rtti/libc.a(lib_a-flags.o)
                              /home/djordje/.espressif/tools/riscv32-esp-elf/esp-2022r1-11.2.0/riscv32-esp-elf/bin/../lib/gcc/riscv32-esp-elf/11.2.0/../../../../riscv32-esp-elf/lib/rv32imc/ilp32/no-rtti/libc.a(lib_a-fopen.o) (__sflags)
/home/djordje/.espressif/tools/riscv32-esp-elf/esp-2022r1-11.2.0/riscv32-esp-elf/bin/../lib/gcc/riscv32-esp-elf/11.2.0/../../../../riscv32-esp-elf/lib/rv32imc/ilp32/no-rtti/libc.a(lib_a-getenv_r.o)
                              /home/djordje/.espressif/tools/riscv32-esp-elf/esp-2022r1-11.2.0/riscv32-esp-elf/bin/../lib/gcc/riscv32-esp-elf/11.2.0/../../../../riscv32-esp-elf/lib/rv32imc/ilp32/no-rtti/libc.a(lib_a-tzset_r.o) (_getenv_r)
/home/djordje/.espressif/tools/riscv32-esp-elf/esp-2022r1-11.2.0/riscv32-esp-elf/bin/../lib/gcc/riscv32-esp-elf/11.2.0/../../../../riscv32-esp-elf/lib/rv32imc/ilp32/no-rtti/libc.a(lib_a-gettzinfo.o)
                              /home/djordje/.espressif/tools/riscv32-esp-elf/esp-2022r1-11.2.0/riscv32-esp-elf/bin/../lib/gcc/riscv32-esp-elf/11.2.0/../../../../riscv32-esp-elf/lib/rv32imc/ilp32/no-rtti/libc.a(lib_a-lcltime_r.o) (__gettzinfo)
/home/djordje/.espressif/tools/riscv32-esp-elf/esp-2022r1-11.2.0/riscv32-esp-elf/bin/../lib/gcc/riscv32-esp-elf/11.2.0/../../../../riscv32-esp-elf/lib/rv32imc/ilp32/no-rtti/libc.a(lib_a-gmtime_r.o)
                              /home/djordje/.espressif/tools/riscv32-esp-elf/esp-2022r1-11.2.0/riscv32-esp-elf/bin/../lib/gcc/riscv32-esp-elf/11.2.0/../../../../riscv32-esp-elf/lib/rv32imc/ilp32/no-rtti/libc.a(lib_a-lcltime_r.o) (gmtime_r)
/home/djordje/.espressif/tools/riscv32-esp-elf/esp-2022r1-11.2.0/riscv32-esp-elf/bin/../lib/gcc/riscv32-esp-elf/11.2.0/../../../../riscv32-esp-elf/lib/rv32imc/ilp32/no-rtti/libc.a(lib_a-localeconv.o)
                              /home/djordje/.espressif/tools/riscv32-esp-elf/esp-2022r1-11.2.0/riscv32-esp-elf/bin/../lib/gcc/riscv32-esp-elf/11.2.0/../../../../riscv32-esp-elf/lib/rv32imc/ilp32/no-rtti/libc.a(lib_a-svfprintf.o) (_localeconv_r)
/home/djordje/.espressif/tools/riscv32-esp-elf/esp-2022r1-11.2.0/riscv32-esp-elf/bin/../lib/gcc/riscv32-esp-elf/11.2.0/../../../../riscv32-esp-elf/lib/rv32imc/ilp32/no-rtti/libc.a(lib_a-mprec.o)
                              /home/djordje/.espressif/tools/riscv32-esp-elf/esp-2022r1-11.2.0/riscv32-esp-elf/bin/../lib/gcc/riscv32-esp-elf/11.2.0/../../../../riscv32-esp-elf/lib/rv32imc/ilp32/no-rtti/libc.a(lib_a-dtoa.o) (_Balloc)
/home/djordje/.espressif/tools/riscv32-esp-elf/esp-2022r1-11.2.0/riscv32-esp-elf/bin/../lib/gcc/riscv32-esp-elf/11.2.0/../../../../riscv32-esp-elf/lib/rv32imc/ilp32/no-rtti/libc.a(lib_a-putc.o)
                              /home/djordje/.espressif/tools/riscv32-esp-elf/esp-2022r1-11.2.0/riscv32-esp-elf/bin/../lib/gcc/riscv32-esp-elf/11.2.0/../../../../riscv32-esp-elf/lib/rv32imc/ilp32/no-rtti/libc.a(lib_a-putchar.o) (_putc_r)
/home/djordje/.espressif/tools/riscv32-esp-elf/esp-2022r1-11.2.0/riscv32-esp-elf/bin/../lib/gcc/riscv32-esp-elf/11.2.0/../../../../riscv32-esp-elf/lib/rv32imc/ilp32/no-rtti/libc.a(lib_a-s_frexp.o)
                              /home/djordje/.espressif/tools/riscv32-esp-elf/esp-2022r1-11.2.0/riscv32-esp-elf/bin/../lib/gcc/riscv32-esp-elf/11.2.0/../../../../riscv32-esp-elf/lib/rv32imc/ilp32/no-rtti/libc.a(lib_a-svfprintf.o) (frexp)
/home/djordje/.espressif/tools/riscv32-esp-elf/esp-2022r1-11.2.0/riscv32-esp-elf/bin/../lib/gcc/riscv32-esp-elf/11.2.0/../../../../riscv32-esp-elf/lib/rv32imc/ilp32/no-rtti/libc.a(lib_a-siscanf.o)
                              /home/djordje/.espressif/tools/riscv32-esp-elf/esp-2022r1-11.2.0/riscv32-esp-elf/bin/../lib/gcc/riscv32-esp-elf/11.2.0/../../../../riscv32-esp-elf/lib/rv32imc/ilp32/no-rtti/libc.a(lib_a-tzset_r.o) (siscanf)
/home/djordje/.espressif/tools/riscv32-esp-elf/esp-2022r1-11.2.0/riscv32-esp-elf/bin/../lib/gcc/riscv32-esp-elf/11.2.0/../../../../riscv32-esp-elf/lib/rv32imc/ilp32/no-rtti/libc.a(lib_a-strerror.o)
                              /home/djordje/.espressif/tools/riscv32-esp-elf/esp-2022r1-11.2.0/riscv32-esp-elf/bin/../lib/gcc/riscv32-esp-elf/11.2.0/../../../../riscv32-esp-elf/lib/rv32imc/ilp32/no-rtti/libc.a(lib_a-strerror_r.o) (_strerror_r)
/home/djordje/.espressif/tools/riscv32-esp-elf/esp-2022r1-11.2.0/riscv32-esp-elf/bin/../lib/gcc/riscv32-esp-elf/11.2.0/../../../../riscv32-esp-elf/lib/rv32imc/ilp32/no-rtti/libc.a(lib_a-strtoul.o)
                              /home/djordje/.espressif/tools/riscv32-esp-elf/esp-2022r1-11.2.0/riscv32-esp-elf/bin/../lib/gcc/riscv32-esp-elf/11.2.0/../../../../riscv32-esp-elf/lib/rv32imc/ilp32/no-rtti/libc.a(lib_a-tzset_r.o) (strtoul)
/home/djordje/.espressif/tools/riscv32-esp-elf/esp-2022r1-11.2.0/riscv32-esp-elf/bin/../lib/gcc/riscv32-esp-elf/11.2.0/../../../../riscv32-esp-elf/lib/rv32imc/ilp32/no-rtti/libc.a(lib_a-svfiprintf.o)
                              /home/djordje/.espressif/tools/riscv32-esp-elf/esp-2022r1-11.2.0/riscv32-esp-elf/bin/../lib/gcc/riscv32-esp-elf/11.2.0/../../../../riscv32-esp-elf/lib/rv32imc/ilp32/no-rtti/libc.a(lib_a-svfprintf.o) (__ssprint_r)
/home/djordje/.espressif/tools/riscv32-esp-elf/esp-2022r1-11.2.0/riscv32-esp-elf/bin/../lib/gcc/riscv32-esp-elf/11.2.0/../../../../riscv32-esp-elf/lib/rv32imc/ilp32/no-rtti/libc.a(lib_a-svfiscanf.o)
                              /home/djordje/.espressif/tools/riscv32-esp-elf/esp-2022r1-11.2.0/riscv32-esp-elf/bin/../lib/gcc/riscv32-esp-elf/11.2.0/../../../../riscv32-esp-elf/lib/rv32imc/ilp32/no-rtti/libc.a(lib_a-siscanf.o) (__ssvfiscanf_r)
/home/djordje/.espressif/tools/riscv32-esp-elf/esp-2022r1-11.2.0/riscv32-esp-elf/bin/../lib/gcc/riscv32-esp-elf/11.2.0/../../../../riscv32-esp-elf/lib/rv32imc/ilp32/no-rtti/libc.a(lib_a-u_strerr.o)
                              /home/djordje/.espressif/tools/riscv32-esp-elf/esp-2022r1-11.2.0/riscv32-esp-elf/bin/../lib/gcc/riscv32-esp-elf/11.2.0/../../../../riscv32-esp-elf/lib/rv32imc/ilp32/no-rtti/libc.a(lib_a-strerror.o) (_user_strerror)
/home/djordje/.espressif/tools/riscv32-esp-elf/esp-2022r1-11.2.0/riscv32-esp-elf/bin/../lib/gcc/riscv32-esp-elf/11.2.0/../../../../riscv32-esp-elf/lib/rv32imc/ilp32/no-rtti/libc.a(lib_a-ungetc.o)
                              /home/djordje/.espressif/tools/riscv32-esp-elf/esp-2022r1-11.2.0/riscv32-esp-elf/bin/../lib/gcc/riscv32-esp-elf/11.2.0/../../../../riscv32-esp-elf/lib/rv32imc/ilp32/no-rtti/libc.a(lib_a-svfiscanf.o) (__submore)
/home/djordje/.espressif/tools/riscv32-esp-elf/esp-2022r1-11.2.0/riscv32-esp-elf/bin/../lib/gcc/riscv32-esp-elf/11.2.0/../../../../riscv32-esp-elf/lib/rv32imc/ilp32/no-rtti/libc.a(lib_a-vfiprintf.o)
                              /home/djordje/.espressif/tools/riscv32-esp-elf/esp-2022r1-11.2.0/riscv32-esp-elf/bin/../lib/gcc/riscv32-esp-elf/11.2.0/../../../../riscv32-esp-elf/lib/rv32imc/ilp32/no-rtti/libc.a(lib_a-vfprintf.o) (__sprint_r)
/home/djordje/.espressif/tools/riscv32-esp-elf/esp-2022r1-11.2.0/riscv32-esp-elf/bin/../lib/gcc/riscv32-esp-elf/11.2.0/../../../../riscv32-esp-elf/lib/rv32imc/ilp32/no-rtti/libc.a(lib_a-wbuf.o)
                              /home/djordje/.espressif/tools/riscv32-esp-elf/esp-2022r1-11.2.0/riscv32-esp-elf/bin/../lib/gcc/riscv32-esp-elf/11.2.0/../../../../riscv32-esp-elf/lib/rv32imc/ilp32/no-rtti/libc.a(lib_a-putc.o) (__swbuf_r)
/home/djordje/.espressif/tools/riscv32-esp-elf/esp-2022r1-11.2.0/riscv32-esp-elf/bin/../lib/gcc/riscv32-esp-elf/11.2.0/../../../../riscv32-esp-elf/lib/rv32imc/ilp32/no-rtti/libc.a(lib_a-ctype_.o)
                              /home/djordje/.espressif/tools/riscv32-esp-elf/esp-2022r1-11.2.0/riscv32-esp-elf/bin/../lib/gcc/riscv32-esp-elf/11.2.0/../../../../riscv32-esp-elf/lib/rv32imc/ilp32/no-rtti/libc.a(lib_a-strtoul.o) (_ctype_)
/home/djordje/.espressif/tools/riscv32-esp-elf/esp-2022r1-11.2.0/riscv32-esp-elf/bin/../lib/gcc/riscv32-esp-elf/11.2.0/../../../../riscv32-esp-elf/lib/rv32imc/ilp32/no-rtti/libc.a(lib_a-envlock.o)
                              /home/djordje/.espressif/tools/riscv32-esp-elf/esp-2022r1-11.2.0/riscv32-esp-elf/bin/../lib/gcc/riscv32-esp-elf/11.2.0/../../../../riscv32-esp-elf/lib/rv32imc/ilp32/no-rtti/libc.a(lib_a-getenv_r.o) (__env_lock)
/home/djordje/.espressif/tools/riscv32-esp-elf/esp-2022r1-11.2.0/riscv32-esp-elf/bin/../lib/gcc/riscv32-esp-elf/11.2.0/../../../../riscv32-esp-elf/lib/rv32imc/ilp32/no-rtti/libc.a(lib_a-iswspace.o)
                              /home/djordje/.espressif/tools/riscv32-esp-elf/esp-2022r1-11.2.0/riscv32-esp-elf/bin/../lib/gcc/riscv32-esp-elf/11.2.0/../../../../riscv32-esp-elf/lib/rv32imc/ilp32/no-rtti/libc.a(lib_a-svfiscanf.o) (iswspace)
/home/djordje/.espressif/tools/riscv32-esp-elf/esp-2022r1-11.2.0/riscv32-esp-elf/bin/../lib/gcc/riscv32-esp-elf/11.2.0/../../../../riscv32-esp-elf/lib/rv32imc/ilp32/no-rtti/libc.a(lib_a-iswspace_l.o)
                              /home/djordje/.espressif/tools/riscv32-esp-elf/esp-2022r1-11.2.0/riscv32-esp-elf/bin/../lib/gcc/riscv32-esp-elf/11.2.0/../../../../riscv32-esp-elf/lib/rv32imc/ilp32/no-rtti/libc.a(lib_a-iswspace.o) (iswspace_l)
/home/djordje/.espressif/tools/riscv32-esp-elf/esp-2022r1-11.2.0/riscv32-esp-elf/bin/../lib/gcc/riscv32-esp-elf/11.2.0/../../../../riscv32-esp-elf/lib/rv32imc/ilp32/no-rtti/libc.a(lib_a-locale.o)
                              /home/djordje/.espressif/tools/riscv32-esp-elf/esp-2022r1-11.2.0/riscv32-esp-elf/bin/../lib/gcc/riscv32-esp-elf/11.2.0/../../../../riscv32-esp-elf/lib/rv32imc/ilp32/no-rtti/libc.a(lib_a-svfiscanf.o) (__locale_mb_cur_max)
/home/djordje/.espressif/tools/riscv32-esp-elf/esp-2022r1-11.2.0/riscv32-esp-elf/bin/../lib/gcc/riscv32-esp-elf/11.2.0/../../../../riscv32-esp-elf/lib/rv32imc/ilp32/no-rtti/libc.a(lib_a-mbrtowc.o)
                              /home/djordje/.espressif/tools/riscv32-esp-elf/esp-2022r1-11.2.0/riscv32-esp-elf/bin/../lib/gcc/riscv32-esp-elf/11.2.0/../../../../riscv32-esp-elf/lib/rv32imc/ilp32/no-rtti/libc.a(lib_a-svfiscanf.o) (_mbrtowc_r)
/home/djordje/.espressif/tools/riscv32-esp-elf/esp-2022r1-11.2.0/riscv32-esp-elf/bin/../lib/gcc/riscv32-esp-elf/11.2.0/../../../../riscv32-esp-elf/lib/rv32imc/ilp32/no-rtti/libc.a(lib_a-mbtowc_r.o)
                              /home/djordje/.espressif/tools/riscv32-esp-elf/esp-2022r1-11.2.0/riscv32-esp-elf/bin/../lib/gcc/riscv32-esp-elf/11.2.0/../../../../riscv32-esp-elf/lib/rv32imc/ilp32/no-rtti/libc.a(lib_a-locale.o) (__ascii_mbtowc)
/home/djordje/.espressif/tools/riscv32-esp-elf/esp-2022r1-11.2.0/riscv32-esp-elf/bin/../lib/gcc/riscv32-esp-elf/11.2.0/../../../../riscv32-esp-elf/lib/rv32imc/ilp32/no-rtti/libc.a(lib_a-sccl.o)
                              /home/djordje/.espressif/tools/riscv32-esp-elf/esp-2022r1-11.2.0/riscv32-esp-elf/bin/../lib/gcc/riscv32-esp-elf/11.2.0/../../../../riscv32-esp-elf/lib/rv32imc/ilp32/no-rtti/libc.a(lib_a-svfiscanf.o) (__sccl)
/home/djordje/.espressif/tools/riscv32-esp-elf/esp-2022r1-11.2.0/riscv32-esp-elf/bin/../lib/gcc/riscv32-esp-elf/11.2.0/../../../../riscv32-esp-elf/lib/rv32imc/ilp32/no-rtti/libc.a(lib_a-strtol.o)
                              /home/djordje/.espressif/tools/riscv32-esp-elf/esp-2022r1-11.2.0/riscv32-esp-elf/bin/../lib/gcc/riscv32-esp-elf/11.2.0/../../../../riscv32-esp-elf/lib/rv32imc/ilp32/no-rtti/libc.a(lib_a-svfiscanf.o) (_strtol_r)
/home/djordje/.espressif/tools/riscv32-esp-elf/esp-2022r1-11.2.0/riscv32-esp-elf/bin/../lib/gcc/riscv32-esp-elf/11.2.0/../../../../riscv32-esp-elf/lib/rv32imc/ilp32/no-rtti/libc.a(lib_a-strtoll.o)
                              /home/djordje/.espressif/tools/riscv32-esp-elf/esp-2022r1-11.2.0/riscv32-esp-elf/bin/../lib/gcc/riscv32-esp-elf/11.2.0/../../../../riscv32-esp-elf/lib/rv32imc/ilp32/no-rtti/libc.a(lib_a-svfiscanf.o) (_strtoll_r)
/home/djordje/.espressif/tools/riscv32-esp-elf/esp-2022r1-11.2.0/riscv32-esp-elf/bin/../lib/gcc/riscv32-esp-elf/11.2.0/../../../../riscv32-esp-elf/lib/rv32imc/ilp32/no-rtti/libc.a(lib_a-strtoull.o)
                              /home/djordje/.espressif/tools/riscv32-esp-elf/esp-2022r1-11.2.0/riscv32-esp-elf/bin/../lib/gcc/riscv32-esp-elf/11.2.0/../../../../riscv32-esp-elf/lib/rv32imc/ilp32/no-rtti/libc.a(lib_a-svfiscanf.o) (_strtoull_r)
/home/djordje/.espressif/tools/riscv32-esp-elf/esp-2022r1-11.2.0/riscv32-esp-elf/bin/../lib/gcc/riscv32-esp-elf/11.2.0/../../../../riscv32-esp-elf/lib/rv32imc/ilp32/no-rtti/libc.a(lib_a-wctomb_r.o)
                              /home/djordje/.espressif/tools/riscv32-esp-elf/esp-2022r1-11.2.0/riscv32-esp-elf/bin/../lib/gcc/riscv32-esp-elf/11.2.0/../../../../riscv32-esp-elf/lib/rv32imc/ilp32/no-rtti/libc.a(lib_a-locale.o) (__ascii_wctomb)
/home/djordje/.espressif/tools/riscv32-esp-elf/esp-2022r1-11.2.0/riscv32-esp-elf/bin/../lib/gcc/riscv32-esp-elf/11.2.0/rv32imc/ilp32/no-rtti/libgcc.a(adddf3.o)
                              /home/djordje/.espressif/tools/riscv32-esp-elf/esp-2022r1-11.2.0/riscv32-esp-elf/bin/../lib/gcc/riscv32-esp-elf/11.2.0/../../../../riscv32-esp-elf/lib/rv32imc/ilp32/no-rtti/libm.a(lib_a-s_ceil.o) (__adddf3)
/home/djordje/.espressif/tools/riscv32-esp-elf/esp-2022r1-11.2.0/riscv32-esp-elf/bin/../lib/gcc/riscv32-esp-elf/11.2.0/rv32imc/ilp32/no-rtti/libgcc.a(eqdf2.o)
                              /home/djordje/.espressif/tools/riscv32-esp-elf/esp-2022r1-11.2.0/riscv32-esp-elf/bin/../lib/gcc/riscv32-esp-elf/11.2.0/../../../../riscv32-esp-elf/lib/rv32imc/ilp32/no-rtti/libc.a(lib_a-svfprintf.o) (__eqdf2)
/home/djordje/.espressif/tools/riscv32-esp-elf/esp-2022r1-11.2.0/riscv32-esp-elf/bin/../lib/gcc/riscv32-esp-elf/11.2.0/rv32imc/ilp32/no-rtti/libgcc.a(gedf2.o)
                              /home/djordje/.espressif/tools/riscv32-esp-elf/esp-2022r1-11.2.0/riscv32-esp-elf/bin/../lib/gcc/riscv32-esp-elf/11.2.0/../../../../riscv32-esp-elf/lib/rv32imc/ilp32/no-rtti/libc.a(lib_a-dtoa.o) (__gedf2)
/home/djordje/.espressif/tools/riscv32-esp-elf/esp-2022r1-11.2.0/riscv32-esp-elf/bin/../lib/gcc/riscv32-esp-elf/11.2.0/rv32imc/ilp32/no-rtti/libgcc.a(ledf2.o)
                              /home/djordje/.espressif/tools/riscv32-esp-elf/esp-2022r1-11.2.0/riscv32-esp-elf/bin/../lib/gcc/riscv32-esp-elf/11.2.0/../../../../riscv32-esp-elf/lib/rv32imc/ilp32/no-rtti/libc.a(lib_a-svfprintf.o) (__ledf2)
/home/djordje/.espressif/tools/riscv32-esp-elf/esp-2022r1-11.2.0/riscv32-esp-elf/bin/../lib/gcc/riscv32-esp-elf/11.2.0/rv32imc/ilp32/no-rtti/libgcc.a(muldf3.o)
                              /home/djordje/.espressif/tools/riscv32-esp-elf/esp-2022r1-11.2.0/riscv32-esp-elf/bin/../lib/gcc/riscv32-esp-elf/11.2.0/../../../../riscv32-esp-elf/lib/rv32imc/ilp32/no-rtti/libc.a(lib_a-svfprintf.o) (__muldf3)
/home/djordje/.espressif/tools/riscv32-esp-elf/esp-2022r1-11.2.0/riscv32-esp-elf/bin/../lib/gcc/riscv32-esp-elf/11.2.0/rv32imc/ilp32/no-rtti/libgcc.a(subdf3.o)
                              /home/djordje/.espressif/tools/riscv32-esp-elf/esp-2022r1-11.2.0/riscv32-esp-elf/bin/../lib/gcc/riscv32-esp-elf/11.2.0/../../../../riscv32-esp-elf/lib/rv32imc/ilp32/no-rtti/libc.a(lib_a-svfprintf.o) (__subdf3)
/home/djordje/.espressif/tools/riscv32-esp-elf/esp-2022r1-11.2.0/riscv32-esp-elf/bin/../lib/gcc/riscv32-esp-elf/11.2.0/rv32imc/ilp32/no-rtti/libgcc.a(unorddf2.o)
                              /home/djordje/.espressif/tools/riscv32-esp-elf/esp-2022r1-11.2.0/riscv32-esp-elf/bin/../lib/gcc/riscv32-esp-elf/11.2.0/../../../../riscv32-esp-elf/lib/rv32imc/ilp32/no-rtti/libc.a(lib_a-svfprintf.o) (__unorddf2)
/home/djordje/.espressif/tools/riscv32-esp-elf/esp-2022r1-11.2.0/riscv32-esp-elf/bin/../lib/gcc/riscv32-esp-elf/11.2.0/rv32imc/ilp32/no-rtti/libgcc.a(floatunsidf.o)
                              /home/djordje/.espressif/tools/riscv32-esp-elf/esp-2022r1-11.2.0/riscv32-esp-elf/bin/../lib/gcc/riscv32-esp-elf/11.2.0/../../../../riscv32-esp-elf/lib/rv32imc/ilp32/no-rtti/libc.a(lib_a-dtoa.o) (__floatunsidf)
/home/djordje/.espressif/tools/riscv32-esp-elf/esp-2022r1-11.2.0/riscv32-esp-elf/bin/../lib/gcc/riscv32-esp-elf/11.2.0/rv32imc/ilp32/no-rtti/libgcc.a(trunctfdf2.o)
                              /home/djordje/.espressif/tools/riscv32-esp-elf/esp-2022r1-11.2.0/riscv32-esp-elf/bin/../lib/gcc/riscv32-esp-elf/11.2.0/../../../../riscv32-esp-elf/lib/rv32imc/ilp32/no-rtti/libc.a(lib_a-svfprintf.o) (__trunctfdf2)

Discarded input sections

 .text          0x0000000000000000        0x0 CMakeFiles/hello_world.elf.dir/project_elf_src_esp32c6.c.obj
 .data          0x0000000000000000        0x0 CMakeFiles/hello_world.elf.dir/project_elf_src_esp32c6.c.obj
 .bss           0x0000000000000000        0x0 CMakeFiles/hello_world.elf.dir/project_elf_src_esp32c6.c.obj
 .comment       0x0000000000000000       0x27 CMakeFiles/hello_world.elf.dir/project_elf_src_esp32c6.c.obj
 .riscv.attributes
                0x0000000000000000       0x26 CMakeFiles/hello_world.elf.dir/project_elf_src_esp32c6.c.obj
 .text          0x0000000000000000        0x0 esp-idf/esp_app_format/libesp_app_format.a(esp_app_desc.c.obj)
 .data          0x0000000000000000        0x0 esp-idf/esp_app_format/libesp_app_format.a(esp_app_desc.c.obj)
 .bss           0x0000000000000000        0x0 esp-idf/esp_app_format/libesp_app_format.a(esp_app_desc.c.obj)
 .text          0x0000000000000000        0x0 esp-idf/pthread/libpthread.a(pthread.c.obj)
 .data          0x0000000000000000        0x0 esp-idf/pthread/libpthread.a(pthread.c.obj)
 .bss           0x0000000000000000        0x0 esp-idf/pthread/libpthread.a(pthread.c.obj)
 .text.pthread_list_find_item
                0x0000000000000000       0x34 esp-idf/pthread/libpthread.a(pthread.c.obj)
 .text.pthread_get_handle_by_desc
                0x0000000000000000        0xc esp-idf/pthread/libpthread.a(pthread.c.obj)
 .text.pthread_get_desc_by_handle
                0x0000000000000000        0xa esp-idf/pthread/libpthread.a(pthread.c.obj)
Memory Configuration

Name             Origin             Length             Attributes
iram0_0_seg      0x0000000040800000 0x0000000000080000 xr
irom_seg         0x0000000042000020 0x0000000000ffffe0 xr
dram0_0_seg      0x0000000040800000 0x0000000000080000 rw
drom_seg         0x0000000042000020 0x0000000000ffffe0 r
lp_ram_seg       0x0000000050000000 0x0000000000004000 rw
*default*        0x0000000000000000 0xffffffffffffffff

Linker script and memory map

                0x0000000000000000                IDF_TARGET_ESP32C6 = 0x0
LOAD CMakeFiles/hello_world.elf.dir/project_elf_src_esp32c6.c.obj
LOAD esp-idf/riscv/libriscv.a
LOAD esp-idf/esp_ringbuf/libesp_ringbuf.a
LOAD esp-idf/efuse/libefuse.a
LOAD esp-idf/driver/libdriver.a
LOAD esp-idf/esp_pm/libesp_pm.a
LOAD esp-idf/mbedtls/libmbedtls.a
LOAD esp-idf/esp_app_format/libesp_app_format.a
LOAD esp-idf/bootloader_support/libbootloader_support.a
LOAD esp-idf/esp_partition/libesp_partition.a
LOAD esp-idf/app_update/libapp_update.a
LOAD esp-idf/spi_flash/libspi_flash.a
LOAD esp-idf/pthread/libpthread.a
LOAD esp-idf/esp_system/libesp_system.a
LOAD esp-idf/esp_rom/libesp_rom.a
LOAD esp-idf/hal/libhal.a
LOAD esp-idf/log/liblog.a
LOAD esp-idf/heap/libheap.a
LOAD esp-idf/soc/libsoc.a
LOAD esp-idf/esp_hw_support/libesp_hw_support.a
LOAD esp-idf/freertos/libfreertos.a
LOAD esp-idf/newlib/libnewlib.a
LOAD esp-idf/cxx/libcxx.a
LOAD esp-idf/esp_common/libesp_common.a
LOAD esp-idf/esp_timer/libesp_timer.a
LOAD esp-idf/app_trace/libapp_trace.a
LOAD esp-idf/esp_event/libesp_event.a
LOAD esp-idf/vfs/libvfs.a
LOAD esp-idf/lwip/liblwip.a
LOAD esp-idf/esp_netif/libesp_netif.a
LOAD esp-idf/nvs_flash/libnvs_flash.a
LOAD esp-idf/wpa_supplicant/libwpa_supplicant.a
LOAD esp-idf/unity/libunity.a
LOAD esp-idf/cmock/libcmock.a
LOAD esp-idf/console/libconsole.a
LOAD esp-idf/http_parser/libhttp_parser.a
LOAD esp-idf/esp-tls/libesp-tls.a
LOAD esp-idf/esp_adc/libesp_adc.a
LOAD esp-idf/esp_eth/libesp_eth.a
LOAD esp-idf/esp_gdbstub/libesp_gdbstub.a
LOAD esp-idf/esp_hid/libesp_hid.a
LOAD esp-idf/tcp_transport/libtcp_transport.a
LOAD esp-idf/esp_http_client/libesp_http_client.a
LOAD esp-idf/esp_http_server/libesp_http_server.a
LOAD esp-idf/esp_https_ota/libesp_https_ota.a
LOAD esp-idf/esp_lcd/libesp_lcd.a
LOAD esp-idf/protobuf-c/libprotobuf-c.a
LOAD esp-idf/protocomm/libprotocomm.a
LOAD esp-idf/esp_local_ctrl/libesp_local_ctrl.a
LOAD esp-idf/espcoredump/libespcoredump.a
LOAD esp-idf/wear_levelling/libwear_levelling.a
LOAD esp-idf/sdmmc/libsdmmc.a
LOAD esp-idf/fatfs/libfatfs.a
LOAD esp-idf/json/libjson.a
LOAD esp-idf/mqtt/libmqtt.a
LOAD esp-idf/spiffs/libspiffs.a
LOAD esp-idf/wifi_provisioning/libwifi_provisioning.a
LOAD esp-idf/main/libmain.a
LOAD esp-idf/app_trace/libapp_trace.a
LOAD esp-idf/app_trace/libapp_trace.a
LOAD /home/djordje/.espressif/tools/riscv32-esp-elf/esp-2022r1-11.2.0/riscv32-esp-elf/bin/../lib/gcc/riscv32-esp-elf/11.2.0/rv32imc/ilp32/no-rtti/libgcov.a
LOAD esp-idf/app_trace/libapp_trace.a
LOAD /home/djordje/.espressif/tools/riscv32-esp-elf/esp-2022r1-11.2.0/riscv32-esp-elf/bin/../lib/gcc/riscv32-esp-elf/11.2.0/rv32imc/ilp32/no-rtti/libgcov.a
LOAD esp-idf/cmock/libcmock.a
LOAD esp-idf/unity/libunity.a
LOAD esp-idf/esp_hid/libesp_hid.a
LOAD esp-idf/esp_lcd/libesp_lcd.a
LOAD esp-idf/esp_local_ctrl/libesp_local_ctrl.a
LOAD esp-idf/espcoredump/libespcoredump.a
LOAD esp-idf/fatfs/libfatfs.a
LOAD esp-idf/wear_levelling/libwear_levelling.a
LOAD esp-idf/sdmmc/libsdmmc.a
LOAD esp-idf/mqtt/libmqtt.a
LOAD esp-idf/spiffs/libspiffs.a
LOAD esp-idf/wifi_provisioning/libwifi_provisioning.a
LOAD esp-idf/protocomm/libprotocomm.a
LOAD esp-idf/console/libconsole.a
LOAD esp-idf/protobuf-c/libprotobuf-c.a
LOAD esp-idf/json/libjson.a
LOAD esp-idf/riscv/libriscv.a
LOAD esp-idf/esp_ringbuf/libesp_ringbuf.a
LOAD esp-idf/efuse/libefuse.a
LOAD esp-idf/driver/libdriver.a
LOAD esp-idf/esp_pm/libesp_pm.a
LOAD esp-idf/mbedtls/libmbedtls.a
LOAD esp-idf/esp_app_format/libesp_app_format.a
LOAD esp-idf/bootloader_support/libbootloader_support.a
LOAD esp-idf/esp_partition/libesp_partition.a
LOAD esp-idf/app_update/libapp_update.a
LOAD esp-idf/spi_flash/libspi_flash.a
LOAD esp-idf/pthread/libpthread.a
LOAD esp-idf/esp_system/libesp_system.a
LOAD esp-idf/esp_rom/libesp_rom.a
LOAD esp-idf/hal/libhal.a
LOAD esp-idf/log/liblog.a
LOAD esp-idf/heap/libheap.a
LOAD esp-idf/soc/libsoc.a
LOAD esp-idf/esp_hw_support/libesp_hw_support.a
LOAD esp-idf/freertos/libfreertos.a
LOAD esp-idf/newlib/libnewlib.a
LOAD esp-idf/cxx/libcxx.a
LOAD esp-idf/esp_common/libesp_common.a
LOAD esp-idf/esp_timer/libesp_timer.a
LOAD esp-idf/esp_event/libesp_event.a
LOAD esp-idf/vfs/libvfs.a
LOAD esp-idf/lwip/liblwip.a
LOAD esp-idf/esp_netif/libesp_netif.a
LOAD esp-idf/nvs_flash/libnvs_flash.a
LOAD esp-idf/wpa_supplicant/libwpa_supplicant.a
LOAD esp-idf/http_parser/libhttp_parser.a
LOAD esp-idf/esp-tls/libesp-tls.a
LOAD esp-idf/esp_adc/libesp_adc.a
LOAD esp-idf/esp_eth/libesp_eth.a
LOAD esp-idf/esp_gdbstub/libesp_gdbstub.a
LOAD esp-idf/tcp_transport/libtcp_transport.a
LOAD esp-idf/esp_http_client/libesp_http_client.a
LOAD esp-idf/esp_http_server/libesp_http_server.a
LOAD esp-idf/esp_https_ota/libesp_https_ota.a
LOAD esp-idf/mbedtls/mbedtls/library/libmbedtls.a
LOAD esp-idf/mbedtls/mbedtls/library/libmbedcrypto.a
LOAD esp-idf/mbedtls/mbedtls/library/libmbedx509.a
LOAD esp-idf/riscv/libriscv.a
LOAD esp-idf/esp_ringbuf/libesp_ringbuf.a
LOAD esp-idf/efuse/libefuse.a
LOAD esp-idf/driver/libdriver.a
LOAD esp-idf/esp_pm/libesp_pm.a
LOAD esp-idf/mbedtls/libmbedtls.a
LOAD esp-idf/esp_app_format/libesp_app_format.a
LOAD esp-idf/bootloader_support/libbootloader_support.a
LOAD esp-idf/esp_partition/libesp_partition.a
LOAD esp-idf/app_update/libapp_update.a
LOAD esp-idf/spi_flash/libspi_flash.a
LOAD esp-idf/pthread/libpthread.a
LOAD esp-idf/esp_system/libesp_system.a
LOAD esp-idf/esp_rom/libesp_rom.a
LOAD esp-idf/hal/libhal.a
LOAD esp-idf/log/liblog.a
LOAD esp-idf/heap/libheap.a
LOAD esp-idf/soc/libsoc.a
LOAD esp-idf/esp_hw_support/libesp_hw_support.a
LOAD esp-idf/freertos/libfreertos.a
LOAD esp-idf/newlib/libnewlib.a
LOAD esp-idf/cxx/libcxx.a
LOAD esp-idf/esp_common/libesp_common.a
LOAD esp-idf/esp_timer/libesp_timer.a
LOAD esp-idf/esp_event/libesp_event.a
LOAD esp-idf/vfs/libvfs.a
LOAD esp-idf/lwip/liblwip.a
LOAD esp-idf/esp_netif/libesp_netif.a
LOAD esp-idf/nvs_flash/libnvs_flash.a
LOAD esp-idf/wpa_supplicant/libwpa_supplicant.a
LOAD esp-idf/http_parser/libhttp_parser.a
LOAD esp-idf/esp-tls/libesp-tls.a
LOAD esp-idf/esp_adc/libesp_adc.a
LOAD esp-idf/esp_eth/libesp_eth.a
LOAD esp-idf/esp_gdbstub/libesp_gdbstub.a
LOAD esp-idf/tcp_transport/libtcp_transport.a
LOAD esp-idf/esp_http_client/libesp_http_client.a
LOAD esp-idf/esp_http_server/libesp_http_server.a
LOAD esp-idf/esp_https_ota/libesp_https_ota.a
LOAD esp-idf/mbedtls/mbedtls/library/libmbedtls.a
LOAD esp-idf/mbedtls/mbedtls/library/libmbedcrypto.a
LOAD esp-idf/mbedtls/mbedtls/library/libmbedx509.a
LOAD esp-idf/riscv/libriscv.a
LOAD esp-idf/esp_ringbuf/libesp_ringbuf.a
LOAD esp-idf/efuse/libefuse.a
LOAD esp-idf/driver/libdriver.a
LOAD esp-idf/esp_pm/libesp_pm.a
LOAD esp-idf/mbedtls/libmbedtls.a
LOAD esp-idf/esp_app_format/libesp_app_format.a
LOAD esp-idf/bootloader_support/libbootloader_support.a
LOAD esp-idf/esp_partition/libesp_partition.a
LOAD esp-idf/app_update/libapp_update.a
LOAD esp-idf/spi_flash/libspi_flash.a
LOAD esp-idf/pthread/libpthread.a
LOAD esp-idf/esp_system/libesp_system.a
LOAD esp-idf/esp_rom/libesp_rom.a
LOAD esp-idf/hal/libhal.a
LOAD esp-idf/log/liblog.a
LOAD esp-idf/heap/libheap.a
LOAD esp-idf/soc/libsoc.a
LOAD esp-idf/esp_hw_support/libesp_hw_support.a
LOAD esp-idf/freertos/libfreertos.a
LOAD esp-idf/newlib/libnewlib.a
LOAD esp-idf/cxx/libcxx.a
LOAD esp-idf/esp_common/libesp_common.a
LOAD esp-idf/esp_timer/libesp_timer.a
LOAD esp-idf/esp_event/libesp_event.a
LOAD esp-idf/vfs/libvfs.a
LOAD esp-idf/lwip/liblwip.a
LOAD esp-idf/esp_netif/libesp_netif.a
LOAD esp-idf/nvs_flash/libnvs_flash.a
LOAD esp-idf/wpa_supplicant/libwpa_supplicant.a
LOAD esp-idf/http_parser/libhttp_parser.a
LOAD esp-idf/esp-tls/libesp-tls.a
LOAD esp-idf/esp_adc/libesp_adc.a
LOAD esp-idf/esp_eth/libesp_eth.a
LOAD esp-idf/esp_gdbstub/libesp_gdbstub.a
LOAD esp-idf/tcp_transport/libtcp_transport.a
LOAD esp-idf/esp_http_client/libesp_http_client.a
LOAD esp-idf/esp_http_server/libesp_http_server.a
LOAD esp-idf/esp_https_ota/libesp_https_ota.a
LOAD esp-idf/mbedtls/mbedtls/library/libmbedtls.a
LOAD esp-idf/mbedtls/mbedtls/library/libmbedcrypto.a
LOAD esp-idf/mbedtls/mbedtls/library/libmbedx509.a
LOAD esp-idf/riscv/libriscv.a
LOAD esp-idf/esp_ringbuf/libesp_ringbuf.a
LOAD esp-idf/efuse/libefuse.a
LOAD esp-idf/driver/libdriver.a
LOAD esp-idf/esp_pm/libesp_pm.a
LOAD esp-idf/mbedtls/libmbedtls.a
LOAD esp-idf/esp_app_format/libesp_app_format.a
LOAD esp-idf/bootloader_support/libbootloader_support.a
LOAD esp-idf/esp_partition/libesp_partition.a
LOAD esp-idf/app_update/libapp_update.a
LOAD esp-idf/spi_flash/libspi_flash.a
LOAD esp-idf/pthread/libpthread.a
LOAD esp-idf/esp_system/libesp_system.a
LOAD esp-idf/esp_rom/libesp_rom.a
LOAD esp-idf/hal/libhal.a
LOAD esp-idf/log/liblog.a
LOAD esp-idf/heap/libheap.a
LOAD esp-idf/soc/libsoc.a
LOAD esp-idf/esp_hw_support/libesp_hw_support.a
LOAD esp-idf/freertos/libfreertos.a
LOAD esp-idf/newlib/libnewlib.a
LOAD esp-idf/cxx/libcxx.a
LOAD esp-idf/esp_common/libesp_common.a
LOAD esp-idf/esp_timer/libesp_timer.a
LOAD esp-idf/esp_event/libesp_event.a
LOAD esp-idf/vfs/libvfs.a
LOAD esp-idf/lwip/liblwip.a
LOAD esp-idf/esp_netif/libesp_netif.a
LOAD esp-idf/nvs_flash/libnvs_flash.a
LOAD esp-idf/wpa_supplicant/libwpa_supplicant.a
LOAD esp-idf/http_parser/libhttp_parser.a
LOAD esp-idf/esp-tls/libesp-tls.a
LOAD esp-idf/esp_adc/libesp_adc.a
LOAD esp-idf/esp_eth/libesp_eth.a
LOAD esp-idf/esp_gdbstub/libesp_gdbstub.a
LOAD esp-idf/tcp_transport/libtcp_transport.a
LOAD esp-idf/esp_http_client/libesp_http_client.a
LOAD esp-idf/esp_http_server/libesp_http_server.a
LOAD esp-idf/esp_https_ota/libesp_https_ota.a
LOAD esp-idf/mbedtls/mbedtls/library/libmbedtls.a
LOAD esp-idf/mbedtls/mbedtls/library/libmbedcrypto.a
LOAD esp-idf/mbedtls/mbedtls/library/libmbedx509.a
LOAD esp-idf/riscv/libriscv.a
LOAD esp-idf/esp_ringbuf/libesp_ringbuf.a
LOAD esp-idf/efuse/libefuse.a
LOAD esp-idf/driver/libdriver.a
LOAD esp-idf/esp_pm/libesp_pm.a
LOAD esp-idf/mbedtls/libmbedtls.a
LOAD esp-idf/esp_app_format/libesp_app_format.a
LOAD esp-idf/bootloader_support/libbootloader_support.a
LOAD esp-idf/esp_partition/libesp_partition.a
LOAD esp-idf/app_update/libapp_update.a
LOAD esp-idf/spi_flash/libspi_flash.a
LOAD esp-idf/pthread/libpthread.a
LOAD esp-idf/esp_system/libesp_system.a
LOAD esp-idf/esp_rom/libesp_rom.a
LOAD esp-idf/hal/libhal.a
LOAD esp-idf/log/liblog.a
LOAD esp-idf/heap/libheap.a
LOAD esp-idf/soc/libsoc.a
LOAD esp-idf/esp_hw_support/libesp_hw_support.a
LOAD esp-idf/freertos/libfreertos.a
LOAD esp-idf/newlib/libnewlib.a
LOAD esp-idf/cxx/libcxx.a
LOAD esp-idf/esp_common/libesp_common.a
LOAD esp-idf/esp_timer/libesp_timer.a
LOAD esp-idf/esp_event/libesp_event.a
LOAD esp-idf/vfs/libvfs.a
LOAD esp-idf/lwip/liblwip.a
LOAD esp-idf/esp_netif/libesp_netif.a
LOAD esp-idf/nvs_flash/libnvs_flash.a
LOAD esp-idf/wpa_supplicant/libwpa_supplicant.a
LOAD esp-idf/http_parser/libhttp_parser.a
LOAD esp-idf/esp-tls/libesp-tls.a
LOAD esp-idf/esp_adc/libesp_adc.a
LOAD esp-idf/esp_eth/libesp_eth.a
LOAD esp-idf/esp_gdbstub/libesp_gdbstub.a
LOAD esp-idf/tcp_transport/libtcp_transport.a
LOAD esp-idf/esp_http_client/libesp_http_client.a
LOAD esp-idf/esp_http_server/libesp_http_server.a
LOAD esp-idf/esp_https_ota/libesp_https_ota.a
LOAD esp-idf/mbedtls/mbedtls/library/libmbedtls.a
LOAD esp-idf/mbedtls/mbedtls/library/libmbedcrypto.a
LOAD esp-idf/mbedtls/mbedtls/library/libmbedx509.a
LOAD esp-idf/newlib/libnewlib.a
LOAD /home/djordje/.espressif/tools/riscv32-esp-elf/esp-2022r1-11.2.0/riscv32-esp-elf/bin/../lib/gcc/riscv32-esp-elf/11.2.0/../../../../riscv32-esp-elf/lib/rv32imc/ilp32/no-rtti/libstdc++.a
LOAD esp-idf/pthread/libpthread.a
LOAD /home/djordje/.espressif/tools/riscv32-esp-elf/esp-2022r1-11.2.0/riscv32-esp-elf/bin/../lib/gcc/riscv32-esp-elf/11.2.0/rv32imc/ilp32/no-rtti/libgcc.a
LOAD esp-idf/cxx/libcxx.a
LOAD /home/djordje/.espressif/tools/riscv32-esp-elf/esp-2022r1-11.2.0/riscv32-esp-elf/bin/../lib/gcc/riscv32-esp-elf/11.2.0/../../../../riscv32-esp-elf/lib/rv32imc/ilp32/no-rtti/libstdc++.a
LOAD /home/djordje/.espressif/tools/riscv32-esp-elf/esp-2022r1-11.2.0/riscv32-esp-elf/bin/../lib/gcc/riscv32-esp-elf/11.2.0/../../../../riscv32-esp-elf/lib/rv32imc/ilp32/no-rtti/libm.a
LOAD /home/djordje/.espressif/tools/riscv32-esp-elf/esp-2022r1-11.2.0/riscv32-esp-elf/bin/../lib/gcc/riscv32-esp-elf/11.2.0/../../../../riscv32-esp-elf/lib/rv32imc/ilp32/no-rtti/libc.a
LOAD /home/djordje/.espressif/tools/riscv32-esp-elf/esp-2022r1-11.2.0/riscv32-esp-elf/bin/../lib/gcc/riscv32-esp-elf/11.2.0/rv32imc/ilp32/no-rtti/libgcc.a
LOAD /home/djordje/.espressif/tools/riscv32-esp-elf/esp-2022r1-11.2.0/riscv32-esp-elf/bin/../lib/gcc/riscv32-esp-elf/11.2.0/../../../../riscv32-esp-elf/lib/rv32imc/ilp32/no-rtti/libc.a
LOAD /home/djordje/.espressif/tools/riscv32-esp-elf/esp-2022r1-11.2.0/riscv32-esp-elf/bin/../lib/gcc/riscv32-esp-elf/11.2.0/../../../../riscv32-esp-elf/lib/rv32imc/ilp32/no-rtti/libnosys.a
LOAD /home/djordje/.espressif/tools/riscv32-esp-elf/esp-2022r1-11.2.0/riscv32-esp-elf/bin/../lib/gcc/riscv32-esp-elf/11.2.0/../../../../riscv32-esp-elf/lib/rv32imc/ilp32/no-rtti/libc.a
LOAD /home/djordje/.espressif/tools/riscv32-esp-elf/esp-2022r1-11.2.0/riscv32-esp-elf/bin/../lib/gcc/riscv32-esp-elf/11.2.0/rv32imc/ilp32/no-rtti/libgcc.a
START GROUP
LOAD /home/djordje/.espressif/tools/riscv32-esp-elf/esp-2022r1-11.2.0/riscv32-esp-elf/bin/../lib/gcc/riscv32-esp-elf/11.2.0/rv32imc/ilp32/no-rtti/libgcc.a
LOAD /home/djordje/.espressif/tools/riscv32-esp-elf/esp-2022r1-11.2.0/riscv32-esp-elf/bin/../lib/gcc/riscv32-esp-elf/11.2.0/../../../../riscv32-esp-elf/lib/rv32imc/ilp32/no-rtti/libc.a
LOAD /home/djordje/.espressif/tools/riscv32-esp-elf/esp-2022r1-11.2.0/riscv32-esp-elf/bin/../lib/gcc/riscv32-esp-elf/11.2.0/../../../../riscv32-esp-elf/lib/rv32imc/ilp32/no-rtti/libnosys.a
END GROUP
                0x0000000060000000                PROVIDE (UART0 = 0x60000000)
                0x0000000060001000                PROVIDE (UART1 = 0x60001000)
                0x0000000060002000                PROVIDE (SPIMEM0 = 0x60002000)
                0x0000000060003000                PROVIDE (SPIMEM1 = 0x60003000)
                [!provide]                        PROVIDE (I2C0 = 0x60004000)
                [!provide]                        PROVIDE (UHCI0 = 0x60005000)
                [!provide]                        PROVIDE (RMT = 0x60006000)
                [!provide]                        PROVIDE (RMTMEM = 0x60006400)
                [!provide]                        PROVIDE (LEDC = 0x60007000)
                0x0000000060008000                PROVIDE (TIMERG0 = 0x60008000)
                0x0000000060009000                PROVIDE (TIMERG1 = 0x60009000)
                0x000000006000a000                PROVIDE (SYSTIMER = 0x6000a000)
                [!provide]                        PROVIDE (TWAI0 = 0x6000b000)
                [!provide]                        PROVIDE (I2S0 = 0x6000c000)
                [!provide]                        PROVIDE (TWAI1 = 0x6000d000)
                [!provide]                        PROVIDE (APB_SARADC = 0x6000e000)
                0x000000006000f000                PROVIDE (USB_SERIAL_JTAG = 0x6000f000)
                [!provide]                        PROVIDE (INTMTX = 0x60010000)
                [!provide]                        PROVIDE (ATOMIC_LOCKER = 0x60011000)
                [!provide]                        PROVIDE (PCNT = 0x60012000)
                [!provide]                        PROVIDE (SOC_ETM = 0x60013000)
                [!provide]                        PROVIDE (MCPWM0 = 0x60014000)
                [!provide]                        PROVIDE (PARL_IO = 0x60015000)
                [!provide]                        PROVIDE (HINF = 0x60016000)
                [!provide]                        PROVIDE (SLC = 0x60017000)
                [!provide]                        PROVIDE (HOST = 0x60018000)
                [!provide]                        PROVIDE (PVT_MONITOR = 0x60019000)
                0x0000000060080000                PROVIDE (GDMA = 0x60080000)
                0x0000000060081000                PROVIDE (GPSPI2 = 0x60081000)
                [!provide]                        PROVIDE (AES = 0x60088000)
                [!provide]                        PROVIDE (SHA = 0x60089000)
                [!provide]                        PROVIDE (RSA = 0x6008a000)
                [!provide]                        PROVIDE (ECC = 0x6008b000)
                [!provide]                        PROVIDE (DS = 0x6008c000)
                [!provide]                        PROVIDE (HMAC = 0x6008d000)
                [!provide]                        PROVIDE (IO_MUX = 0x60090000)
                0x0000000060091000                PROVIDE (GPIO = 0x60091000)
                [!provide]                        PROVIDE (GPIO_EXT = 0x60091f00)
                [!provide]                        PROVIDE (SDM = 0x60091f00)
                [!provide]                        PROVIDE (GLITCH_FILTER = 0x60091f30)
                [!provide]                        PROVIDE (GPIO_ETM = 0x60091f60)
                [!provide]                        PROVIDE (MEM_MONITOR = 0x60092000)
                [!provide]                        PROVIDE (PAU = 0x60093000)
                [!provide]                        PROVIDE (HP_SYSTEM = 0x60095000)
                0x0000000060096000                PROVIDE (PCR = 0x60096000)
                [!provide]                        PROVIDE (TEE = 0x60098000)
                [!provide]                        PROVIDE (HP_APM = 0x60099000)
                [!provide]                        PROVIDE (MODEM_LPCON = 0x600af000)
                [!provide]                        PROVIDE (PMU = 0x600b0000)
                0x00000000600b0400                PROVIDE (LP_CLKRST = 0x600b0400)
                0x00000000600b0800                PROVIDE (EFUSE = 0x600b0800)
                [!provide]                        PROVIDE (LP_TIMER = 0x600b0c00)
                [!provide]                        PROVIDE (LP_AON = 0x600b1000)
                [!provide]                        PROVIDE (LP_UART = 0x600b1400)
                [!provide]                        PROVIDE (LP_I2C = 0x600b1800)
                0x00000000600b1c00                PROVIDE (LP_WDT = 0x600b1c00)
                0x00000000600b2000                PROVIDE (LP_IO = 0x600b2000)
                [!provide]                        PROVIDE (LP_I2C_ANA_MST = 0x600b2400)
                [!provide]                        PROVIDE (LPPERI = 0x600b2800)
                [!provide]                        PROVIDE (LP_ANA_PERI = 0x600b2c00)
                [!provide]                        PROVIDE (LP_APM = 0x600b3800)
                [!provide]                        PROVIDE (OTP_DEBUG = 0x600b3c00)
                0x0000000040000018                rtc_get_reset_reason = 0x40000018
                0x000000004000001c                analog_super_wdt_reset_happened = 0x4000001c
                0x0000000040000020                rtc_get_wakeup_cause = 0x40000020
                0x0000000040000024                rtc_unhold_all_pads = 0x40000024
                0x0000000040000028                ets_printf = 0x40000028
                0x000000004000002c                ets_install_putc1 = 0x4000002c
                0x0000000040000030                ets_install_putc2 = 0x40000030
                0x0000000040000034                ets_install_uart_printf = 0x40000034
                0x0000000040000038                ets_install_usb_printf = 0x40000038
                0x000000004000003c                ets_get_printf_channel = 0x4000003c
                0x0000000040000040                ets_delay_us = 0x40000040
                0x0000000040000044                ets_get_cpu_frequency = 0x40000044
                0x0000000040000048                ets_update_cpu_frequency = 0x40000048
                0x000000004000004c                ets_install_lock = 0x4000004c
                0x0000000040000050                UartRxString = 0x40000050
                0x0000000040000054                UartGetCmdLn = 0x40000054
                0x0000000040000058                uart_tx_one_char = 0x40000058
                0x000000004000005c                uart_tx_one_char2 = 0x4000005c
                0x0000000040000060                uart_rx_one_char = 0x40000060
                0x0000000040000064                uart_rx_one_char_block = 0x40000064
                0x0000000040000068                uart_rx_intr_handler = 0x40000068
                0x000000004000006c                uart_rx_readbuff = 0x4000006c
                0x0000000040000070                uartAttach = 0x40000070
                0x0000000040000074                uart_tx_flush = 0x40000074
                0x0000000040000078                uart_tx_wait_idle = 0x40000078
                0x000000004000007c                uart_div_modify = 0x4000007c
                0x0000000040000080                ets_write_char_uart = 0x40000080
                0x0000000040000084                uart_tx_switch = 0x40000084
                0x0000000040000088                roundup2 = 0x40000088
                0x000000004000008c                multofup = 0x4000008c
                0x0000000040000090                software_reset = 0x40000090
                0x0000000040000094                software_reset_cpu = 0x40000094
                0x0000000040000098                ets_clk_assist_debug_clock_enable = 0x40000098
                0x000000004000009c                clear_super_wdt_reset_flag = 0x4000009c
                0x00000000400000a0                disable_default_watchdog = 0x400000a0
                0x00000000400000a4                esp_rom_set_rtc_wake_addr = 0x400000a4
                0x00000000400000a8                esp_rom_get_rtc_wake_addr = 0x400000a8
                0x00000000400000ac                send_packet = 0x400000ac
                0x00000000400000b0                recv_packet = 0x400000b0
                0x00000000400000b4                GetUartDevice = 0x400000b4
                0x00000000400000b8                UartDwnLdProc = 0x400000b8
                0x00000000400000bc                GetSecurityInfoProc = 0x400000bc
                0x00000000400000c0                Uart_Init = 0x400000c0
                0x00000000400000c4                ets_set_user_start = 0x400000c4
                0x000000004004fffc                ets_rom_layout_p = 0x4004fffc
                0x000000004087fff8                ets_ops_table_ptr = 0x4087fff8
                0x000000004087fffc                g_saved_pc = 0x4087fffc
                0x00000000400000c8                mz_adler32 = 0x400000c8
                0x00000000400000cc                mz_free = 0x400000cc
                0x00000000400000d0                tdefl_compress = 0x400000d0
                0x00000000400000d4                tdefl_compress_buffer = 0x400000d4
                0x00000000400000d8                tdefl_compress_mem_to_heap = 0x400000d8
                0x00000000400000dc                tdefl_compress_mem_to_mem = 0x400000dc
                0x00000000400000e0                tdefl_compress_mem_to_output = 0x400000e0
                0x00000000400000e4                tdefl_get_adler32 = 0x400000e4
                0x00000000400000e8                tdefl_get_prev_return_status = 0x400000e8
                0x00000000400000ec                tdefl_init = 0x400000ec
                0x00000000400000f0                tdefl_write_image_to_png_file_in_memory = 0x400000f0
                0x00000000400000f4                tdefl_write_image_to_png_file_in_memory_ex = 0x400000f4
                0x00000000400000f8                tinfl_decompress = 0x400000f8
                0x00000000400000fc                tinfl_decompress_mem_to_callback = 0x400000fc
                0x0000000040000100                tinfl_decompress_mem_to_heap = 0x40000100
                0x0000000040000104                tinfl_decompress_mem_to_mem = 0x40000104
                0x0000000040000108                jd_prepare = 0x40000108
                0x000000004000010c                jd_decomp = 0x4000010c
                0x0000000040000110                esp_rom_spiflash_wait_idle = 0x40000110
                0x0000000040000114                esp_rom_spiflash_write_encrypted = 0x40000114
                0x0000000040000118                esp_rom_spiflash_write_encrypted_dest = 0x40000118
                0x000000004000011c                esp_rom_spiflash_write_encrypted_enable = 0x4000011c
                0x0000000040000120                esp_rom_spiflash_write_encrypted_disable = 0x40000120
                0x0000000040000124                esp_rom_spiflash_erase_chip = 0x40000124
                0x0000000040000128                _esp_rom_spiflash_erase_sector = 0x40000128
                0x000000004000012c                _esp_rom_spiflash_erase_block = 0x4000012c
                0x0000000040000130                _esp_rom_spiflash_write = 0x40000130
                0x0000000040000134                _esp_rom_spiflash_read = 0x40000134
                0x0000000040000138                _esp_rom_spiflash_unlock = 0x40000138
                0x000000004000013c                _SPIEraseArea = 0x4000013c
                0x0000000040000140                _SPI_write_enable = 0x40000140
                0x0000000040000144                esp_rom_spiflash_erase_sector = 0x40000144
                0x0000000040000148                esp_rom_spiflash_erase_block = 0x40000148
                0x000000004000014c                esp_rom_spiflash_write = 0x4000014c
                0x0000000040000150                esp_rom_spiflash_read = 0x40000150
                0x0000000040000154                esp_rom_spiflash_unlock = 0x40000154
                0x0000000040000158                SPIEraseArea = 0x40000158
                0x000000004000015c                SPI_write_enable = 0x4000015c
                0x0000000040000160                esp_rom_spiflash_config_param = 0x40000160
                0x0000000040000164                esp_rom_spiflash_read_user_cmd = 0x40000164
                0x0000000040000168                esp_rom_spiflash_select_qio_pins = 0x40000168
                0x000000004000016c                esp_rom_spi_flash_auto_sus_res = 0x4000016c
                0x0000000040000170                esp_rom_spi_flash_send_resume = 0x40000170
                0x0000000040000174                esp_rom_spi_flash_update_id = 0x40000174
                0x0000000040000178                esp_rom_spiflash_config_clk = 0x40000178
                0x000000004000017c                esp_rom_spiflash_config_readmode = 0x4000017c
                0x0000000040000180                esp_rom_spiflash_read_status = 0x40000180
                0x0000000040000184                esp_rom_spiflash_read_statushigh = 0x40000184
                0x0000000040000188                esp_rom_spiflash_write_status = 0x40000188
                0x000000004000018c                spi_cache_mode_switch = 0x4000018c
                0x0000000040000190                spi_common_set_dummy_output = 0x40000190
                0x0000000040000194                spi_common_set_flash_cs_timing = 0x40000194
                0x0000000040000198                esp_rom_spi_set_address_bit_len = 0x40000198
                0x000000004000019c                SPILock = 0x4000019c
                0x00000000400001a0                SPIMasterReadModeCnfig = 0x400001a0
                0x00000000400001a4                SPI_Common_Command = 0x400001a4
                0x00000000400001a8                SPI_WakeUp = 0x400001a8
                0x00000000400001ac                SPI_block_erase = 0x400001ac
                0x00000000400001b0                SPI_chip_erase = 0x400001b0
                0x00000000400001b4                SPI_init = 0x400001b4
                0x00000000400001b8                SPI_page_program = 0x400001b8
                0x00000000400001bc                SPI_read_data = 0x400001bc
                0x00000000400001c0                SPI_sector_erase = 0x400001c0
                0x00000000400001c4                SelectSpiFunction = 0x400001c4
                0x00000000400001c8                SetSpiDrvs = 0x400001c8
                0x00000000400001cc                Wait_SPI_Idle = 0x400001cc
                0x00000000400001d0                spi_dummy_len_fix = 0x400001d0
                0x00000000400001d4                Disable_QMode = 0x400001d4
                0x00000000400001d8                Enable_QMode = 0x400001d8
                0x00000000400001dc                spi_flash_attach = 0x400001dc
                0x00000000400001e0                spi_flash_get_chip_size = 0x400001e0
                0x00000000400001e4                spi_flash_guard_set = 0x400001e4
                0x00000000400001e8                spi_flash_guard_get = 0x400001e8
                0x00000000400001ec                spi_flash_read_encrypted = 0x400001ec
                0x000000004087fff0                rom_spiflash_legacy_funcs = 0x4087fff0
                0x000000004087ffec                rom_spiflash_legacy_data = 0x4087ffec
                0x000000004087fff4                g_flash_guard_ops = 0x4087fff4
                0x0000000040000278                esp_rom_spiflash_write_disable = 0x40000278
                0x0000000040000394                wdt_hal_init = 0x40000394
                0x0000000040000398                wdt_hal_deinit = 0x40000398
                0x000000004000039c                wdt_hal_config_stage = 0x4000039c
                0x00000000400003a0                wdt_hal_write_protect_disable = 0x400003a0
                0x00000000400003a4                wdt_hal_write_protect_enable = 0x400003a4
                0x00000000400003a8                wdt_hal_enable = 0x400003a8
                0x00000000400003ac                wdt_hal_disable = 0x400003ac
                0x00000000400003b0                wdt_hal_handle_intr = 0x400003b0
                0x00000000400003b4                wdt_hal_feed = 0x400003b4
                0x00000000400003b8                wdt_hal_set_flashboot_en = 0x400003b8
                0x00000000400003bc                wdt_hal_is_enabled = 0x400003bc
                0x00000000400003c8                systimer_hal_set_tick_rate_ops = 0x400003c8
                0x00000000400003cc                systimer_hal_get_counter_value = 0x400003cc
                0x00000000400003d0                systimer_hal_get_time = 0x400003d0
                0x00000000400003d4                systimer_hal_set_alarm_target = 0x400003d4
                0x00000000400003d8                systimer_hal_set_alarm_period = 0x400003d8
                0x00000000400003dc                systimer_hal_get_alarm_value = 0x400003dc
                0x00000000400003e0                systimer_hal_enable_alarm_int = 0x400003e0
                0x00000000400003e4                systimer_hal_on_apb_freq_update = 0x400003e4
                0x00000000400003e8                systimer_hal_counter_value_advance = 0x400003e8
                0x00000000400003ec                systimer_hal_enable_counter = 0x400003ec
                0x00000000400003f0                systimer_hal_select_alarm_mode = 0x400003f0
                0x00000000400003f4                systimer_hal_connect_alarm_counter = 0x400003f4
                0x00000000400003f8                systimer_hal_counter_can_stall_by_cpu = 0x400003f8
                0x0000000040000628                Cache_Get_ICache_Line_Size = 0x40000628
                0x000000004000062c                Cache_Get_Mode = 0x4000062c
                0x0000000040000630                Cache_Address_Through_Cache = 0x40000630
                0x0000000040000634                ROM_Boot_Cache_Init = 0x40000634
                0x0000000040000638                MMU_Set_Page_Mode = 0x40000638
                0x000000004000063c                MMU_Get_Page_Mode = 0x4000063c
                0x0000000040000640                Cache_Invalidate_ICache_Items = 0x40000640
                0x0000000040000644                Cache_Op_Addr = 0x40000644
                0x0000000040000648                Cache_Invalidate_Addr = 0x40000648
                0x000000004000064c                Cache_Invalidate_ICache_All = 0x4000064c
                0x0000000040000650                Cache_Mask_All = 0x40000650
                0x0000000040000654                Cache_UnMask_Dram0 = 0x40000654
                0x0000000040000658                Cache_Suspend_ICache_Autoload = 0x40000658
                0x000000004000065c                Cache_Resume_ICache_Autoload = 0x4000065c
                0x0000000040000660                Cache_Start_ICache_Preload = 0x40000660
                0x0000000040000664                Cache_ICache_Preload_Done = 0x40000664
                0x0000000040000668                Cache_End_ICache_Preload = 0x40000668
                0x000000004000066c                Cache_Config_ICache_Autoload = 0x4000066c
                0x0000000040000670                Cache_Enable_ICache_Autoload = 0x40000670
                0x0000000040000674                Cache_Disable_ICache_Autoload = 0x40000674
                0x0000000040000678                Cache_Enable_ICache_PreLock = 0x40000678
                0x000000004000067c                Cache_Disable_ICache_PreLock = 0x4000067c
                0x0000000040000680                Cache_Lock_ICache_Items = 0x40000680
                0x0000000040000684                Cache_Unlock_ICache_Items = 0x40000684
                0x0000000040000688                Cache_Lock_Addr = 0x40000688
                0x000000004000068c                Cache_Unlock_Addr = 0x4000068c
                0x0000000040000690                Cache_Disable_ICache = 0x40000690
                0x0000000040000694                Cache_Enable_ICache = 0x40000694
                0x0000000040000698                Cache_Suspend_ICache = 0x40000698
                0x000000004000069c                Cache_Resume_ICache = 0x4000069c
                0x00000000400006a0                Cache_Freeze_ICache_Enable = 0x400006a0
                0x00000000400006a4                Cache_Freeze_ICache_Disable = 0x400006a4
                0x00000000400006a8                Cache_Set_IDROM_MMU_Size = 0x400006a8
                0x00000000400006ac                Cache_Get_IROM_MMU_End = 0x400006ac
                0x00000000400006b0                Cache_Get_DROM_MMU_End = 0x400006b0
                0x00000000400006b4                Cache_MMU_Init = 0x400006b4
                0x00000000400006b8                Cache_MSPI_MMU_Set = 0x400006b8
                0x00000000400006bc                Cache_Travel_Tag_Memory = 0x400006bc
                0x00000000400006c0                Cache_Get_Virtual_Addr = 0x400006c0
                0x000000004087ffcc                rom_cache_op_cb = 0x4087ffcc
                0x000000004087ffc8                rom_cache_internal_table_ptr = 0x4087ffc8
                0x00000000400006c4                ets_clk_get_xtal_freq = 0x400006c4
                0x00000000400006c8                ets_clk_get_cpu_freq = 0x400006c8
                0x00000000400006cc                ets_clk_apb_wait_ready = 0x400006cc
                0x00000000400006d0                ets_clk_mspi_apb_wait_ready = 0x400006d0
                0x00000000400006d4                gpio_input_get = 0x400006d4
                0x00000000400006d8                gpio_matrix_in = 0x400006d8
                0x00000000400006dc                gpio_matrix_out = 0x400006dc
                0x00000000400006e0                gpio_output_disable = 0x400006e0
                0x00000000400006e4                gpio_output_enable = 0x400006e4
                0x00000000400006e8                gpio_output_set = 0x400006e8
                0x00000000400006ec                gpio_pad_hold = 0x400006ec
                0x00000000400006f0                gpio_pad_input_disable = 0x400006f0
                0x00000000400006f4                gpio_pad_input_enable = 0x400006f4
                0x00000000400006f8                gpio_pad_pulldown = 0x400006f8
                0x00000000400006fc                gpio_pad_pullup = 0x400006fc
                0x0000000040000700                gpio_pad_select_gpio = 0x40000700
                0x0000000040000704                gpio_pad_set_drv = 0x40000704
                0x0000000040000708                gpio_pad_unhold = 0x40000708
                0x000000004000070c                gpio_pin_wakeup_disable = 0x4000070c
                0x0000000040000710                gpio_pin_wakeup_enable = 0x40000710
                0x0000000040000714                gpio_bypass_matrix_in = 0x40000714
                0x0000000040000718                esprv_intc_int_set_priority = 0x40000718
                0x000000004000071c                esprv_intc_int_set_threshold = 0x4000071c
                0x0000000040000720                esprv_intc_int_enable = 0x40000720
                0x0000000040000724                esprv_intc_int_disable = 0x40000724
                0x0000000040000728                esprv_intc_int_set_type = 0x40000728
                [!provide]                        PROVIDE (intr_handler_set = 0x4000072c)
                0x0000000040000730                intr_matrix_set = 0x40000730
                0x0000000040000734                ets_intr_lock = 0x40000734
                0x0000000040000738                ets_intr_unlock = 0x40000738
                0x000000004000073c                ets_isr_attach = 0x4000073c
                0x0000000040000740                ets_isr_mask = 0x40000740
                0x0000000040000744                ets_isr_unmask = 0x40000744
                0x0000000040000748                md5_vector = 0x40000748
                0x000000004000074c                MD5Init = 0x4000074c
                0x0000000040000750                MD5Update = 0x40000750
                0x0000000040000754                MD5Final = 0x40000754
                0x0000000040000758                crc32_le = 0x40000758
                0x000000004000075c                crc16_le = 0x4000075c
                0x0000000040000760                crc8_le = 0x40000760
                0x0000000040000764                crc32_be = 0x40000764
                0x0000000040000768                crc16_be = 0x40000768
                0x000000004000076c                crc8_be = 0x4000076c
                0x0000000040000770                esp_crc8 = 0x40000770
                0x0000000040000774                ets_sha_enable = 0x40000774
                0x0000000040000778                ets_sha_disable = 0x40000778
                0x000000004000077c                ets_sha_get_state = 0x4000077c
                0x0000000040000780                ets_sha_init = 0x40000780
                0x0000000040000784                ets_sha_process = 0x40000784
                0x0000000040000788                ets_sha_starts = 0x40000788
                0x000000004000078c                ets_sha_update = 0x4000078c
                0x0000000040000790                ets_sha_finish = 0x40000790
                0x0000000040000794                ets_sha_clone = 0x40000794
                0x0000000040000798                ets_hmac_enable = 0x40000798
                0x000000004000079c                ets_hmac_disable = 0x4000079c
                0x00000000400007a0                ets_hmac_calculate_message = 0x400007a0
                0x00000000400007a4                ets_hmac_calculate_downstream = 0x400007a4
                0x00000000400007a8                ets_hmac_invalidate_downstream = 0x400007a8
                0x00000000400007ac                ets_jtag_enable_temporarily = 0x400007ac
                0x00000000400007b0                ets_aes_enable = 0x400007b0
                0x00000000400007b4                ets_aes_disable = 0x400007b4
                0x00000000400007b8                ets_aes_setkey = 0x400007b8
                0x00000000400007bc                ets_aes_block = 0x400007bc
                0x00000000400007c0                ets_aes_setkey_dec = 0x400007c0
                0x00000000400007c4                ets_aes_setkey_enc = 0x400007c4
                0x00000000400007c8                ets_bigint_enable = 0x400007c8
                0x00000000400007cc                ets_bigint_disable = 0x400007cc
                0x00000000400007d0                ets_bigint_multiply = 0x400007d0
                0x00000000400007d4                ets_bigint_modmult = 0x400007d4
                0x00000000400007d8                ets_bigint_modexp = 0x400007d8
                0x00000000400007dc                ets_bigint_wait_finish = 0x400007dc
                0x00000000400007e0                ets_bigint_getz = 0x400007e0
                0x00000000400007e4                ets_ds_enable = 0x400007e4
                0x00000000400007e8                ets_ds_disable = 0x400007e8
                0x00000000400007ec                ets_ds_start_sign = 0x400007ec
                0x00000000400007f0                ets_ds_is_busy = 0x400007f0
                0x00000000400007f4                ets_ds_finish_sign = 0x400007f4
                0x00000000400007f8                ets_ds_encrypt_params = 0x400007f8
                0x00000000400007fc                ets_mgf1_sha256 = 0x400007fc
                0x000000004004fff8                crc32_le_table_ptr = 0x4004fff8
                0x000000004004fff4                crc16_le_table_ptr = 0x4004fff4
                0x000000004004fff0                crc8_le_table_ptr = 0x4004fff0
                0x000000004004ffec                crc32_be_table_ptr = 0x4004ffec
                0x000000004004ffe8                crc16_be_table_ptr = 0x4004ffe8
                0x000000004004ffe4                crc8_be_table_ptr = 0x4004ffe4
                0x0000000040000800                ets_efuse_read = 0x40000800
                0x0000000040000804                ets_efuse_program = 0x40000804
                0x0000000040000808                ets_efuse_clear_program_registers = 0x40000808
                0x000000004000080c                ets_efuse_write_key = 0x4000080c
                0x0000000040000810                ets_efuse_get_read_register_address = 0x40000810
                0x0000000040000814                ets_efuse_get_key_purpose = 0x40000814
                0x0000000040000818                ets_efuse_key_block_unused = 0x40000818
                0x000000004000081c                ets_efuse_find_unused_key_block = 0x4000081c
                0x0000000040000820                ets_efuse_rs_calculate = 0x40000820
                0x0000000040000824                ets_efuse_count_unused_key_blocks = 0x40000824
                0x0000000040000828                ets_efuse_secure_boot_enabled = 0x40000828
                0x000000004000082c                ets_efuse_secure_boot_aggressive_revoke_enabled = 0x4000082c
                0x0000000040000830                ets_efuse_cache_encryption_enabled = 0x40000830
                0x0000000040000834                ets_efuse_download_modes_disabled = 0x40000834
                0x0000000040000838                ets_efuse_find_purpose = 0x40000838
                0x000000004000083c                ets_efuse_force_send_resume = 0x4000083c
                0x0000000040000840                ets_efuse_get_flash_delay_us = 0x40000840
                0x0000000040000844                ets_efuse_get_mac = 0x40000844
                0x0000000040000848                ets_efuse_get_uart_print_control = 0x40000848
                0x000000004000084c                ets_efuse_direct_boot_mode_disabled = 0x4000084c
                0x0000000040000850                ets_efuse_security_download_modes_enabled = 0x40000850
                0x0000000040000854                ets_efuse_set_timing = 0x40000854
                0x0000000040000858                ets_efuse_jtag_disabled = 0x40000858
                0x000000004000085c                ets_efuse_usb_print_is_disabled = 0x4000085c
                0x0000000040000860                ets_efuse_usb_download_mode_disabled = 0x40000860
                0x0000000040000864                ets_efuse_usb_device_disabled = 0x40000864
                0x0000000040000868                ets_efuse_secure_boot_fast_wake_enabled = 0x40000868
                0x000000004000086c                ets_emsa_pss_verify = 0x4000086c
                0x0000000040000870                ets_rsa_pss_verify = 0x40000870
                0x0000000040000874                ets_secure_boot_verify_bootloader_with_keys = 0x40000874
                0x0000000040000878                ets_secure_boot_verify_signature = 0x40000878
                0x000000004000087c                ets_secure_boot_read_key_digests = 0x4000087c
                0x0000000040000880                ets_secure_boot_revoke_public_key_digest = 0x40000880
                0x0000000040000a80                usb_serial_device_rx_one_char = 0x40000a80
                0x0000000040000a84                usb_serial_device_rx_one_char_block = 0x40000a84
                0x0000000040000a88                usb_serial_device_tx_flush = 0x40000a88
                0x0000000040000a8c                usb_serial_device_tx_one_char = 0x40000a8c
                0x0000000040000a90                lldesc_build_chain = 0x40000a90
                0x0000000040000a94                sip_after_tx_complete = 0x40000a94
                0x0000000040000a98                sip_alloc_to_host_evt = 0x40000a98
                0x0000000040000a9c                sip_download_begin = 0x40000a9c
                0x0000000040000aa0                sip_get_ptr = 0x40000aa0
                0x0000000040000aa4                sip_get_state = 0x40000aa4
                0x0000000040000aa8                sip_init_attach = 0x40000aa8
                0x0000000040000aac                sip_install_rx_ctrl_cb = 0x40000aac
                0x0000000040000ab0                sip_install_rx_data_cb = 0x40000ab0
                0x0000000040000ab4                sip_is_active = 0x40000ab4
                0x0000000040000ab8                sip_post_init = 0x40000ab8
                0x0000000040000abc                sip_reclaim_from_host_cmd = 0x40000abc
                0x0000000040000ac0                sip_reclaim_tx_data_pkt = 0x40000ac0
                0x0000000040000ac4                sip_send = 0x40000ac4
                0x0000000040000ac8                sip_to_host_chain_append = 0x40000ac8
                0x0000000040000acc                sip_to_host_evt_send_done = 0x40000acc
                0x0000000040000ad0                slc_add_credits = 0x40000ad0
                0x0000000040000ad4                slc_enable = 0x40000ad4
                0x0000000040000ad8                slc_from_host_chain_fetch = 0x40000ad8
                0x0000000040000adc                slc_from_host_chain_recycle = 0x40000adc
                0x0000000040000ae0                slc_has_pkt_to_host = 0x40000ae0
                0x0000000040000ae4                slc_init_attach = 0x40000ae4
                0x0000000040000ae8                slc_init_credit = 0x40000ae8
                0x0000000040000aec                slc_reattach = 0x40000aec
                0x0000000040000af0                slc_send_to_host_chain = 0x40000af0
                0x0000000040000af4                slc_set_host_io_max_window = 0x40000af4
                0x0000000040000af8                slc_to_host_chain_recycle = 0x40000af8
                0x0000000040000758                PROVIDE (esp_rom_crc32_le = crc32_le)
                [!provide]                        PROVIDE (esp_rom_crc16_le = crc16_le)
                [!provide]                        PROVIDE (esp_rom_crc8_le = crc8_le)
                [!provide]                        PROVIDE (esp_rom_crc32_be = crc32_be)
                [!provide]                        PROVIDE (esp_rom_crc16_be = crc16_be)
                [!provide]                        PROVIDE (esp_rom_crc8_be = crc8_be)
                0x0000000040000700                PROVIDE (esp_rom_gpio_pad_select_gpio = gpio_pad_select_gpio)
                0x00000000400006fc                PROVIDE (esp_rom_gpio_pad_pullup_only = gpio_pad_pullup)
                [!provide]                        PROVIDE (esp_rom_gpio_pad_set_drv = gpio_pad_set_drv)
                [!provide]                        PROVIDE (esp_rom_gpio_pad_unhold = gpio_pad_unhold)
                0x00000000400006d8                PROVIDE (esp_rom_gpio_connect_in_signal = gpio_matrix_in)
                0x00000000400006dc                PROVIDE (esp_rom_gpio_connect_out_signal = gpio_matrix_out)
                [!provide]                        PROVIDE (esp_rom_efuse_mac_address_crc8 = esp_crc8)
                [!provide]                        PROVIDE (esp_rom_efuse_is_secure_boot_enabled = ets_efuse_secure_boot_enabled)
                [!provide]                        PROVIDE (esp_rom_uart_flush_tx = uart_tx_flush)
                0x0000000040000058                PROVIDE (esp_rom_uart_tx_one_char = uart_tx_one_char)
                0x0000000040000078                PROVIDE (esp_rom_uart_tx_wait_idle = uart_tx_wait_idle)
                0x0000000040000060                PROVIDE (esp_rom_uart_rx_one_char = uart_rx_one_char)
                [!provide]                        PROVIDE (esp_rom_uart_rx_string = UartRxString)
                [!provide]                        PROVIDE (esp_rom_uart_set_as_console = uart_tx_switch)
                [!provide]                        PROVIDE (esp_rom_uart_putc = ets_write_char_uart)
                0x000000004000074c                PROVIDE (esp_rom_md5_init = MD5Init)
                0x0000000040000750                PROVIDE (esp_rom_md5_update = MD5Update)
                0x0000000040000754                PROVIDE (esp_rom_md5_final = MD5Final)
                0x0000000040000090                PROVIDE (esp_rom_software_reset_system = software_reset)
                0x0000000040000094                PROVIDE (esp_rom_software_reset_cpu = software_reset_cpu)
                0x0000000040000028                PROVIDE (esp_rom_printf = ets_printf)
                [!provide]                        PROVIDE (esp_rom_install_uart_printf = ets_install_uart_printf)
                0x0000000040000040                PROVIDE (esp_rom_delay_us = ets_delay_us)
                0x0000000040000018                PROVIDE (esp_rom_get_reset_reason = rtc_get_reset_reason)
                0x0000000040000730                PROVIDE (esp_rom_route_intr_matrix = intr_matrix_set)
                0x0000000040000044                PROVIDE (esp_rom_get_cpu_ticks_per_us = ets_get_cpu_frequency)
                [!provide]                        PROVIDE (esp_rom_spiflash_clear_bp = esp_rom_spiflash_unlock)
                [!provide]                        PROVIDE (esp_rom_spiflash_write_enable = SPI_write_enable)
                [!provide]                        PROVIDE (esp_rom_spiflash_erase_area = SPIEraseArea)
                [!provide]                        PROVIDE (esp_rom_spiflash_fix_dummylen = spi_dummy_len_fix)
                [!provide]                        PROVIDE (esp_rom_spiflash_set_drvs = SetSpiDrvs)
                [!provide]                        PROVIDE (esp_rom_spiflash_select_padsfunc = SelectSpiFunction)
                [!provide]                        PROVIDE (esp_rom_spiflash_common_cmd = SPI_Common_Command)
                0x00000000400009f4                __adddf3 = 0x400009f4
                0x00000000400009f8                __addsf3 = 0x400009f8
                0x00000000400009fc                __eqdf2 = 0x400009fc
                0x0000000040000a00                __eqsf2 = 0x40000a00
                0x0000000040000a04                __extendsfdf2 = 0x40000a04
                0x0000000040000a08                __fixdfdi = 0x40000a08
                0x0000000040000a0c                __fixdfsi = 0x40000a0c
                0x0000000040000a10                __fixsfdi = 0x40000a10
                0x0000000040000a14                __fixsfsi = 0x40000a14
                0x0000000040000a18                __fixunsdfsi = 0x40000a18
                0x0000000040000a1c                __fixunssfdi = 0x40000a1c
                0x0000000040000a20                __fixunssfsi = 0x40000a20
                0x0000000040000a24                __floatdidf = 0x40000a24
                0x0000000040000a28                __floatdisf = 0x40000a28
                0x0000000040000a2c                __floatsidf = 0x40000a2c
                0x0000000040000a30                __floatsisf = 0x40000a30
                0x0000000040000a34                __floatundidf = 0x40000a34
                0x0000000040000a38                __floatundisf = 0x40000a38
                0x0000000040000a3c                __floatunsidf = 0x40000a3c
                0x0000000040000a40                __floatunsisf = 0x40000a40
                0x0000000040000a44                __gedf2 = 0x40000a44
                0x0000000040000a48                __gesf2 = 0x40000a48
                0x0000000040000a4c                __gtdf2 = 0x40000a4c
                0x0000000040000a50                __gtsf2 = 0x40000a50
                0x0000000040000a54                __ledf2 = 0x40000a54
                0x0000000040000a58                __lesf2 = 0x40000a58
                0x0000000040000a5c                __ltdf2 = 0x40000a5c
                0x0000000040000a60                __ltsf2 = 0x40000a60
                0x0000000040000a64                __muldf3 = 0x40000a64
                0x0000000040000a68                __mulsf3 = 0x40000a68
                0x0000000040000a6c                __nedf2 = 0x40000a6c
                0x0000000040000a70                __nesf2 = 0x40000a70
                0x0000000040000a74                __subdf3 = 0x40000a74
                0x0000000040000a78                __subsf3 = 0x40000a78
                0x0000000040000a7c                __truncdfsf2 = 0x40000a7c
                0x0000000040000884                __absvdi2 = 0x40000884
                0x0000000040000888                __absvsi2 = 0x40000888
                0x0000000040000894                __addvdi3 = 0x40000894
                0x0000000040000898                __addvsi3 = 0x40000898
                0x000000004000089c                __ashldi3 = 0x4000089c
                0x00000000400008a0                __ashrdi3 = 0x400008a0
                0x00000000400008a4                __bswapdi2 = 0x400008a4
                0x00000000400008a8                __bswapsi2 = 0x400008a8
                0x00000000400008ac                __clear_cache = 0x400008ac
                0x00000000400008b0                __clrsbdi2 = 0x400008b0
                0x00000000400008b4                __clrsbsi2 = 0x400008b4
                0x00000000400008b8                __clzdi2 = 0x400008b8
                0x00000000400008bc                __clzsi2 = 0x400008bc
                0x00000000400008c0                __cmpdi2 = 0x400008c0
                0x00000000400008c4                __ctzdi2 = 0x400008c4
                0x00000000400008c8                __ctzsi2 = 0x400008c8
                0x00000000400008cc                __divdc3 = 0x400008cc
                0x00000000400008d0                __divdf3 = 0x400008d0
                0x00000000400008d4                __divdi3 = 0x400008d4
                0x00000000400008d8                __divsc3 = 0x400008d8
                0x00000000400008dc                __divsf3 = 0x400008dc
                0x00000000400008e0                __divsi3 = 0x400008e0
                0x00000000400008f0                __ffsdi2 = 0x400008f0
                0x00000000400008f4                __ffssi2 = 0x400008f4
                0x0000000040000934                __gcc_bcmp = 0x40000934
                0x0000000040000950                __lshrdi3 = 0x40000950
                0x000000004000095c                __moddi3 = 0x4000095c
                0x0000000040000960                __modsi3 = 0x40000960
                0x0000000040000964                __muldc3 = 0x40000964
                0x000000004000096c                __muldi3 = 0x4000096c
                0x0000000040000970                __mulsc3 = 0x40000970
                0x0000000040000978                __mulsi3 = 0x40000978
                0x000000004000097c                __mulvdi3 = 0x4000097c
                0x0000000040000980                __mulvsi3 = 0x40000980
                0x0000000040000988                __negdf2 = 0x40000988
                0x000000004000098c                __negdi2 = 0x4000098c
                0x0000000040000990                __negsf2 = 0x40000990
                0x0000000040000994                __negvdi2 = 0x40000994
                0x0000000040000998                __negvsi2 = 0x40000998
                0x00000000400009a0                __paritysi2 = 0x400009a0
                0x00000000400009a4                __popcountdi2 = 0x400009a4
                0x00000000400009a8                __popcountsi2 = 0x400009a8
                0x00000000400009ac                __powidf2 = 0x400009ac
                0x00000000400009b0                __powisf2 = 0x400009b0
                0x00000000400009bc                __subvdi3 = 0x400009bc
                0x00000000400009c0                __subvsi3 = 0x400009c0
                0x00000000400009c8                __ucmpdi2 = 0x400009c8
                0x00000000400009cc                __udivdi3 = 0x400009cc
                0x00000000400009d0                __udivmoddi4 = 0x400009d0
                0x00000000400009d4                __udivsi3 = 0x400009d4
                0x00000000400009d8                __udiv_w_sdiv = 0x400009d8
                0x00000000400009dc                __umoddi3 = 0x400009dc
                0x00000000400009e0                __umodsi3 = 0x400009e0
                0x00000000400009e4                __unorddf2 = 0x400009e4
                0x00000000400009e8                __unordsf2 = 0x400009e8
                0x00000000400009ec                __extenddftf2 = 0x400009ec
                0x00000000400009f0                __trunctfdf2 = 0x400009f0
                0x00000000400004a4                esp_rom_newlib_init_common_mutexes = 0x400004a4
                0x00000000400004a8                memset = 0x400004a8
                0x00000000400004ac                memcpy = 0x400004ac
                0x00000000400004b0                memmove = 0x400004b0
                0x00000000400004b4                memcmp = 0x400004b4
                0x00000000400004b8                strcpy = 0x400004b8
                0x00000000400004bc                strncpy = 0x400004bc
                0x00000000400004c0                strcmp = 0x400004c0
                0x00000000400004c4                strncmp = 0x400004c4
                0x00000000400004c8                strlen = 0x400004c8
                0x00000000400004cc                strstr = 0x400004cc
                0x00000000400004d0                bzero = 0x400004d0
                0x0000000040000380                _isatty_r = 0x400004d4
                0x00000000400004d8                sbrk = 0x400004d8
                0x00000000400004dc                isalnum = 0x400004dc
                0x00000000400004e0                isalpha = 0x400004e0
                0x00000000400004e4                isascii = 0x400004e4
                0x00000000400004e8                isblank = 0x400004e8
                0x00000000400004ec                iscntrl = 0x400004ec
                0x00000000400004f0                isdigit = 0x400004f0
                0x00000000400004f4                islower = 0x400004f4
                0x00000000400004f8                isgraph = 0x400004f8
                0x00000000400004fc                isprint = 0x400004fc
                0x0000000040000500                ispunct = 0x40000500
                0x0000000040000504                isspace = 0x40000504
                0x0000000040000508                isupper = 0x40000508
                0x000000004000050c                toupper = 0x4000050c
                0x0000000040000510                tolower = 0x40000510
                0x0000000040000514                toascii = 0x40000514
                0x0000000040000518                memccpy = 0x40000518
                0x000000004000051c                memchr = 0x4000051c
                0x0000000040000520                memrchr = 0x40000520
                0x0000000040000524                strcasecmp = 0x40000524
                0x0000000040000528                strcasestr = 0x40000528
                0x000000004000052c                strcat = 0x4000052c
                0x0000000040000530                strdup = 0x40000530
                0x0000000040000534                strchr = 0x40000534
                0x0000000040000538                strcspn = 0x40000538
                0x000000004000053c                strcoll = 0x4000053c
                0x0000000040000540                strlcat = 0x40000540
                0x0000000040000544                strlcpy = 0x40000544
                0x0000000040000548                strlwr = 0x40000548
                0x000000004000054c                strncasecmp = 0x4000054c
                0x0000000040000550                strncat = 0x40000550
                0x0000000040000554                strndup = 0x40000554
                0x0000000040000558                strnlen = 0x40000558
                0x000000004000055c                strrchr = 0x4000055c
                0x0000000040000560                strsep = 0x40000560
                0x0000000040000564                strspn = 0x40000564
                0x0000000040000568                strtok_r = 0x40000568
                0x000000004000056c                strupr = 0x4000056c
                0x0000000040000570                longjmp = 0x40000570
                0x0000000040000574                setjmp = 0x40000574
                0x0000000040000578                abs = 0x40000578
                0x000000004000057c                div = 0x4000057c
                0x0000000040000580                labs = 0x40000580
                0x0000000040000584                ldiv = 0x40000584
                0x0000000040000588                qsort = 0x40000588
                0x000000004000058c                rand_r = 0x4000058c
                0x0000000040000590                rand = 0x40000590
                0x0000000040000594                srand = 0x40000594
                0x0000000040000598                utoa = 0x40000598
                0x000000004000059c                itoa = 0x4000059c
                0x00000000400005a0                atoi = 0x400005a0
                0x00000000400005a4                atol = 0x400005a4
                0x00000000400005a8                strtol = 0x400005a8
                0x00000000400005ac                strtoul = 0x400005ac
                0x00000000400005b0                fflush = 0x400005b0
                0x00000000400005b4                _fflush_r = 0x400005b4
                0x00000000400005b8                _fwalk = 0x400005b8
                0x00000000400005bc                _fwalk_reent = 0x400005bc
                0x00000000400005c0                __smakebuf_r = 0x400005c0
                0x00000000400005c4                __swhatbuf_r = 0x400005c4
                0x00000000400005c8                __swbuf_r = 0x400005c8
                0x00000000400005cc                __swbuf = 0x400005cc
                0x00000000400005d0                __swsetup_r = 0x400005d0
                0x000000004087ffd4                syscall_table_ptr = 0x4087ffd4
                0x000000004087ffd0                _global_impure_ptr = 0x4087ffd0
                0x0000000040000010                _rom_chip_id = 0x40000010
                0x0000000040000014                _rom_eco_version = 0x40000014
                0x0000000040001104                phy_param_addr = 0x40001104
                0x0000000040001108                phy_get_romfuncs = 0x40001108
                0x000000004000110c                chip761_phyrom_version = 0x4000110c
                0x0000000040001110                chip761_phyrom_version_num = 0x40001110
                0x0000000040001114                get_rc_dout = 0x40001114
                0x0000000040001118                rc_cal = 0x40001118
                0x000000004000111c                rom_enter_critical_phy = 0x4000111c
                0x0000000040001120                rom_exit_critical_phy = 0x40001120
                0x0000000040001124                rom_set_chan_cal_interp = 0x40001124
                0x0000000040001128                rom_loopback_mode_en = 0x40001128
                0x000000004000112c                rom_bb_bss_cbw40 = 0x4000112c
                0x0000000040001130                abs_temp = 0x40001130
                0x0000000040001134                get_data_sat = 0x40001134
                0x0000000040001138                phy_byte_to_word = 0x40001138
                0x000000004000113c                set_chan_reg = 0x4000113c
                0x0000000040001140                i2c_master_reset = 0x40001140
                0x0000000040001144                rom_set_chan_freq_sw_start = 0x40001144
                0x0000000040001148                freq_module_resetn = 0x40001148
                0x000000004000114c                freq_chan_en_sw = 0x4000114c
                0x0000000040001150                write_chan_freq = 0x40001150
                0x0000000040001154                get_freq_mem_param = 0x40001154
                0x0000000040001158                get_freq_mem_addr = 0x40001158
                0x000000004000115c                bt_txpwr_freq = 0x4000115c
                0x0000000040001160                wr_rf_freq_mem = 0x40001160
                0x0000000040001164                read_rf_freq_mem = 0x40001164
                0x0000000040001168                freq_i2c_mem_write = 0x40001168
                0x000000004000116c                freq_num_get_data = 0x4000116c
                0x0000000040001170                freq_i2c_num_addr = 0x40001170
                0x0000000040001174                freq_i2c_write_set = 0x40001174
                0x0000000040001178                pll_dac_mem_update = 0x40001178
                0x000000004000117c                pll_cap_mem_update = 0x4000117c
                0x0000000040001180                get_rf_freq_cap = 0x40001180
                0x0000000040001184                get_rf_freq_init = 0x40001184
                0x0000000040001188                phy_en_hw_set_freq = 0x40001188
                0x000000004000118c                phy_dis_hw_set_freq = 0x4000118c
                0x0000000040001190                rom_pwdet_sar2_init = 0x40001190
                0x0000000040001194                rom_en_pwdet = 0x40001194
                0x0000000040001198                rom_get_sar_sig_ref = 0x40001198
                0x000000004000119c                rom_pwdet_tone_start = 0x4000119c
                0x00000000400011a0                rom_pwdet_wait_idle = 0x400011a0
                0x00000000400011a4                rom_read_sar_dout = 0x400011a4
                0x00000000400011a8                get_tone_sar_dout = 0x400011a8
                0x00000000400011ac                get_fm_sar_dout = 0x400011ac
                0x00000000400011b0                txtone_linear_pwr = 0x400011b0
                0x00000000400011b4                linear_to_db = 0x400011b4
                0x00000000400011b8                get_power_db = 0x400011b8
                0x00000000400011bc                meas_tone_pwr_db = 0x400011bc
                0x00000000400011c0                pkdet_vol_start = 0x400011c0
                0x00000000400011c4                read_sar2_code = 0x400011c4
                0x00000000400011c8                get_sar2_vol = 0x400011c8
                0x00000000400011cc                get_pll_vol = 0x400011cc
                0x00000000400011d0                tx_pwctrl_bg_init = 0x400011d0
                0x00000000400011d4                phy_pwdet_always_en = 0x400011d4
                0x00000000400011d8                phy_pwdet_onetime_en = 0x400011d8
                0x00000000400011dc                esp_tx_state_out_rom = 0x400011dc
                0x00000000400011e0                ant_dft_cfg_rom = 0x400011e0
                0x00000000400011e4                ant_wifitx_cfg_rom = 0x400011e4
                0x00000000400011e8                ant_wifirx_cfg_rom = 0x400011e8
                0x00000000400011ec                ant_bttx_cfg_rom = 0x400011ec
                0x00000000400011f0                ant_btrx_cfg_rom = 0x400011f0
                0x00000000400011f4                phy_chan_dump_cfg_rom = 0x400011f4
                0x00000000400011f8                phy_enable_low_rate = 0x400011f8
                0x00000000400011fc                phy_disable_low_rate = 0x400011fc
                0x0000000040001200                phy_is_low_rate_enabled = 0x40001200
                0x0000000040001204                phy_dig_reg_backup_rom = 0x40001204
                0x0000000040001208                phy_chan_filt_set_rom = 0x40001208
                0x000000004000120c                phy_rx11blr_cfg = 0x4000120c
                0x0000000040001210                set_cca_rom = 0x40001210
                0x0000000040001214                set_rx_sense_rom = 0x40001214
                0x0000000040001218                rx_gain_force_rom = 0x40001218
                0x000000004000121c                rom_rfpll_set_freq = 0x4000121c
                0x0000000040001220                mhz2ieee = 0x40001220
                0x0000000040001224                chan_to_freq = 0x40001224
                0x0000000040001228                restart_cal = 0x40001228
                0x000000004000122c                write_rfpll_sdm = 0x4000122c
                0x0000000040001230                wait_rfpll_cal_end = 0x40001230
                0x0000000040001234                set_rf_freq_offset = 0x40001234
                0x0000000040001238                set_rfpll_freq = 0x40001238
                0x000000004000123c                set_channel_rfpll_freq = 0x4000123c
                0x0000000040001240                rfpll_cap_correct = 0x40001240
                0x0000000040001244                rfpll_cap_init_cal = 0x40001244
                0x0000000040001248                write_pll_cap = 0x40001248
                0x000000004000124c                read_pll_cap = 0x4000124c
                0x0000000040001250                chip_v7_set_chan_ana = 0x40001250
                0x0000000040001254                freq_set_reg = 0x40001254
                0x0000000040001258                gen_rx_gain_table = 0x40001258
                0x000000004000125c                bt_txdc_cal = 0x4000125c
                0x0000000040001260                bt_txiq_cal = 0x40001260
                0x0000000040001264                txiq_cal_init = 0x40001264
                0x0000000040001268                txdc_cal_init = 0x40001268
                0x000000004000126c                txdc_cal = 0x4000126c
                0x0000000040001270                txiq_get_mis_pwr = 0x40001270
                0x0000000040001274                txiq_cover = 0x40001274
                0x0000000040001278                rfcal_txiq = 0x40001278
                0x000000004000127c                get_power_atten = 0x4000127c
                0x0000000040001280                pwdet_ref_code = 0x40001280
                0x0000000040001284                pwdet_code_cal = 0x40001284
                0x0000000040001288                rfcal_txcap = 0x40001288
                0x000000004000128c                tx_cap_init = 0x4000128c
                0x0000000040001290                rfcal_pwrctrl = 0x40001290
                0x0000000040001294                tx_pwctrl_init_cal = 0x40001294
                0x0000000040001298                tx_pwctrl_init = 0x40001298
                0x000000004000129c                bt_tx_pwctrl_init = 0x4000129c
                0x00000000400012a0                rom_i2c_enter_critical = 0x400012a0
                0x00000000400012a4                rom_i2c_exit_critical = 0x400012a4
                0x00000000400012a8                rom_get_i2c_read_mask = 0x400012a8
                0x00000000400012ac                rom_get_i2c_mst0_mask = 0x400012ac
                0x00000000400012b0                rom_get_i2c_hostid = 0x400012b0
                0x00000000400012b4                rom_chip_i2c_readReg_org = 0x400012b4
                0x00000000400012b8                rom_chip_i2c_readReg = 0x400012b8
                0x00000000400012c0                rom_chip_i2c_writeReg = 0x400012c0
                0x00000000400012d0                rom_set_txcap_reg = 0x400012d0
                0x00000000400012d4                i2c_paral_set_mst0 = 0x400012d4
                0x00000000400012d8                i2c_paral_set_read = 0x400012d8
                0x00000000400012dc                i2c_paral_read = 0x400012dc
                0x00000000400012e0                i2c_paral_write = 0x400012e0
                0x00000000400012e4                i2c_paral_write_num = 0x400012e4
                0x00000000400012e8                i2c_paral_write_mask = 0x400012e8
                0x00000000400012ec                i2c_sar2_init_code = 0x400012ec
                0x00000000400012f0                rom_pbus_force_mode = 0x400012f0
                0x00000000400012f4                rom_pbus_rd_addr = 0x400012f4
                0x00000000400012f8                rom_pbus_rd_shift = 0x400012f8
                0x00000000400012fc                rom_pbus_force_test = 0x400012fc
                0x0000000040001300                rom_pbus_rd = 0x40001300
                0x0000000040001304                rom_pbus_set_rxgain = 0x40001304
                0x0000000040001308                rom_pbus_xpd_rx_off = 0x40001308
                0x000000004000130c                rom_pbus_xpd_rx_on = 0x4000130c
                0x0000000040001310                rom_pbus_xpd_tx_off = 0x40001310
                0x0000000040001314                rom_pbus_xpd_tx_on = 0x40001314
                0x0000000040001318                rom_set_loopback_gain = 0x40001318
                0x000000004000131c                rom_txcal_debuge_mode = 0x4000131c
                0x0000000040001320                pbus_debugmode = 0x40001320
                0x0000000040001324                pbus_workmode = 0x40001324
                0x0000000040001328                pbus_set_dco = 0x40001328
                0x000000004000132c                txcal_work_mode = 0x4000132c
                0x0000000040001330                rom_start_tx_tone_step = 0x40001330
                0x0000000040001334                rom_stop_tx_tone = 0x40001334
                0x0000000040001338                disable_agc = 0x40001338
                0x000000004000133c                enable_agc = 0x4000133c
                0x0000000040001340                phy_disable_cca = 0x40001340
                0x0000000040001344                phy_enable_cca = 0x40001344
                0x0000000040001348                write_gain_mem = 0x40001348
                0x000000004000134c                bb_bss_cbw40_dig = 0x4000134c
                0x0000000040001350                cbw2040_cfg = 0x40001350
                0x0000000040001354                mac_tx_chan_offset = 0x40001354
                0x0000000040001358                tx_paon_set = 0x40001358
                0x000000004000135c                pwdet_reg_init = 0x4000135c
                0x0000000040001360                i2cmst_reg_init = 0x40001360
                0x0000000040001364                bt_gain_offset = 0x40001364
                0x0000000040001368                fe_reg_init = 0x40001368
                0x000000004000136c                mac_enable_bb = 0x4000136c
                0x0000000040001370                bb_wdg_cfg = 0x40001370
                0x0000000040001374                fe_txrx_reset = 0x40001374
                0x0000000040001378                set_rx_comp = 0x40001378
                0x000000004000137c                agc_reg_init = 0x4000137c
                0x0000000040001380                bb_reg_init = 0x40001380
                0x0000000040001384                open_i2c_xpd = 0x40001384
                0x0000000040001388                txiq_set_reg = 0x40001388
                0x000000004000138c                rxiq_set_reg = 0x4000138c
                0x0000000040001390                set_txclk_en = 0x40001390
                0x0000000040001394                set_rxclk_en = 0x40001394
                0x0000000040001398                bb_wdg_test_en = 0x40001398
                0x000000004000139c                noise_floor_auto_set = 0x4000139c
                0x00000000400013a0                read_hw_noisefloor = 0x400013a0
                0x00000000400013a4                iq_corr_enable = 0x400013a4
                0x00000000400013a8                wifi_agc_sat_gain = 0x400013a8
                0x00000000400013ac                phy_bbpll_cal = 0x400013ac
                0x00000000400013b0                phy_ant_init = 0x400013b0
                0x00000000400013b4                phy_set_bbfreq_init = 0x400013b4
                0x00000000400013b8                wifi_fbw_sel = 0x400013b8
                0x00000000400013bc                bt_filter_reg = 0x400013bc
                0x00000000400013c0                phy_rx_sense_set = 0x400013c0
                0x00000000400013c4                tx_state_set = 0x400013c4
                0x00000000400013c8                phy_close_pa = 0x400013c8
                0x00000000400013cc                phy_freq_correct = 0x400013cc
                0x00000000400013d0                set_pbus_reg = 0x400013d0
                0x00000000400013d4                wifi_rifs_mode_en = 0x400013d4
                0x00000000400013d8                nrx_freq_set = 0x400013d8
                0x00000000400013dc                fe_adc_on = 0x400013dc
                0x00000000400013e0                phy_force_pwr_index = 0x400013e0
                0x00000000400013e4                rom_iq_est_enable = 0x400013e4
                0x00000000400013e8                rom_iq_est_disable = 0x400013e8
                0x00000000400013ec                rom_bb_gain_index = 0x400013ec
                0x00000000400013f0                rom_rfrx_gain_index = 0x400013f0
                0x00000000400013f4                dc_iq_est = 0x400013f4
                0x00000000400013f8                set_cal_rxdc = 0x400013f8
                0x00000000400013fc                rxiq_get_mis = 0x400013fc
                0x0000000040001400                rxiq_cover_mg_mp = 0x40001400
                0x0000000040001404                rfcal_rxiq = 0x40001404
                0x0000000040001408                get_rfcal_rxiq_data = 0x40001408
                0x000000004000140c                get_dco_comp = 0x4000140c
                0x0000000040001410                pbus_rx_dco_cal = 0x40001410
                0x0000000040001414                rxdc_est_min = 0x40001414
                0x0000000040001418                pbus_rx_dco_cal_1step = 0x40001418
                0x000000004000141c                set_lb_txiq = 0x4000141c
                0x0000000040001420                set_rx_gain_cal_iq = 0x40001420
                0x0000000040001424                set_rx_gain_cal_dc = 0x40001424
                0x0000000040001428                spur_reg_write_one_tone = 0x40001428
                0x000000004000142c                spur_cal = 0x4000142c
                0x0000000040001430                spur_coef_cfg = 0x40001430
                0x0000000040001434                tsens_power_up = 0x40001434
                0x0000000040001438                tsens_read_init = 0x40001438
                0x000000004000143c                code_to_temp = 0x4000143c
                0x0000000040001440                tsens_index_to_dac = 0x40001440
                0x0000000040001444                tsens_index_to_offset = 0x40001444
                0x0000000040001448                tsens_dac_cal = 0x40001448
                0x000000004000144c                tsens_code_read = 0x4000144c
                0x0000000040001450                tsens_temp_read = 0x40001450
                0x0000000040001454                temp_to_power = 0x40001454
                0x0000000040001458                get_temp_init = 0x40001458
                0x000000004000145c                txbbgain_to_index = 0x4000145c
                0x0000000040001460                index_to_txbbgain = 0x40001460
                0x0000000040001464                bt_index_to_bb = 0x40001464
                0x0000000040001468                bt_bb_to_index = 0x40001468
                0x000000004000146c                bt_get_tx_gain = 0x4000146c
                0x0000000040001470                dig_gain_check = 0x40001470
                0x0000000040001474                wifi_get_tx_gain = 0x40001474
                0x0000000040001478                wifi_11g_rate_chg = 0x40001478
                0x000000004000147c                bt_chan_pwr_interp = 0x4000147c
                0x0000000040001480                get_rate_fcc_index = 0x40001480
                0x0000000040001484                get_chan_target_power = 0x40001484
                0x0000000040001488                get_tx_gain_value = 0x40001488
                0x000000004000148c                wifi_get_target_power = 0x4000148c
                0x000000004087fce8                phy_param_rom = 0x4087fce8
                0x0000000040000afc                esp_coex_rom_version_get = 0x40000afc
                0x0000000040000b00                coex_bt_release = 0x40000b00
                0x0000000040000b04                coex_bt_request = 0x40000b04
                0x0000000040000b08                coex_core_ble_conn_dyn_prio_get = 0x40000b08
                0x0000000040000b0c                coex_core_event_duration_get = 0x40000b0c
                0x0000000040000b10                coex_core_pti_get = 0x40000b10
                0x0000000040000b14                coex_core_release = 0x40000b14
                0x0000000040000b18                coex_core_request = 0x40000b18
                0x0000000040000b1c                coex_core_status_get = 0x40000b1c
                0x0000000040000b20                coex_core_timer_idx_get = 0x40000b20
                0x0000000040000b24                coex_event_duration_get = 0x40000b24
                0x0000000040000b28                coex_hw_timer_disable = 0x40000b28
                0x0000000040000b2c                coex_hw_timer_enable = 0x40000b2c
                0x0000000040000b30                coex_hw_timer_set = 0x40000b30
                0x0000000040000b34                coex_schm_interval_set = 0x40000b34
                0x0000000040000b38                coex_schm_lock = 0x40000b38
                0x0000000040000b3c                coex_schm_unlock = 0x40000b3c
                0x0000000040000b40                coex_status_get = 0x40000b40
                0x0000000040000b44                coex_wifi_release = 0x40000b44
                0x0000000040000b48                esp_coex_ble_conn_dynamic_prio_get = 0x40000b48
                0x000000004087ffc4                coex_env_ptr = 0x4087ffc4
                0x000000004087ffc0                coex_pti_tab_ptr = 0x4087ffc0
                0x000000004087ffbc                coex_schm_env_ptr = 0x4087ffbc
                0x000000004087ffb8                coexist_funcs = 0x4087ffb8
                0x000000004087ffb4                g_coa_funcs_p = 0x4087ffb4
                0x000000004087ffb0                g_coex_param_ptr = 0x4087ffb0
                0x0000000040000b4c                esp_net80211_rom_version_get = 0x40000b4c
                0x0000000040000b50                ampdu_dispatch = 0x40000b50
                0x0000000040000b54                ampdu_dispatch_all = 0x40000b54
                0x0000000040000b58                ampdu_dispatch_as_many_as_possible = 0x40000b58
                0x0000000040000b5c                ampdu_dispatch_movement = 0x40000b5c
                0x0000000040000b60                ampdu_dispatch_upto = 0x40000b60
                0x0000000040000b64                chm_is_at_home_channel = 0x40000b64
                0x0000000040000b68                cnx_node_is_existing = 0x40000b68
                0x0000000040000b6c                cnx_node_search = 0x40000b6c
                0x0000000040000b70                ic_ebuf_recycle_rx = 0x40000b70
                0x0000000040000b74                ic_ebuf_recycle_tx = 0x40000b74
                0x0000000040000b78                ic_reset_rx_ba = 0x40000b78
                0x0000000040000b7c                ieee80211_align_eb = 0x40000b7c
                0x0000000040000b80                ieee80211_ampdu_reorder = 0x40000b80
                0x0000000040000b84                ieee80211_ampdu_start_age_timer = 0x40000b84
                0x0000000040000b88                ieee80211_encap_esfbuf = 0x40000b88
                0x0000000040000b8c                ieee80211_is_tx_allowed = 0x40000b8c
                0x0000000040000b90                ieee80211_output_pending_eb = 0x40000b90
                0x0000000040000b94                ieee80211_output_process = 0x40000b94
                0x0000000040000b98                ieee80211_set_tx_desc = 0x40000b98
                0x0000000040000b9c                sta_input = 0x40000b9c
                0x0000000040000ba0                wifi_get_macaddr = 0x40000ba0
                0x0000000040000ba4                wifi_rf_phy_disable = 0x40000ba4
                0x0000000040000ba8                wifi_rf_phy_enable = 0x40000ba8
                0x0000000040000bac                ic_ebuf_alloc = 0x40000bac
                0x0000000040000bb0                ieee80211_classify = 0x40000bb0
                0x0000000040000bb4                ieee80211_copy_eb_header = 0x40000bb4
                0x0000000040000bb8                ieee80211_recycle_cache_eb = 0x40000bb8
                0x0000000040000bbc                ieee80211_search_node = 0x40000bbc
                0x0000000040000bc0                ieee80211_crypto_encap = 0x40000bc0
                0x0000000040000bc4                ieee80211_crypto_decap = 0x40000bc4
                0x0000000040000bc8                ieee80211_decap = 0x40000bc8
                0x0000000040000bcc                wifi_is_started = 0x40000bcc
                0x0000000040000bd0                ieee80211_gettid = 0x40000bd0
                0x0000000040000bd4                ieee80211_encap_esfbuf_htc = 0x40000bd4
                0x000000004087ffac                net80211_funcs = 0x4087ffac
                0x000000004087ffa8                g_scan = 0x4087ffa8
                0x000000004087ffa4                g_chm = 0x4087ffa4
                0x000000004087ffa0                g_ic_ptr = 0x4087ffa0
                0x000000004087ff9c                g_hmac_cnt_ptr = 0x4087ff9c
                0x000000004087ff98                g_tx_cacheq_ptr = 0x4087ff98
                0x000000004087ff94                s_netstack_free = 0x4087ff94
                0x000000004087ff90                mesh_rxcb = 0x4087ff90
                0x000000004087ff8c                sta_rxcb = 0x4087ff8c
                0x000000004087ff88                g_itwt_fid = 0x4087ff88
                0x000000004087ff84                esp_test_tx_addba_request = 0x4087ff84
                0x0000000040000bd8                esp_pp_rom_version_get = 0x40000bd8
                0x0000000040000bdc                ppCalTxopRTSThreshold = 0x40000bdc
                0x0000000040000be0                RC_GetBlockAckTime = 0x40000be0
                0x0000000040000be4                ebuf_list_remove = 0x40000be4
                0x0000000040000be8                esf_buf_alloc = 0x40000be8
                0x0000000040000bec                esf_buf_alloc_dynamic = 0x40000bec
                0x0000000040000bf0                esf_buf_recycle = 0x40000bf0
                0x0000000040000bf4                GetAccess = 0x40000bf4
                0x0000000040000bf8                hal_mac_is_low_rate_enabled = 0x40000bf8
                0x0000000040000bfc                hal_mac_tx_get_blockack = 0x40000bfc
                0x0000000040000c00                hal_mac_tx_set_ppdu = 0x40000c00
                0x0000000040000c04                ic_get_trc = 0x40000c04
                0x0000000040000c08                ic_mac_deinit = 0x40000c08
                0x0000000040000c0c                ic_mac_init = 0x40000c0c
                0x0000000040000c10                ic_interface_enabled = 0x40000c10
                0x0000000040000c14                is_lmac_idle = 0x40000c14
                0x0000000040000c18                lmacAdjustTimestamp = 0x40000c18
                0x0000000040000c1c                lmacDiscardAgedMSDU = 0x40000c1c
                0x0000000040000c20                lmacDiscardMSDU = 0x40000c20
                0x0000000040000c24                lmacEndFrameExchangeSequence = 0x40000c24
                0x0000000040000c28                lmacIsIdle = 0x40000c28
                0x0000000040000c2c                lmacIsLongFrame = 0x40000c2c
                0x0000000040000c30                lmacMSDUAged = 0x40000c30
                0x0000000040000c34                lmacPostTxComplete = 0x40000c34
                0x0000000040000c38                lmacProcessAllTxTimeout = 0x40000c38
                0x0000000040000c3c                lmacProcessCollisions = 0x40000c3c
                0x0000000040000c40                lmacProcessRxSucData = 0x40000c40
                0x0000000040000c44                lmacReachLongLimit = 0x40000c44
                0x0000000040000c48                lmacReachShortLimit = 0x40000c48
                0x0000000040000c4c                lmacRecycleMPDU = 0x40000c4c
                0x0000000040000c50                lmacRxDone = 0x40000c50
                0x0000000040000c54                lmacSetTxFrame = 0x40000c54
                0x0000000040000c58                lmacTxDone = 0x40000c58
                0x0000000040000c5c                lmacTxFrame = 0x40000c5c
                0x0000000040000c60                mac_tx_set_duration = 0x40000c60
                0x0000000040000c64                mac_tx_set_plcp0 = 0x40000c64
                0x0000000040000c68                mac_tx_set_plcp1 = 0x40000c68
                0x0000000040000c6c                mac_tx_set_plcp2 = 0x40000c6c
                0x0000000040000c70                pm_check_state = 0x40000c70
                0x0000000040000c74                pm_disable_dream_timer = 0x40000c74
                0x0000000040000c78                pm_disable_sleep_delay_timer = 0x40000c78
                0x0000000040000c7c                pm_dream = 0x40000c7c
                0x0000000040000c80                pm_mac_wakeup = 0x40000c80
                0x0000000040000c84                pm_mac_sleep = 0x40000c84
                0x0000000040000c88                pm_enable_active_timer = 0x40000c88
                0x0000000040000c8c                pm_enable_sleep_delay_timer = 0x40000c8c
                0x0000000040000c90                pm_local_tsf_process = 0x40000c90
                0x0000000040000c94                pm_set_beacon_filter = 0x40000c94
                0x0000000040000c98                pm_is_in_wifi_slice_threshold = 0x40000c98
                0x0000000040000c9c                pm_is_waked = 0x40000c9c
                0x0000000040000ca0                pm_keep_alive = 0x40000ca0
                0x0000000040000ca4                pm_on_beacon_rx = 0x40000ca4
                0x0000000040000ca8                pm_on_data_rx = 0x40000ca8
                0x0000000040000cac                pm_on_tbtt = 0x40000cac
                0x0000000040000cb0                pm_parse_beacon = 0x40000cb0
                0x0000000040000cb4                pm_process_tim = 0x40000cb4
                0x0000000040000cb8                pm_rx_beacon_process = 0x40000cb8
                0x0000000040000cbc                pm_rx_data_process = 0x40000cbc
                0x0000000040000cc0                pm_sleep = 0x40000cc0
                0x0000000040000cc4                pm_sleep_for = 0x40000cc4
                0x0000000040000cc8                pm_tbtt_process = 0x40000cc8
                0x0000000040000ccc                ppAMPDU2Normal = 0x40000ccc
                0x0000000040000cd0                ppAssembleAMPDU = 0x40000cd0
                0x0000000040000cd4                ppCalFrameTimes = 0x40000cd4
                0x0000000040000cd8                ppCalSubFrameLength = 0x40000cd8
                0x0000000040000cdc                ppCalTxAMPDULength = 0x40000cdc
                0x0000000040000ce0                ppCheckTxAMPDUlength = 0x40000ce0
                0x0000000040000ce4                ppDequeueRxq_Locked = 0x40000ce4
                0x0000000040000ce8                ppDequeueTxQ = 0x40000ce8
                0x0000000040000cec                ppEmptyDelimiterLength = 0x40000cec
                0x0000000040000cf0                ppEnqueueRxq = 0x40000cf0
                0x0000000040000cf4                ppEnqueueTxDone = 0x40000cf4
                0x0000000040000cf8                ppGetTxframe = 0x40000cf8
                0x0000000040000cfc                ppMapTxQueue = 0x40000cfc
                0x0000000040000d00                ppProcTxSecFrame = 0x40000d00
                0x0000000040000d04                ppProcessRxPktHdr = 0x40000d04
                0x0000000040000d08                ppProcessTxQ = 0x40000d08
                0x0000000040000d0c                ppRecordBarRRC = 0x40000d0c
                0x0000000040000d10                ppRecycleAmpdu = 0x40000d10
                0x0000000040000d14                ppRecycleRxPkt = 0x40000d14
                0x0000000040000d18                ppResortTxAMPDU = 0x40000d18
                0x0000000040000d1c                ppResumeTxAMPDU = 0x40000d1c
                0x0000000040000d20                ppRxFragmentProc = 0x40000d20
                0x0000000040000d24                ppRxPkt = 0x40000d24
                0x0000000040000d28                ppRxProtoProc = 0x40000d28
                0x0000000040000d2c                ppSearchTxQueue = 0x40000d2c
                0x0000000040000d30                ppSearchTxframe = 0x40000d30
                0x0000000040000d34                ppSelectNextQueue = 0x40000d34
                0x0000000040000d38                ppSubFromAMPDU = 0x40000d38
                0x0000000040000d3c                ppTask = 0x40000d3c
                0x0000000040000d40                ppTxPkt = 0x40000d40
                0x0000000040000d44                ppTxProtoProc = 0x40000d44
                0x0000000040000d48                ppTxqUpdateBitmap = 0x40000d48
                0x0000000040000d4c                pp_coex_tx_request = 0x40000d4c
                0x0000000040000d50                pp_hdrsize = 0x40000d50
                0x0000000040000d54                pp_post = 0x40000d54
                0x0000000040000d58                pp_process_hmac_waiting_txq = 0x40000d58
                0x0000000040000d5c                rcGetAmpduSched = 0x40000d5c
                0x0000000040000d60                rcUpdateRxDone = 0x40000d60
                0x0000000040000d64                rc_get_trc = 0x40000d64
                0x0000000040000d68                rc_get_trc_by_index = 0x40000d68
                0x0000000040000d6c                rcAmpduLowerRate = 0x40000d6c
                0x0000000040000d70                rcampduuprate = 0x40000d70
                0x0000000040000d74                rcClearCurAMPDUSched = 0x40000d74
                0x0000000040000d78                rcClearCurSched = 0x40000d78
                0x0000000040000d7c                rcClearCurStat = 0x40000d7c
                0x0000000040000d80                rcGetSched = 0x40000d80
                0x0000000040000d84                rcLowerSched = 0x40000d84
                0x0000000040000d88                rcSetTxAmpduLimit = 0x40000d88
                0x0000000040000d8c                rcTxUpdatePer = 0x40000d8c
                0x0000000040000d90                rcUpdateAckSnr = 0x40000d90
                0x0000000040000d94                rcUpdateRate = 0x40000d94
                0x0000000040000d98                rcUpdateTxDone = 0x40000d98
                0x0000000040000d9c                rcUpdateTxDoneAmpdu2 = 0x40000d9c
                0x0000000040000da0                rcUpSched = 0x40000da0
                0x0000000040000da4                rssi_margin = 0x40000da4
                0x0000000040000da8                rx11NRate2AMPDULimit = 0x40000da8
                0x0000000040000dac                TRC_AMPDU_PER_DOWN_THRESHOLD = 0x40000dac
                0x0000000040000db0                TRC_AMPDU_PER_UP_THRESHOLD = 0x40000db0
                0x0000000040000db4                trc_calc_duration = 0x40000db4
                0x0000000040000db8                trc_isTxAmpduOperational = 0x40000db8
                0x0000000040000dbc                trc_onAmpduOp = 0x40000dbc
                0x0000000040000dc0                TRC_PER_IS_GOOD = 0x40000dc0
                0x0000000040000dc4                trc_SetTxAmpduState = 0x40000dc4
                0x0000000040000dc8                trc_tid_isTxAmpduOperational = 0x40000dc8
                0x0000000040000dcc                trcAmpduSetState = 0x40000dcc
                0x0000000040000dd0                wDevCheckBlockError = 0x40000dd0
                0x0000000040000dd4                wDev_AppendRxBlocks = 0x40000dd4
                0x0000000040000dd8                wDev_DiscardFrame = 0x40000dd8
                0x0000000040000ddc                wDev_GetNoiseFloor = 0x40000ddc
                0x0000000040000de0                wDev_IndicateAmpdu = 0x40000de0
                0x0000000040000de4                wDev_IndicateFrame = 0x40000de4
                0x0000000040000de8                wdev_mac_reg_load = 0x40000de8
                0x0000000040000dec                wdev_mac_reg_store = 0x40000dec
                0x0000000040000df0                wdev_mac_special_reg_load = 0x40000df0
                0x0000000040000df4                wdev_mac_special_reg_store = 0x40000df4
                0x0000000040000df8                wdev_mac_wakeup = 0x40000df8
                0x0000000040000dfc                wdev_mac_sleep = 0x40000dfc
                0x0000000040000e00                hal_mac_is_dma_enable = 0x40000e00
                0x0000000040000e04                wDev_ProcessFiq = 0x40000e04
                0x0000000040000e08                wDev_ProcessRxSucData = 0x40000e08
                0x0000000040000e0c                wdevProcessRxSucDataAll = 0x40000e0c
                0x0000000040000e10                wdev_csi_len_align = 0x40000e10
                0x0000000040000e14                ppDequeueTxDone_Locked = 0x40000e14
                0x0000000040000e18                ppProcTxDone = 0x40000e18
                0x0000000040000e1c                pm_tx_data_done_process = 0x40000e1c
                0x0000000040000e20                config_is_cache_tx_buf_enabled = 0x40000e20
                0x0000000040000e24                ppMapWaitTxq = 0x40000e24
                0x0000000040000e28                ppProcessWaitingQueue = 0x40000e28
                0x0000000040000e2c                ppDisableQueue = 0x40000e2c
                0x0000000040000e30                pm_allow_tx = 0x40000e30
                0x0000000040000e34                wdev_is_data_in_rxlist = 0x40000e34
                0x0000000040000e38                ppProcTxCallback = 0x40000e38
                0x0000000040000e3c                mac_tx_set_hesig = 0x40000e3c
                0x0000000040000e40                ppCalPreFecPaddingFactor = 0x40000e40
                0x0000000040000e44                mac_tx_set_tb = 0x40000e44
                0x0000000040000e48                mac_tx_set_mplen = 0x40000e48
                0x0000000040000e4c                hal_get_tsf_timer = 0x40000e4c
                0x0000000040000e50                ppTxPktForceWaked = 0x40000e50
                0x0000000040000e54                lmacProcessLongFrameSuccess = 0x40000e54
                0x0000000040000e58                lmacProcessShortFrameSuccess = 0x40000e58
                0x0000000040000e5c                lmacDiscardFrameExchangeSequence = 0x40000e5c
                0x0000000040000e60                lmacProcessTBSuccess = 0x40000e60
                0x0000000040000e64                lmacProcessTxSuccess = 0x40000e64
                0x0000000040000e68                lmacProcessAckTimeout = 0x40000e68
                0x0000000040000e6c                lmacProcessTxComplete = 0x40000e6c
                0x0000000040000e70                ppRemoveHTC = 0x40000e70
                0x0000000040000e74                get_estimated_batime = 0x40000e74
                0x0000000040000e78                is_use_muedca = 0x40000e78
                0x0000000040000e7c                hal_mac_tx_clr_mplen = 0x40000e7c
                0x0000000040000e80                hal_mac_get_txq_state = 0x40000e80
                0x0000000040000e84                hal_mac_clr_txq_state = 0x40000e84
                0x0000000040000e88                hal_mac_get_txq_complete = 0x40000e88
                0x0000000040000e8c                ht_get_min_subframe_len = 0x40000e8c
                0x0000000040000e90                rx11ACRate2AMPDULimit = 0x40000e90
                0x0000000040000e94                pwr_hal_clear_intr_status = 0x40000e94
                0x0000000040000e98                pwr_hal_clear_mac_modem_beacon_miss_intr_filter = 0x40000e98
                0x0000000040000e9c                pwr_hal_clear_mac_modem_rx_beacon_info = 0x40000e9c
                0x0000000040000ea0                pwr_hal_clear_mac_modem_rx_beacon_miss_counter = 0x40000ea0
                0x0000000040000ea4                pwr_hal_clear_mac_modem_rx_beacon_sleep_counter = 0x40000ea4
                0x0000000040000ea8                pwr_hal_clear_mac_modem_state_wakeup_protect_signal = 0x40000ea8
                0x0000000040000eac                pwr_hal_get_intr_raw_signal = 0x40000eac
                0x0000000040000eb0                pwr_hal_get_intr_status = 0x40000eb0
                0x0000000040000eb4                pwr_hal_get_mac_modem_beacon_miss_limit_exceeded_status = 0x40000eb4
                0x0000000040000eb8                pwr_hal_get_mac_modem_rx_beacon_location_state = 0x40000eb8
                0x0000000040000ebc                pwr_hal_get_mac_modem_rx_beacon_valid_state = 0x40000ebc
                0x0000000040000ec0                pwr_hal_get_mac_modem_state_sleep_limit_exceeded_status = 0x40000ec0
                0x0000000040000ec4                pwr_hal_set_beacon_filter_abort_disable = 0x40000ec4
                0x0000000040000ec8                pwr_hal_set_beacon_filter_abort_enable = 0x40000ec8
                0x0000000040000ecc                pwr_hal_set_beacon_filter_abort_length = 0x40000ecc
                0x0000000040000ed0                pwr_hal_set_beacon_filter_broadcast_wakeup_disable = 0x40000ed0
                0x0000000040000ed4                pwr_hal_set_beacon_filter_broadcast_wakeup_enable = 0x40000ed4
                0x0000000040000ed8                pwr_hal_set_beacon_filter_disable = 0x40000ed8
                0x0000000040000edc                pwr_hal_set_beacon_filter_enable = 0x40000edc
                0x0000000040000ee0                pwr_hal_set_beacon_filter_force_dump_disable = 0x40000ee0
                0x0000000040000ee4                pwr_hal_set_beacon_filter_force_dump_enable = 0x40000ee4
                0x0000000040000ee8                pwr_hal_set_beacon_filter_force_dump_limit = 0x40000ee8
                0x0000000040000eec                pwr_hal_set_beacon_filter_force_sync_disable = 0x40000eec
                0x0000000040000ef0                pwr_hal_set_beacon_filter_force_sync_enable = 0x40000ef0
                0x0000000040000ef4                pwr_hal_set_beacon_filter_force_sync_limit = 0x40000ef4
                0x0000000040000ef8                pwr_hal_set_beacon_filter_frame_crc_state = 0x40000ef8
                0x0000000040000efc                pwr_hal_set_beacon_filter_soc_wakeup_and_intr_disable = 0x40000efc
                0x0000000040000f00                pwr_hal_set_beacon_filter_soc_wakeup_and_intr_enable = 0x40000f00
                0x0000000040000f04                pwr_hal_set_beacon_filter_unicast_wakeup_disable = 0x40000f04
                0x0000000040000f08                pwr_hal_set_beacon_filter_unicast_wakeup_enable = 0x40000f08
                0x0000000040000f0c                pwr_hal_set_lpclk_cycle_time = 0x40000f0c
                0x0000000040000f10                pwr_hal_set_lpclk_sync_disable = 0x40000f10
                0x0000000040000f14                pwr_hal_set_lpclk_sync_enable = 0x40000f14
                0x0000000040000f18                pwr_hal_set_mac_modem_beacon_miss_intr_disable = 0x40000f18
                0x0000000040000f1c                pwr_hal_set_mac_modem_beacon_miss_intr_enable = 0x40000f1c
                0x0000000040000f20                pwr_hal_set_mac_modem_beacon_miss_limit = 0x40000f20
                0x0000000040000f24                pwr_hal_set_mac_modem_beacon_miss_limit_exceeded_wakeup_disable = 0x40000f24
                0x0000000040000f28                pwr_hal_set_mac_modem_beacon_miss_limit_exceeded_wakeup_enable = 0x40000f28
                0x0000000040000f2c                pwr_hal_set_mac_modem_beacon_miss_timeout = 0x40000f2c
                0x0000000040000f30                pwr_hal_set_mac_modem_state_sleep_limit = 0x40000f30
                0x0000000040000f34                pwr_hal_set_mac_modem_state_sleep_limit_exceeded_wakeup_disable = 0x40000f34
                0x0000000040000f38                pwr_hal_set_mac_modem_state_sleep_limit_exceeded_wakeup_enable = 0x40000f38
                0x0000000040000f3c                pwr_hal_set_mac_modem_state_wakeup_protect_disable = 0x40000f3c
                0x0000000040000f40                pwr_hal_set_mac_modem_state_wakeup_protect_early_time = 0x40000f40
                0x0000000040000f44                pwr_hal_set_mac_modem_state_wakeup_protect_enable = 0x40000f44
                0x0000000040000f48                pwr_hal_set_mac_modem_tbtt_auto_period_disable = 0x40000f48
                0x0000000040000f4c                pwr_hal_set_mac_modem_tbtt_auto_period_enable = 0x40000f4c
                0x0000000040000f50                pwr_hal_set_mac_modem_tbtt_auto_period_interval = 0x40000f50
                0x0000000040000f54                pwr_hal_set_modem_state_interface = 0x40000f54
                0x0000000040000f58                hal_tsf_clear_soc_wakeup_request = 0x40000f58
                0x0000000040000f5c                tsf_hal_clear_mac_modem_rf_power_state = 0x40000f5c
                0x0000000040000f60                tsf_hal_clear_soc_wakeup_request = 0x40000f60
                0x0000000040000f64                tsf_hal_get_counter_value = 0x40000f64
                0x0000000040000f68                tsf_hal_get_mac_modem_rf_power_state = 0x40000f68
                0x0000000040000f6c                tsf_hal_get_tbtt_interval = 0x40000f6c
                0x0000000040000f70                tsf_hal_get_time = 0x40000f70
                0x0000000040000f74                tsf_hal_get_timer_target = 0x40000f74
                0x0000000040000f78                tsf_hal_is_tsf_enabled = 0x40000f78
                0x0000000040000f7c                tsf_hal_map_tbtt_target_to_rx_frame = 0x40000f7c
                0x0000000040000f80                tsf_hal_map_tsf_to_bssid = 0x40000f80
                0x0000000040000f84                tsf_hal_set_counter_value = 0x40000f84
                0x0000000040000f88                tsf_hal_set_modem_wakeup_early_time = 0x40000f88
                0x0000000040000f8c                tsf_hal_set_rx_beacon_abort_tsf_time_deviation_sync_disable = 0x40000f8c
                0x0000000040000f90                tsf_hal_set_rx_beacon_abort_tsf_time_deviation_sync_enable = 0x40000f90
                0x0000000040000f94                tsf_hal_set_rx_beacon_fail_tsf_time_deviation_sync_disable = 0x40000f94
                0x0000000040000f98                tsf_hal_set_rx_beacon_fail_tsf_time_deviation_sync_enable = 0x40000f98
                0x0000000040000f9c                tsf_hal_set_rx_beacon_success_tsf_time_deviation_sync_disable = 0x40000f9c
                0x0000000040000fa0                tsf_hal_set_rx_beacon_success_tsf_time_deviation_sync_enable = 0x40000fa0
                0x0000000040000fa4                tsf_hal_set_tbtt_disable = 0x40000fa4
                0x0000000040000fa8                tsf_hal_set_tbtt_early_time = 0x40000fa8
                0x0000000040000fac                tsf_hal_set_tbtt_enable = 0x40000fac
                0x0000000040000fb0                tsf_hal_set_tbtt_interval = 0x40000fb0
                0x0000000040000fb4                tsf_hal_set_tbtt_intr_disable = 0x40000fb4
                0x0000000040000fb8                tsf_hal_set_tbtt_intr_enable = 0x40000fb8
                0x0000000040000fbc                tsf_hal_set_tbtt_modem_wakeup_disable = 0x40000fbc
                0x0000000040000fc0                tsf_hal_set_tbtt_modem_wakeup_enable = 0x40000fc0
                0x0000000040000fc4                tsf_hal_set_tbtt_rf_ctrl_disable = 0x40000fc4
                0x0000000040000fc8                tsf_hal_set_tbtt_rf_ctrl_enable = 0x40000fc8
                0x0000000040000fcc                tsf_hal_set_tbtt_rf_ctrl_wait_cycles = 0x40000fcc
                0x0000000040000fd0                tsf_hal_set_tbtt_soc_wakeup_disable = 0x40000fd0
                0x0000000040000fd4                tsf_hal_set_tbtt_soc_wakeup_enable = 0x40000fd4
                0x0000000040000fd8                tsf_hal_set_tbtt_start_time = 0x40000fd8
                0x0000000040000fdc                tsf_hal_set_time = 0x40000fdc
                0x0000000040000fe0                tsf_hal_set_timer_disable = 0x40000fe0
                0x0000000040000fe4                tsf_hal_set_timer_enable = 0x40000fe4
                0x0000000040000fe8                tsf_hal_set_timer_intr_disable = 0x40000fe8
                0x0000000040000fec                tsf_hal_set_timer_intr_enable = 0x40000fec
                0x0000000040000ff0                tsf_hal_set_timer_modem_wakeup_disable = 0x40000ff0
                0x0000000040000ff4                tsf_hal_set_timer_modem_wakeup_enable = 0x40000ff4
                0x0000000040000ff8                tsf_hal_set_timer_rf_ctrl_disable = 0x40000ff8
                0x0000000040000ffc                tsf_hal_set_timer_rf_ctrl_enable = 0x40000ffc
                0x0000000040001000                tsf_hal_set_timer_rf_ctrl_wait_cycles = 0x40001000
                0x0000000040001004                tsf_hal_set_timer_soc_wakeup_disable = 0x40001004
                0x0000000040001008                tsf_hal_set_timer_soc_wakeup_enable = 0x40001008
                0x000000004000100c                tsf_hal_set_timer_target = 0x4000100c
                0x0000000040001010                tsf_hal_set_tsf_disable = 0x40001010
                0x0000000040001014                tsf_hal_set_tsf_enable = 0x40001014
                0x0000000040001018                tsf_hal_set_tsf_time_deviation = 0x40001018
                0x000000004000101c                tsf_hal_set_tsf_time_deviation_sync_disable = 0x4000101c
                0x0000000040001020                tsf_hal_set_tsf_time_deviation_sync_enable = 0x40001020
                0x0000000040001024                tsf_hal_unmap_tbtt_target_to_rx_frame = 0x40001024
                0x0000000040001028                ppSelectTxFormat = 0x40001028
                0x000000004000102c                ppCertSetRate = 0x4000102c
                0x0000000040001030                ppHEAMPDU2Normal = 0x40001030
                0x0000000040001034                ppCalTxHEAMPDULength = 0x40001034
                0x0000000040001038                ppCalTxHESMPDULength = 0x40001038
                0x000000004000103c                rcGetRate = 0x4000103c
                0x0000000040001040                rcGetDCMMaxRate = 0x40001040
                0x0000000040001044                rcGetSMPDURate = 0x40001044
                0x0000000040001048                ppDirectRecycleAmpdu = 0x40001048
                0x000000004000104c                ppCheckTxHEAMPDUlength = 0x4000104c
                0x0000000040001050                rx11AXRate2AMPDULimit = 0x40001050
                0x0000000040001054                ppRegressAmpdu = 0x40001054
                0x0000000040001058                ppCalDeliNum = 0x40001058
                0x000000004000105c                ppAdd2AMPDUTail = 0x4000105c
                0x0000000040001060                esp_test_disable_tx_statistics = 0x40001060
                0x0000000040001064                esp_test_enable_tx_statistics = 0x40001064
                0x0000000040001068                esp_test_clr_tx_statistics = 0x40001068
                0x000000004000106c                esp_test_get_tx_statistics = 0x4000106c
                0x0000000040001070                esp_test_clr_tx_tb_statistics = 0x40001070
                0x0000000040001074                esp_test_get_tx_tb_statistics = 0x40001074
                0x0000000040001078                test_tx_fail_statistics = 0x40001078
                0x000000004000107c                test_tx_succ_statistics = 0x4000107c
                0x0000000040001080                esp_test_tx_process_complete = 0x40001080
                0x0000000040001084                esp_test_tx_process_txq_state = 0x40001084
                0x0000000040001088                esp_test_tx_enab_statistics = 0x40001088
                0x000000004000108c                esp_test_tx_tb_complete = 0x4000108c
                0x0000000040001090                esp_test_tx_count_retry = 0x40001090
                0x0000000040001094                esp_test_tx_count_collision = 0x40001094
                0x0000000040001098                esp_test_tx_count_timeout = 0x40001098
                0x000000004000109c                hal_enable_tx_statistics = 0x4000109c
                0x00000000400010a0                test_rx_process_complete_noeb = 0x400010a0
                0x00000000400010a4                test_rx_process_complete_retry = 0x400010a4
                0x00000000400010a8                esp_test_rx_process_complete = 0x400010a8
                0x00000000400010ac                esp_test_clr_rx_statistics = 0x400010ac
                0x00000000400010b0                esp_test_get_rx_statistics = 0x400010b0
                0x00000000400010b4                test_free_rx_statistics = 0x400010b4
                0x00000000400010b8                esp_test_set_rx_error_occurs = 0x400010b8
                0x00000000400010bc                esp_test_get_rx_error_occurs = 0x400010bc
                0x00000000400010c0                esp_test_clr_rx_error_occurs = 0x400010c0
                0x00000000400010c4                esp_test_disable_rx_statistics = 0x400010c4
                0x00000000400010c8                esp_test_enable_rx_statistics = 0x400010c8
                0x00000000400010cc                hal_enable_rx_statistics = 0x400010cc
                0x00000000400010d0                get_user_num = 0x400010d0
                0x00000000400010d4                mumimo_spatial_cfg_get_nsts = 0x400010d4
                0x00000000400010d8                mumimo_spatial_cfg_get_nsts_tot = 0x400010d8
                0x00000000400010dc                test_mumimo_get_heltf_num = 0x400010dc
                0x00000000400010e0                test_mimo_update_user_info = 0x400010e0
                0x00000000400010e4                test_parse_rx_mu_mimo = 0x400010e4
                0x00000000400010e8                test_nonmimo_update_user_info = 0x400010e8
                0x00000000400010ec                test_parse_rx_mu_nonmimo = 0x400010ec
                0x00000000400010f0                esp_test_rx_parse_mu = 0x400010f0
                0x00000000400010f4                esp_test_get_rx_mu_statistics = 0x400010f4
                0x00000000400010f8                esp_test_clr_rx_mu_statistics = 0x400010f8
                0x00000000400010fc                esp_test_enable_rx_mu_statistics = 0x400010fc
                0x0000000040001100                esp_test_disable_rx_mu_statistics = 0x40001100
                0x000000004004ffe0                our_instances_ptr = 0x4004ffe0
                0x000000004087ff80                pTxRx = 0x4087ff80
                0x000000004087ff7c                lmacConfMib_ptr = 0x4087ff7c
                0x000000004087ff78                our_wait_eb = 0x4087ff78
                0x000000004087ff74                our_tx_eb = 0x4087ff74
                0x000000004087ff70                pp_wdev_funcs = 0x4087ff70
                0x000000004087ff6c                g_osi_funcs_p = 0x4087ff6c
                0x000000004087ff68                wDevCtrl_ptr = 0x4087ff68
                0x000000004004ffdc                g_wdev_last_desc_reset_ptr = 0x4004ffdc
                0x000000004087ff64                wDevMacSleep_ptr = 0x4087ff64
                0x000000004087ff60                g_lmac_cnt_ptr = 0x4087ff60
                0x000000004004ffd8                our_controls_ptr = 0x4004ffd8
                0x000000004087ff5c                pp_sig_cnt_ptr = 0x4087ff5c
                0x000000004087ff58                g_eb_list_desc_ptr = 0x4087ff58
                0x000000004087ff54                s_fragment_ptr = 0x4087ff54
                0x000000004087ff50                if_ctrl_ptr = 0x4087ff50
                0x000000004087ff4c                g_intr_lock_mux = 0x4087ff4c
                0x000000004087ff48                g_wifi_global_lock = 0x4087ff48
                0x000000004087ff44                s_wifi_queue = 0x4087ff44
                0x000000004087ff40                pp_task_hdl = 0x4087ff40
                0x000000004087ff3c                s_pp_task_create_sem = 0x4087ff3c
                0x000000004087ff38                s_pp_task_del_sem = 0x4087ff38
                0x000000004087ff34                g_wifi_menuconfig_ptr = 0x4087ff34
                0x000000004087ff30                xphyQueue = 0x4087ff30
                0x000000004087ff2c                ap_no_lr_ptr = 0x4087ff2c
                0x000000004087ff28                rc11BSchedTbl_ptr = 0x4087ff28
                0x000000004087ff24                rc11NSchedTbl_ptr = 0x4087ff24
                0x000000004087ff20                rcLoRaSchedTbl_ptr = 0x4087ff20
                0x000000004087ff1c                BasicOFDMSched_ptr = 0x4087ff1c
                0x000000004087ff18                trc_ctl_ptr = 0x4087ff18
                0x000000004087ff14                g_pm_cnt_ptr = 0x4087ff14
                0x000000004087ff10                g_pm_ptr = 0x4087ff10
                0x000000004087ff0c                g_pm_cfg_ptr = 0x4087ff0c
                0x000000004087ff08                g_esp_mesh_quick_funcs_ptr = 0x4087ff08
                0x000000004087ff04                g_txop_queue_status_ptr = 0x4087ff04
                0x000000004087ff00                g_mac_sleep_en_ptr = 0x4087ff00
                0x000000004087fefc                g_mesh_is_root_ptr = 0x4087fefc
                0x000000004087fef8                g_mesh_topology_ptr = 0x4087fef8
                0x000000004087fef4                g_mesh_init_ps_type_ptr = 0x4087fef4
                0x000000004087fef0                g_mesh_is_started_ptr = 0x4087fef0
                0x000000004087feec                g_config_func = 0x4087feec
                0x000000004087fee8                g_net80211_tx_func = 0x4087fee8
                0x000000004087fee4                g_timer_func = 0x4087fee4
                0x000000004087fee0                s_michael_mic_failure_cb = 0x4087fee0
                0x000000004087fedc                wifi_sta_rx_probe_req = 0x4087fedc
                0x000000004087fed8                g_tx_done_cb_func = 0x4087fed8
                0x000000004087fe8c                g_per_conn_trc = 0x4087fe8c
                0x000000004087fe88                s_encap_amsdu_func = 0x4087fe88
                0x000000004087fe84                rx_beacon_count = 0x4087fe84
                0x000000004087fe80                rx_beacon_sw_parse = 0x4087fe80
                0x000000004087fe7c                rx_beacon_hw_parse = 0x4087fe7c
                0x000000004087fe78                rx_beacon_tim_count = 0x4087fe78
                0x000000004087fe74                rx_beacon_tim_udata = 0x4087fe74
                0x000000004087fe70                rx_beacon_tim_udata_bitmap = 0x4087fe70
                0x000000004087fe6c                rx_beacon_tim_bdata = 0x4087fe6c
                0x000000004087fe68                rx_beacon_tim_bdata_bitmapctl = 0x4087fe68
                0x000000004087fe64                rx_beacon_tim_bdata_bitmap_trans = 0x4087fe64
                0x000000004087fe60                rx_beacon_tim_bdata_bitmap_mbssid_self = 0x4087fe60
                0x000000004087fe5c                rx_beacon_tim_bdata_bitmap_mbssid_other = 0x4087fe5c
                0x000000004087fe58                rx_beacon_dtim_tim = 0x4087fe58
                0x000000004087fe54                rx_beacon_dtim_tim_mcast = 0x4087fe54
                0x000000004087fd08                amdpu_delay_time_ms = 0x4087fd08
                0x000000004087fd04                ampdu_delay_packet = 0x4087fd04
                0x000000004087fe51                ampdu_delay = 0x4087fe51
                0x000000004087fe50                first_ampdu = 0x4087fe50
                0x000000004087fd02                s_ht_ampdu_density_us = 0x4087fd02
                0x000000004087fd01                s_ht_ampdu_density = 0x4087fd01
                0x000000004087fd00                s_running_phy_type = 0x4087fd00
                0x000000004087fe4c                complete_ena_tb_seqno = 0x4087fe4c
                0x000000004087fe48                complete_ena_tb_final = 0x4087fe48
                0x000000004087fe44                complete_ena_tb_count = 0x4087fe44
                0x000000004087fe40                s_itwt_state = 0x4087fe40
                0x000000004087fe3c                g_dbg_interp_tsf = 0x4087fe3c
                0x000000004087fe38                g_dbg_interp_tsf_end = 0x4087fe38
                0x000000004087fe34                g_dbg_closrf_tsf = 0x4087fe34
                0x000000004087fe30                g_dbg_closrf_idx = 0x4087fe30
                0x000000004087fe2c                g_dbg_closrf_blk = 0x4087fe2c
                0x000000004087fdf0                s_he_min_len_bytes = 0x4087fdf0
                0x000000004087fdd0                s_he_dcm_min_len_bytes = 0x4087fdd0
                0x000000004087fdc0                s_mplen_low_bitmap = 0x4087fdc0
                0x000000004087fdb0                s_mplen_high_bitmap = 0x4087fdb0
                0x000000004087fdac                s_mplen_vi_bitmap = 0x4087fdac
                0x000000004087fda8                s_mplen_bk_bitmap = 0x4087fda8
                0x000000004087fcfc                esp_wifi_cert_tx_mcs = 0x4087fcfc
                0x000000004087fcf8                esp_wifi_cert_tx_bcc = 0x4087fcf8
                0x000000004087fcf4                esp_wifi_cert_tx_ltf = 0x4087fcf4
                0x000000004087fcf0                esp_wifi_cert_tx_gi = 0x4087fcf0
                0x000000004087fcec                esp_wifi_cert_tx_nss = 0x4087fcec
                0x000000004087fda4                esp_test_tx_statistics_aci_bitmap = 0x4087fda4
                0x000000004087fd94                esp_test_tx_statistics = 0x4087fd94
                0x000000004087fd84                esp_test_tx_tb_statistics = 0x4087fd84
                0x000000004087fd24                esp_test_tx_fail_statistics = 0x4087fd24
                0x000000004087fd1c                esp_test_rx_statistics = 0x4087fd1c
                0x000000004087fd18                esp_test_rx_mu_statistics = 0x4087fd18
                0x000000004087fd14                esp_test_mu_print_ru_allocation = 0x4087fd14
                0x000000004004ffc8                sigb_ru_allocation_user_num = 0x4004ffc8
                0x000000004004ff38                sigb_common_ru_allocation = 0x4004ff38
                0x000000004004fee8                mu_mimo_special_cfg_user_num_2 = 0x4004fee8
                0x000000004004fe80                mu_mimo_special_cfg_user_num_3 = 0x4004fe80
                0x000000004004fe28                mu_mimo_special_cfg_user_num_4 = 0x4004fe28
                0x000000004004fdf0                mu_mimo_special_cfg_user_num_5 = 0x4004fdf0
                0x000000004004fdd0                mu_mimo_special_cfg_user_num_6 = 0x4004fdd0
                0x000000004004fdc0                mu_mimo_special_cfg_user_num_7 = 0x4004fdc0
                0x000000004004fdb8                mu_mimo_special_cfg_user_num_8 = 0x4004fdb8
                0x000000004087fd10                esp_test_rx_error_occurs = 0x4087fd10
                0x000000004087fd0c                g_pp_tx_pkt_num = 0x4087fd0c
                0x000000004004fd40                he_max_apep_length = 0x4004fd40
                0x0000000040000380                _isatty_r = 0x40000380
                [!provide]                        PROVIDE (__smakebuf_r = 0x4000046c)
                [!provide]                        PROVIDE (__swhatbuf_r = 0x40000470)
                [!provide]                        PROVIDE (__swsetup_r = 0x4000047c)
                0x00000000400005d4                __sprint_r = 0x400005d4
                0x00000000400005d8                _fiprintf_r = 0x400005d8
                0x00000000400005dc                _fprintf_r = 0x400005dc
                0x00000000400005e0                _vfiprintf_r = 0x400005e0
                0x00000000400005e4                _vfprintf_r = 0x400005e4
                0x00000000400005e8                fiprintf = 0x400005e8
                0x00000000400005ec                fprintf = 0x400005ec
                0x00000000400005f0                printf = 0x400005f0
                0x00000000400005f4                vfiprintf = 0x400005f4
                0x00000000400005f8                vfprintf = 0x400005f8
                0x00000000400005fc                asprintf = 0x400005fc
                0x0000000040000600                sprintf = 0x40000600
                0x0000000040000604                snprintf = 0x40000604
                0x0000000040000608                siprintf = 0x40000608
                0x000000004000060c                sniprintf = 0x4000060c
                0x0000000040000610                vprintf = 0x40000610
                0x0000000040000614                viprintf = 0x40000614
                0x0000000040000618                vsnprintf = 0x40000618
                0x000000004000061c                vsniprintf = 0x4000061c
                0x0000000040000620                sscanf = 0x40000620
                0x0000000040000624                siscanf = 0x40000624
                0x00000000400003fc                tlsf_create = 0x400003fc
                0x0000000040000400                tlsf_create_with_pool = 0x40000400
                0x0000000040000404                tlsf_get_pool = 0x40000404
                0x0000000040000408                tlsf_add_pool = 0x40000408
                0x000000004000040c                tlsf_remove_pool = 0x4000040c
                0x0000000040000410                tlsf_malloc = 0x40000410
                0x0000000040000414                tlsf_memalign = 0x40000414
                0x0000000040000418                tlsf_memalign_offs = 0x40000418
                0x000000004000041c                tlsf_realloc = 0x4000041c
                0x0000000040000420                tlsf_free = 0x40000420
                0x0000000040000424                tlsf_block_size = 0x40000424
                0x0000000040000428                tlsf_size = 0x40000428
                0x000000004000042c                tlsf_align_size = 0x4000042c
                0x0000000040000430                tlsf_block_size_min = 0x40000430
                0x0000000040000434                tlsf_block_size_max = 0x40000434
                0x0000000040000438                tlsf_pool_overhead = 0x40000438
                0x000000004000043c                tlsf_alloc_overhead = 0x4000043c
                0x0000000040000440                tlsf_walk_pool = 0x40000440
                0x0000000040000444                tlsf_check = 0x40000444
                0x0000000040000448                tlsf_check_pool = 0x40000448
                0x000000004000044c                tlsf_poison_fill_pfunc_set = 0x4000044c
                0x0000000040000450                tlsf_poison_check_pfunc_set = 0x40000450
                0x0000000040000454                multi_heap_get_block_address_impl = 0x40000454
                0x0000000040000458                multi_heap_get_allocated_size_impl = 0x40000458
                0x000000004000045c                multi_heap_register_impl = 0x4000045c
                0x0000000040000460                multi_heap_set_lock = 0x40000460
                0x0000000040000464                multi_heap_mutex_init = 0x40000464
                0x0000000040000468                multi_heap_internal_lock = 0x40000468
                0x000000004000046c                multi_heap_internal_unlock = 0x4000046c
                0x0000000040000470                multi_heap_get_first_block = 0x40000470
                0x0000000040000474                multi_heap_get_next_block = 0x40000474
                0x0000000040000478                multi_heap_is_free = 0x40000478
                0x000000004000047c                multi_heap_malloc_impl = 0x4000047c
                0x0000000040000480                multi_heap_free_impl = 0x40000480
                0x0000000040000484                multi_heap_realloc_impl = 0x40000484
                0x0000000040000488                multi_heap_aligned_alloc_impl_offs = 0x40000488
                0x000000004000048c                multi_heap_aligned_alloc_impl = 0x4000048c
                0x0000000040000490                multi_heap_check = 0x40000490
                0x0000000040000494                multi_heap_dump = 0x40000494
                0x0000000040000498                multi_heap_free_size_impl = 0x40000498
                0x000000004000049c                multi_heap_minimum_free_size_impl = 0x4000049c
                0x00000000400004a0                multi_heap_get_info_impl = 0x400004a0
                0x000000004087ffd8                heap_tlsf_table_ptr = 0x4087ffd8
                0x000000004000047c                PROVIDE (multi_heap_malloc = multi_heap_malloc_impl)
                0x0000000040000480                PROVIDE (multi_heap_free = multi_heap_free_impl)
                0x0000000040000484                PROVIDE (multi_heap_realloc = multi_heap_realloc_impl)
                0x0000000040000458                PROVIDE (multi_heap_get_allocated_size = multi_heap_get_allocated_size_impl)
                0x000000004000045c                PROVIDE (multi_heap_register = multi_heap_register_impl)
                0x00000000400004a0                PROVIDE (multi_heap_get_info = multi_heap_get_info_impl)
                0x0000000040000498                PROVIDE (multi_heap_free_size = multi_heap_free_size_impl)
                0x000000004000049c                PROVIDE (multi_heap_minimum_free_size = multi_heap_minimum_free_size_impl)
                [!provide]                        PROVIDE (multi_heap_get_block_address = multi_heap_get_block_address_impl)
                0x000000004000048c                PROVIDE (multi_heap_aligned_alloc = multi_heap_aligned_alloc_impl)
                [!provide]                        PROVIDE (multi_heap_aligned_free = multi_heap_aligned_free_impl)
                [!provide]                        PROVIDE (multi_heap_check = multi_heap_check)
                [!provide]                        PROVIDE (multi_heap_set_lock = multi_heap_set_lock)
                0x0000000040000464                PROVIDE (multi_heap_os_funcs_init = multi_heap_mutex_init)
                [!provide]                        PROVIDE (multi_heap_internal_lock = multi_heap_internal_lock)
                [!provide]                        PROVIDE (multi_heap_internal_unlock = multi_heap_internal_unlock)
                0x0000000000000010                _esp_flash_mmap_prefetch_pad_size = 0x10
                0x0000000000000000                _esp_memprot_prefetch_pad_size = 0x0
                0x0000000000000000                _esp_memprot_align_size = 0x0
                0x0000000000010000                _esp_mmu_block_size = 0x10000
                0x000000004080a798                _static_data_end = _bss_end
                0x0000000040000000                _heap_end = 0x40000000
                0x0000000050000000                _data_seg_org = ORIGIN (rtc_data_seg)
                0x0000000000000001                ASSERT ((_flash_rodata_dummy_start == ORIGIN (default_rodata_seg)), .flash_rodata_dummy section must be placed at the beginning of the rodata segment.)

.rtc.text       0x0000000050000000        0x0
                0x0000000050000000                . = ALIGN (0x4)
                0x0000000050000000                _rtc_fast_start = ABSOLUTE (.)
 *(.rtc.literal .rtc.text .rtc.text.*)
 *rtc_wake_stub*.*(.literal .text .literal.* .text.*)
 *(.rtc_text_end_test)
                0x0000000050000000                . = (. + _esp_memprot_prefetch_pad_size)
                0x0000000050000000                . = ALIGN (0x4)
                0x0000000050000000                _rtc_text_end = ABSOLUTE (.)

.rtc.force_fast
                0x0000000050000000        0x0
                0x0000000050000000                . = ALIGN (0x4)
                0x0000000050000000                _rtc_force_fast_start = ABSOLUTE (.)
                0x0000000050000000                _coredump_rtc_fast_start = ABSOLUTE (.)
 *(.rtc.fast.coredump .rtc.fast.coredump.*)
                0x0000000050000000                _coredump_rtc_fast_end = ABSOLUTE (.)
 *(.rtc.force_fast .rtc.force_fast.*)
                0x0000000050000000                . = ALIGN (0x4)
                0x0000000050000000                _rtc_force_fast_end = ABSOLUTE (.)

.rtc.data       0x0000000050000000        0x0
                0x0000000050000000                _rtc_data_start = ABSOLUTE (.)
                0x0000000050000000                _coredump_rtc_start = ABSOLUTE (.)
 *(.rtc.coredump .rtc.coredump.*)
                0x0000000050000000                _coredump_rtc_end = ABSOLUTE (.)
 *(.rtc.data .rtc.data.*)
 *(.rtc.rodata .rtc.rodata.*)
 *rtc_wake_stub*.*(.data .rodata .data.* .rodata.* .bss .bss.*)
                0x0000000050000000                _rtc_data_end = ABSOLUTE (.)

.rtc.bss        0x0000000050000000        0x0
                0x0000000050000000                _rtc_bss_start = ABSOLUTE (.)
 *rtc_wake_stub*.*(.bss .bss.*)
 *rtc_wake_stub*.*(COMMON)
 *(.rtc.bss)
                0x0000000050000000                _rtc_bss_end = ABSOLUTE (.)

.rtc_noinit     0x0000000050000000       0x10
                0x0000000050000000                . = ALIGN (0x4)
                0x0000000050000000                _rtc_noinit_start = ABSOLUTE (.)
 *(.rtc_noinit .rtc_noinit.*)
 .rtc_noinit.0  0x0000000050000000       0x10 esp-idf/esp_hw_support/libesp_hw_support.a(esp_clk.c.obj)
                0x0000000050000010                . = ALIGN (0x4)
                0x0000000050000010                _rtc_noinit_end = ABSOLUTE (.)

.rtc.force_slow
